:020000040800F2
:100000000040022099D10008EDCA0008F3CA000898
:1000100000000000000000000000000000000000E0
:1000200000000000000000000000000055A60108CC
:10003000000000000000000071A70108B9A7010836
:10004000E9D10008E9D10008E9D10008E9D10008A8
:10005000E9D10008F9CA0008E9D1000809CB000875
:10006000E9D100081DCB0008E9D10008E9D100085A
:10007000E9D1000835CB0008E9D10008E9D1000832
:100080004DCB000865CB000881CB0008E9D1000802
:10009000E9D1000899CB0008B1CB0008E9D10008EC
:1000A000E9D10008E9D10008E9D10008E9D1000848
:0C00B000E9D10008E9D10008E9D10008FE
:1000C00010B5064C2378002B07D1054B002B02D02E
:1000D000044800E000BF0123237010BD1801002078
:1000E000000000004CAC0108044B10B5002B03D0FD
:1000F0000349044800E000BF10BDC04600000000F6
:100100001C0100204CAC0108002243088B4274D330
:1001100003098B425FD3030A8B4244D3030B8B4208
:1001200028D3030C8B420DD3FF22090212BA030C11
:100130008B4202D31212090265D0030B8B4219D3F2
:1001400000E0090AC30B8B4201D3CB03C01A524112
:10015000830B8B4201D38B03C01A5241430B8B425A
:1001600001D34B03C01A5241030B8B4201D30B0343
:10017000C01A5241C30A8B4201D3CB02C01A52416A
:10018000830A8B4201D38B02C01A5241430A8B422D
:1001900001D34B02C01A5241030A8B4201D30B0216
:1001A000C01A5241CDD2C3098B4201D3CB01C01A30
:1001B000524183098B4201D38B01C01A524143093A
:1001C0008B4201D34B01C01A524103098B4201D328
:1001D0000B01C01A5241C3088B4201D3CB00C01A95
:1001E000524183088B4201D38B00C01A524143080D
:1001F0008B4201D34B00C01A5241411A00D2014632
:10020000524110467047FFE701B5002000F0F0F8BA
:1002100002BDC0460029F7D076E7704703460B437E
:100220007FD4002243088B4274D303098B425FD3EF
:10023000030A8B4244D3030B8B4228D3030C8B421B
:100240000DD3FF22090212BA030C8B4202D3121201
:10025000090265D0030B8B4219D300E0090AC30BD6
:100260008B4201D3CB03C01A5241830B8B4201D383
:100270008B03C01A5241430B8B4201D34B03C01A6C
:100280005241030B8B4201D30B03C01A5241C30AE4
:100290008B4201D3CB02C01A5241830A8B4201D355
:1002A0008B02C01A5241430A8B4201D34B02C01A3F
:1002B0005241030A8B4201D30B02C01A5241CDD2E4
:1002C000C3098B4201D3CB01C01A524183098B422F
:1002D00001D38B01C01A524143098B4201D34B0118
:1002E000C01A524103098B4201D30B01C01A52417B
:1002F000C3088B4201D3CB00C01A524183088B4202
:1003000001D38B00C01A524143088B4201D34B00EA
:10031000C01A5241411A00D201465241104670475C
:100320005DE0CA0F00D04942031000D34042534061
:1003300000229C4603098B422DD3030A8B4212D321
:10034000FC22890112BA030A8B420CD38901921153
:100350008B4208D3890192118B4204D389013AD090
:10036000921100E08909C3098B4201D3CB01C01A65
:10037000524183098B4201D38B01C01A5241430978
:100380008B4201D34B01C01A524103098B4201D366
:100390000B01C01A5241C3088B4201D3CB00C01AD3
:1003A000524183088B4201D38B00C01A5241D9D2EB
:1003B00043088B4201D34B00C01A5241411A00D26C
:1003C0000146634652415B10104601D34042002B68
:1003D00000D54942704763465B1000D3404201B5E7
:1003E000002000F005F802BD0029F8D016E770479C
:1003F0007047C0468446100062468C46190063462A
:1004000000E0C0461FB501F0C1FE002801D4002164
:10041000C8421FBD10B501F011FE4042013010BDB1
:1004200010B501F0B3FE002801DB002010BD012053
:1004300010BDC04610B501F0A9FE002801DD002066
:1004400010BD012010BDC04610B501F039FE0028D6
:1004500001DC002010BD012010BDC04610B501F028
:100460002FFE002801DA002010BD012010BDC0467B
:10047000844608006146FFE71FB500F08FFB0028A7
:1004800001D40021C8421FBD10B500F01BFB404243
:10049000013010BD10B500F081FB002801DB002009
:1004A00010BD012010BDC04610B500F077FB00283C
:1004B00001DD002010BD012010BDC04610B500F0C8
:1004C00027FB002801DC002010BD012010BDC04624
:1004D00010B500F01DFB002801DA002010BD01203E
:1004E00010BDC0469E2110B5C905041CFFF7F0FFE2
:1004F000002803D1201C00F099FE10BD9E21201C75
:10050000C90500F0DDFC00F091FE80231B069C462F
:100510006044F2E770B500220C4B04000D00FFF7B9
:100520009DFF002804D12000290002F0D7FC70BDF7
:10053000064B00222000290002F04EF902F0CEFC0A
:1005400080231B069C466044F1E7C0460000E04162
:10055000F8B54746CE464A0243024500C40F500A4A
:10056000804648005B0A000E9209944680B51E0042
:10057000814602002D0EDF00C90F8C4224D0281ABC
:1005800000280EDD002A3ED16246002A00D1FDE09F
:10059000421E012800D137E1FF2800D1A9E0100058
:1005A00039E0002863D04B46521B002D00D0E0E01C
:1005B000002F00D1CEE0531E012A00D155E1FF2AC1
:1005C00000D194E01A00D9E02A1A002A00DC99E050
:1005D000002862D0FF2D00D18BE080236146DB0430
:1005E00019438C461B2A00DCD2E00123DB195A0197
:1005F0006AD50135FF2D5BD00122A3491A405B0863
:100600000B4013431CE0FF2D00D172E080236246B3
:10061000DB041A4394461B2800DC90E00123FB1AFC
:100620005A0151D59B019E09300002F0B1FD330003
:1006300005388340854200DC75E0944A2D1A13404A
:100640005A0704D00F221A40042A00D004335A015A
:100650003CD5681CFE2D2BD09B015E0AC0B2C005A4
:100660003043E4072043C0BCB946B046F8BDFE2085
:100670006A1C104272D1002D00D0AEE0002F00D1D4
:10068000ECE063460020002BE9D0FB1A5A0100D4AD
:10069000F3E063460C00DB1BD2E7614600295BD028
:1006A000511E012A00D1A7E0FF2A22D00A0099E7B3
:1006B000FF200026D3E7FE216A1C114273D0FF2AD7
:1006C000F6D0150067447B085A07BBD1DB08FF2D25
:1006D0000FD05B025E0AE8B2C1E76246002A08D08A
:1006E0008022D203134204D04046104201D10C00B4
:1006F0004346002BDCD08026F6031E437602FF2003
:10070000760AACE7002AD6D0421B002D5CD0FF2829
:10071000EED08023DB041F431B2A00DC82E0012390
:100720004D46634463E72022401B0130121A190032
:100730009340C1405A1E934100250B4380E720237C
:1007400061461B1A994062460B00C240591E8B41FC
:10075000134364E70C0043461500B8E76346FE1AEE
:10076000730145D4002E00D05EE70024002000264F
:1007700075E7FF2BBBD08023DB041F431B2A47DD1B
:10078000012362460C004D46D31A49E705009EE757
:1007900061462023D1409B1A62469A4013005A1E9C
:1007A00093410B4322E7002D46D1002F62D06346D0
:1007B0000020002B00D152E73B0063445A0183D54F
:1007C000324A013513407FE7002FC4D0531E012A5F
:1007D00012D0FF2A8CD01A009EE7002F00D07CE7B1
:1007E0006346002B83D180260024FF20F60336E7E2
:1007F00063460C00DE1B17E73B00634401255A01EA
:1008000000D461E70225F7E663460125FB1A07E7F6
:1008100020239B1A38009F403B00D0405A1E934132
:100820000343AEE720239B1A39009F403B00D14091
:100830005A1E93410B4373E7002F00D158E76246DD
:10084000002A00D155E78022D203134200D150E79D
:100850004146114200D04CE743464AE76346002B2D
:1008600083D00C0046460020F9E663460C00DB1BF3
:100870000135D5E646460020F1E6002B00D023E7FF
:1008800000240026EBE6C046FFFFFF7DFFFFFFFBD5
:10089000F0B54F464646D6464502C0B547000C1C4B
:1008A0006D0A3F0EC60F002F00D16FE0FF2F00D161
:1008B00074E00023802299469A46ED00D204154345
:1008C0007F3F63025B0A984663001B0EE40F002B18
:1008D0004DD0FF2B45D042468021D200C9041143A0
:1008E000884600227F3B3100FF1A4B466140C9B267
:1008F0000F2B00D9B8E070489B00C3589F460023D7
:1009000098462600454692465346022B00D18DE07C
:10091000032B00D1A1E0012B18D03B007F33002B2B
:100920006DDD6A0704D00F222A40042A00D0043566
:100930002A0103D5614B1D403B008033FE2B00DDB7
:1009400074E0AA01520AD8B202E00E000020002290
:10095000C005F60710433043E0BCBA46B146A8468E
:10096000F0BD4346002B3FD10222FF3F03E0434648
:10097000002B2DD1012231004B466140C9B21343F7
:100980000F2B38D84E489B00C3589F46002D13D1DB
:1009900004239946033B00279A4692E7002D05D190
:1009A00008239946063BFF279A468AE70C23994677
:1009B000093BFF279A4684E7280002F0E9FB7627E7
:1009C000431F9D4000237F4299469A463F1A78E78D
:1009D000404602F0DDFB4246431F9A4076235B42CD
:1009E00090461B1A00227EE703234A461A4391468B
:1009F000FC33032277E70E00FF200022A8E7012244
:100A0000D31A1B2BA2DC9E372A00BD40DA406B1E96
:100A10009D4115436A0704D00F222A40042A00D0C2
:100A200004356A0144D50120002291E7FF2000220D
:100A30008EE780220026FF20D20389E70023984614
:100A40008022D203154208D04346134205D11A43EF
:100A500052022600FF20520A7AE78022D2032A435C
:100A60005202FF20520A73E742466B015501AB4226
:100A70001AD21B200022013F01261C0052005B00FD
:100A8000002C01DB9D4201D85B1B3243013800285A
:100A9000F3D1581E834113431D003B007F330E00EA
:100AA000002B00DD3DE7AAE71A2001225B1BE3E7EC
:100AB000AA010020520A4BE74CB00108FFFFFFF7E4
:100AC0008CB0010870B5420045024E024C00C30FC5
:100AD0006D0A0120120E760A240EC90FFF2A06D0D5
:100AE000FF2C03D0A24201D1B54206D070BD002D2B
:100AF000FCD1FF2CFAD1002EF8D18B4206D0012078
:100B0000002AF3D12800431E9841EFE70020EDE7CB
:100B100070B5420045024E024C00C30F6D0A120E22
:100B2000760A240EC80FFF2A1BD0FF2C0ED0002AF5
:100B30001BD1002C01D1002E1CD0002D0CD08342E3
:100B40001CD00221581E0840013870BD002E22D151
:100B5000002AF4D1002DF2D10028F6D10120404224
:100B6000F3E7002D17D1FF2CF0D0002CE7D1002E99
:100B7000E5D1E6E70020002DE7D0E2E7A24205DC60
:100B8000EADBB54202D8E7D30020DEE74342584112
:100B900040000138D9E702204042D6E770B5420054
:100BA00045024E024C00C30F6D0A120E760A240E47
:100BB000C80FFF2A0BD0FF2C0DD0002A1FD1002C0C
:100BC00016D1002E14D10020002D10D009E0002DE8
:100BD0000CD1FF2C13D1002E08D1002A08D083425B
:100BE00012D00221581E0840013800E0022070BDDA
:100BF000002DF4D10028FAD101204042F7E7002C63
:100C0000EDD1002EEBD1ECE7A24205DCF2DBB542E0
:100C100002D8EFD30020EAE74342584140000138B0
:100C2000E5E7C04643025B0AF0B54F4646469946A3
:100C3000D646C30F45009846C0B54B460F1C2D0E37
:100C400000D1CBE0FF2D00D1CFE08022DB00D20429
:100C50001A430023914600269A467F3D7C027B0082
:100C6000640A1B0EFF0F002B00D1A9E0FF2B11D04F
:100C70008022E400D204144342467F3B5B197A4051
:100C80000020D2B25D1C0A2E13DD3A000B2E47D095
:100C900047463FE02B00FF33002C1ED102221643B3
:100CA000424601357A40D2B2FF350A2E00DDE4E03B
:100CB0000220022E1CDC013E012E42D802283DD02B
:100CC000012866D100200021C0050843D207104347
:100CD000E0BCBA46B146A846F0BD032216434246E0
:100CE00001357A40D2B2FF350A2E00DDE4E0032060
:100CF0000121B140A626F60031420AD19026B60065
:100D0000314216D1B93EFF3E0E421AD0A14682466C
:100D100000E0170053463A00022B0FD04C465046D5
:100D20000328CDD18021C90321434902FF20490A6C
:100D3000CAE780210022FF20C903C5E7FF20002168
:100D4000C2E7200C49462404240C27000E0C090499
:100D5000090C74434F4346434843390C00190918A2
:100D60008C4203D980204002844666443F04080434
:100D70003F0CC0198401671EBC41090C800E891903
:100D8000044389010C43090171D5012361081C400A
:100D90000C432B007F33002B51DD610704D00F2162
:100DA0002140042900D00434210103D5434B1C40C9
:100DB0002B008033FE2BC1DCA101490AD8B283E7A6
:100DC000002C2CD1012342461E432B007A400120E7
:100DD000D2B25D1C0A2E00DD57E76AE7002B10D166
:100DE0000123042600259A4638E7002B04D102236C
:100DF0000826FF259A4631E703230C26FF259A464D
:100E00002CE7484602F0C4F94A46431F76259A402B
:100E100000236D42914600269A462D1A1EE72000B7
:100E200002F0B6F94246431F9C402B1A763B7A40AB
:100E30000020D2B25D1C0A2E00DD26E739E7012131
:100E4000CB1A1B2B00DD3DE79E352100AC40D9407D
:100E5000631E9C4121434B0704D00F230B40042BFE
:100E600000D004314B0104D5012000212CE71D00E6
:100E70008FE789010020490A26E702230F2E0CD1B3
:100E800080214B46C9030B420DD00C420BD12143AC
:100E900049023A00FF20490A16E70B2E00D0F7E678
:100EA000A1469A4636E780214B46C90319434902B9
:100EB0004246FF20490A07E70323DFE7FFFFFFF76A
:100EC000F0B5C64643025B0A4500DA00C40F48028B
:100ED0004F009446420A1E00904600B52D0E3F0E6C
:100EE000C90F8009FF2F59D0012251408C4239D0BF
:100EF000EA1B002A58DD002F68D0FF2D00D1D1E079
:100F00008023DB0418431B2A00DCE3E00123624654
:100F1000D31A5A0100D4ACE09B019E09300002F0C4
:100F200037F9330005388340854200DCC6E0B24A19
:100F30002D1A13405A0704D00F221A40042A00D059
:100F400004335A0100D497E06A1CFE2D00D184E0DE
:100F50009B015E0AD2B2D0053043E407204380BC37
:100F6000B846F0BDEA1B002A41DD002F6BD0FF2DF3
:100F700000D197E08023DB0418431B2A00DCCCE07F
:100F8000012363445A0174D50135FF2D65D0012238
:100F90009A491A405B080B401343CBE700281FD047
:100FA0008C4222D02A00FF3A002A35D07A1B002D2D
:100FB00000D099E06346002B00D1DDE0531E012AEA
:100FC00000D105E1FF2A6BD01A0094E0002873D00D
:100FD000511E012A00D1DFE0FF2A63D00A0092E708
:100FE00001225140A14200D082E72A00FF3A002AA4
:100FF00036D07A1B002D00D1AAE0FF2F00D1DAE015
:1010000080236146DB0419438C461B2A00DCD4E0B4
:1010100001233D001B18B5E7FE276A1C174271D15A
:10102000002D00D09EE06346002B00D1D5E00022C9
:10103000002800D18FE71B1A5E0100D4D6E063467A
:101040000C00C31A76E7002836D0511E012A00D1C1
:101050009AE0FF2A26D00A008FE7FF2200267AE7CF
:10106000FE276A1C174262D0FF2AF6D015006044A2
:1010700043085A0700D05FE7DB08FF2D12D05B0260
:101080005E0AEAB267E76246002A00D193E00028D0
:1010900008D08022D203134204D04046104201D12E
:1010A0000C004346002BD8D08026F6031E43760260
:1010B000FF22760A4FE743461500DEE72022401B59
:1010C0000130121A19009340C1405A1E9341002565
:1010D0000B432FE720239B1A010098400300D140C7
:1010E0005A1E93410B4312E7FF2FD9D08023644649
:1010F000DB041C43A4461B2A52DD01230C003D00E7
:10110000C31A06E763461E1A730139D4002E00D0B5
:1011100004E70024002200261DE720239B1A01007B
:1011200098400300D1405A1E93410B4329E7002DFC
:10113000A9D16346002B56D00022002800D10AE72F
:10114000030063445A0194D52B4A0135134090E7BC
:101150006346002BAFD0531E012A15D0FF2A2AD098
:101160001A0052E76246002A91D1002898D18026C1
:101170000024FF22F603EEE60C00434615007CE750
:1011800063460C00C61AC9E60300634401255A01F0
:1011900000D46EE70225FAE6634601251B1AB8E67D
:1011A00064462023D4409B1A62469A4013005A1E7C
:1011B00093412343A2E7434674E761462023D1408D
:1011C0009B1A62469A4013005A1E93410B4320E734
:1011D00063460C000125C31A9BE6002899D00C0039
:1011E00046460022B7E646460022B4E6002B00D071
:1011F0003FE700240026AEE6FFFFFFFBFFFFFF7D79
:1012000043024A02400049005B0A520A090E000EDE
:10121000FF2806D00020FF2902D1531E9A4110005A
:101220007047FE38002BFBD1F4E7C0464102420074
:10123000C30F490A0020120E7E2A03DD9D2A02DD1B
:10124000094A98187047802000040143952A07DC5A
:101250009620821AD1404842002BF3D10800F1E7D2
:10126000963A9140F7E7C046FFFFFF7F70B5002830
:1012700013D0C317C5185D40C40F280001F088FFC4
:101280009E2301001B1A962B0FDC082831D0083949
:101290008D406D026D0AD8B202E0002400200025C6
:1012A000C0052843E407204370BD992B0CDD0522BF
:1012B000121A2800D040020008001B308540280088
:1012C000451EA84102431500052916DC2A000F48D7
:1012D00002406E0709D00F263540042D05D0043298
:1012E000550102D59F2302405B1A9201550AD8B2DC
:1012F000D6E76D0296206D0AD2E74A1F95402A0074
:10130000024802406E07F0D0E5E7C046FFFFFFFB52
:1013100070B5041E0ED001F03BFF9E2301001B1A86
:10132000962B0CDC08282CD008398C406402640A07
:10133000D8B201E000200024C005204370BD992BE5
:101340000ADD020020001B3290400200501E824144
:101350000520401AC4401443052916DC22000F481A
:101360000240650709D00F252C40042C05D004321B
:10137000540102D59F2302405B1A9201540AD8B24D
:10138000DAE764029620640AD6E74A1F94402200F6
:10139000024802406507F0D0E5E7C046FFFFFFFBCB
:1013A000F0B54F464646D6460400C0B51F000B03B5
:1013B00010004E005B0ACD0F610F7A001943E30065
:1013C0003C03FF0FBC46640A470F2743760D520DBE
:1013D000C000B9468046B71A654500D19BE0002F92
:1013E00000DC84E0002A00D1BEE0C84A964200D169
:1013F00024E180224C4612041443A146382F00DD1C
:1014000067E11F2F00DDD6E120224C46D21B94401D
:10141000A2464446FC4020005446044340469040C7
:10142000421E90414A46FA400443891A1C1BA342BB
:10143000924152428B1A9A4653461B0200D4D4E082
:1014400053465A02530A9A465346002B00D104E1F0
:10145000504601F09DFE0300083B20222000D21AD6
:101460005146D040994002009C400A43B34200DA02
:1014700002E19B1B591C1F2900DDA7E0202310005F
:1014800026005B1A9C409840CE40CA40631E9C4197
:101490003043924600260443630709D00F232340BC
:1014A000042B05D0231DA342A4416442A2441C0086
:1014B00053461B0200D49BE0944B01369E4200D160
:1014C000B8E053469249E4080B4019005B072343F8
:1014D00072054C02240B520D1205ED0722432A43DC
:1014E00018001100E0BCBA46B146A846F0BD002F76
:1014F00048D0971B002E00D00EE10C001C4300D1F9
:10150000B7E17C1E012F00D126E2804DAF4200D111
:10151000D5E1270007E1002F00DCB2E0002A47D028
:101520007A4A964200D189E080224C461204144344
:10153000A146382F6BDC1F2F00DC6EE13A004846D5
:10154000203AD0408446202F07D040224846D21B64
:10155000904002004046104380464046421E904163
:1015600062460400144357E04A46024300D103E1B7
:101570007A1E012F00D193E1644CA74200D18AE189
:1015800017003BE7634C721C224200D0E0E00A00E7
:101590001A43002E00D074E1002A00D1D0E14A465F
:1015A000024300D0E3E14A07DB081343C90829E0FE
:1015B0004A46024300D17DE17A1E012F00D1E0E0CE
:1015C000524CA74200D166E11700B2E710001F3B62
:1015D000D840202903D040235B1A9A401443631E4D
:1015E0009C41002300269A460443630700D055E738
:1015F0005246E3085207134352463700D108434A84
:1016000097421FD009037A050C0B520D64E742463E
:101610004C461443621E9441E4189C42924152424B
:1016200092468A4453461B02DFD5384B01369E4210
:1016300000D0B3E03200002400234DE74A07DB0866
:101640001343C9081A000A4300D100E2802424038E
:101650000C4324032D4A240B3EE7200001F098FDA3
:10166000030018331F2B00DCF7E622000838824005
:101670000024B34200DBFCE6F61A254B1A409246E2
:101680000AE7002F2BD0971B002E00D1B8E01F4C8B
:10169000A24200D11CE1802424042143382F00DD24
:1016A0001EE11F2F00DD9EE120260C00F61B180016
:1016B000B340B440F8405E1EB341F94004431C43BC
:1016C0008944444444459B415B424B449A4616003E
:1016D000A8E742464C461443621E9441A6E60D4CD0
:1016E000721C224200D0A8E00A001A43002E00D04B
:1016F0000AE1002A00D15EE14A46024300D061E1DE
:101700004A07DB081343C9087CE7C046FF0700000F
:10171000FFFF7FFFFE070000CF4CA24200D1CEE0CA
:10172000802424042143382F5BDC1F2F00DDDCE004
:1017300020250C00ED1B1E00AB40AC40FE405D1EA2
:10174000AB413443F9401C434B465B1A99464CE08D
:101750004A461C1A881AA3429241524292460200FB
:101760005046121A9246120278D45346234300D0B0
:101770006AE60021002545E74A07DB081343C9084C
:101780003DE71C189C429B4149448A465B429A446F
:10179000534601261B0200D427E702265246AF4BD0
:1017A00001211A401300214062080A43DC075B084C
:1017B0009A46144370E63A004C46203AD440A44678
:1017C000202F07D040224846D21B904002004046BE
:1017D000104380464046421E904162460400144336
:1017E00024E619430C00631E9C4143461C1BA04584
:1017F0009B4149465B42CB1A9A46654616001BE65A
:101800000C001C4300D1C7E07C1E012F00D1F9E081
:10181000914EB7425CD0270040E720224C4640461C
:10182000D21B9440F840044340469040421E9041F1
:101830004A46FA4004438918EEE6874CA24200D19A
:10184000F9E6181898429B4149445B42CB18DC07E3
:1018500040085B089A4616000443C6E64246D41A7E
:10186000A04580414B464042591A0B1A9A4665469C
:10187000EAE54B464A46C0085B0765460343D10884
:10188000BDE6002A00D08EE04B46034317D18021ED
:1018900000250903DAE64A07DB081343C908D1E645
:1018A0001C1A4A46A3429B41891A5B42CB1A9A46AC
:1018B0000126C1E54A07DB081343C9089FE64346F2
:1018C000D8084B464A465B0765460343D108B9E64C
:1018D0004346D8084B464A465B070343D108B1E666
:1018E00019430C00631E9C41EBE63C000D00203CBC
:1018F000E540202F03D04024E41BA1400B431C00F3
:10190000631E9C412C4370E7002AE1D04A46024303
:10191000C1D04A07DB0813438022C90812031142D1
:1019200008D04846C408144204D143462100DB08CD
:10193000420713435A0FDB005207DB08134381E6CB
:101940004B46034300D114E74B464A46C0085B07A9
:1019500065460343D10855E6C41AA04580414B466D
:101960004042591A0B1A9A466546012664E51C1A2C
:101970004A46A34280418A1A4042121A92461202F3
:1019800049D54246D41AA04580414B464042591A97
:101990000B1A9A4665467FE54B464A46C0085B07E8
:1019A0000343D1082BE64A46DB08024338D14A07F5
:1019B0001343C90846E64B464A46C0085B07034343
:1019C000D1081FE61C189C429B4149448A465B4251
:1019D0009A4453461B0200D407E652461F4B012689
:1019E0001A40924601E63C000E00203CE640202FC3
:1019F00003D04024E41BA1400B431C00631E9C4108
:101A000034435EE643448342804149448A4640422F
:101A10001C008244BCE65346234300D1A9E6E4E51A
:101A20004A0713438022C9081203114209D04846CD
:101A3000C408144205D1434665462100DB0842072D
:101A400013435A0FDB00DB0852071343FAE5002368
:101A5000014A1C0040E5C046FF070000FFFF7FFF72
:101A6000F0B557464E464546DE46E0B50C031F002E
:101A70004B0081469246050085B0240B5B0DCE0FCE
:101A8000002B00D152E1D24A934200D16EE1420FC5
:101A9000E40014438022120422439046CD4AC5003C
:101AA00093469B440023994600933C037B00504699
:101AB000240B5B0DFF0F002B00D11AE1C44A9342A7
:101AC00000D15EE1420FE400224380242404144349
:101AD000C04AC10094465A466344D31A9B4600202C
:101AE00033007B409A464B460F2B27D8BA4A9B00BF
:101AF000D3589F46B246009B022B16D0032B00D131
:101B000087E2012B00D0D5E00023002200251B0531
:101B100013435246D20713432800190005B0F0BC06
:101B2000BB46B246A946A046F0BD00220025A84B00
:101B3000EDE7BA46A0460D000090DCE7444500D230
:101B4000C4E100D1BFE101235B429C462E00404628
:101B50000025E34423020C0E1C431B0C994623046E
:101B60000A021F0C494600920197FEF753FB020040
:101B70007A430B04310C804619438A4207D901236A
:101B80005B429C460919E0448C4200D801E2881A65
:101B90004946FEF73FFB019A360442430904360CDE
:101BA00003000E43B24204D93619013BB44200D8B7
:101BB000E9E1B01A4246009E12041A43330C1F009A
:101BC000110C9046029313043204160C32001B0CC5
:101BD0005A4303967B434E437943170CBC469B19EB
:101BE00063449E4203D980267602B44661441E0CAB
:101BF000711816041B04360C9E19884202D312D1A8
:101C0000B54210D243465A1E009B9C4665441F00B5
:101C10009D429B415B421B19C018844200D29EE149
:101C200000D199E19046AE1BB542AD41401A6D42DC
:101C3000401B844200D1D2E14946FEF7EBFA019AFB
:101C40000B044243310C050019438A4200D96CE170
:101C5000881A4946FEF7DEFA019A3604424309041F
:101C6000360C03000E43B24200D953E10398B61A72
:101C700002002D041D43029F2B041B0C5A437B437F
:101C80009C46290C4843130C84446344794398428E
:101C900003D98020400284466144180C12041B04BE
:101CA000120C40189B18864200D200E100D1FBE0E4
:101CB00001231D43494B5B44002B00DCAAE06A076B
:101CC00000D03DE1E9084246D20106D54246444BE8
:101CD0001A4080239046DB005B44424A934200DD79
:101CE00023E742465B05550752020D43120B5B0D7D
:101CF0000DE75146214300D17CE0002C00D1FBE0F0
:101D0000200001F045FA02000B3A1D239B1A5246AF
:101D10000100DA40534608398B408C4019001443C7
:101D2000314B58449B4683440020D9E603002343AB
:101D3000984644D0002C00D1CFE0200001F028FAD2
:101D4000010002000B391D235B1A49461000D940DF
:101D5000083884400B004D46234398468540234B6A
:101D60009B1A9B460023994600939EE6020022435D
:101D700090461DD108229B460223002591460093E0
:101D800093E65146214309D102234A461A43184B90
:101D900091469C4600240220E344A1E603234A46E0
:101DA0001A43134B91469C4651460320E34497E661
:101DB0000C229B460323A0469146009375E604231C
:101DC000994600239B460133002500936DE6C046EB
:101DD000FF07000001FCFFFFCCB00108FF0300007B
:101DE000FFFFFFFEFE070000F30300000DFCFFFFF6
:101DF00001F8FFFF4A4601231A43914600240120BF
:101E00006EE6002380229A460025884B12037EE668
:101E100001256D420122D21A382A00DD74E61F2AFC
:101E200000DCBDE01F214942CB1A4146D9400B00DE
:101E3000202A04D041467E4A5A4491400D4329004D
:101E40004A1E9141194307231D0000220D400B42F9
:101E500000D1D0E00F2200230A40042A00D1C7E0BD
:101E60000A1D8A42894149425B1811001A0200D4B6
:101E7000BEE001230022002549E6802243461203EA
:101E8000134208D0144206D122431203BA460D0071
:101E9000664B120B3BE68022434612031A431203A1
:101EA000B246624B120B32E6002B00D102E7A619B4
:101EB0006A1EA64200D289E0864200D29FE000D18D
:101EC000AFE01500F4E6A94200D93CE64346DE0740
:101ED00058086B081E43ED073CE601F059F9010074
:101EE0000200153120321C2900DC2CE74B46083853
:101EF00083400025984632E701F04AF903001A00B2
:101F0000153220301C2A00DCFFE65446083B002135
:101F10009C4005E73619013BB44200D9A6E6B2421F
:101F200000D8A3E6831E3619A0E60919013D8C42AC
:101F300000D98DE68A4200D88AE6851E091987E60F
:101F40000F222A40042A00D1BCE6291DA942AD4136
:101F50006D42C908A844B6E6AF4200D962E68142A4
:101F600004D800D05EE6AE4200D85BE602235B42B6
:101F70009C46009BE0449C4665449D429B415B42DD
:101F80001B19C0184FE6B24200D812E6831E36195C
:101F90000FE68A4200D8FAE5831E98460919F6E54D
:101FA000244B28005B4441469D409940D0406B1E25
:101FB0009D41434601432943D3404A0700D155E799
:101FC0000F220A40042A00D04AE74FE71500864254
:101FD00000D06DE6009A9A4200D069E66AE6164B98
:101FE0005B44002B00DC13E701250021A8446AE6CE
:101FF0005D075B021A0BC90800230D4387E50099B2
:10200000023D4A008A42BF417F423F19F6190092C1
:10201000DDE78022434612031A431203034B120BDF
:1020200075E500999942EAD31500D3E7FF07000050
:102030003E0400001E040000FF030000F0B54E4601
:102040004546DE4657469046E0B517001A03120B88
:102050000500844619480E034C0091465A00DB0FD8
:102060009B46360B640DC90F520D844219D0824233
:1020700010D0012094420ED14E450CD10120C44510
:1020800009D1594517D0002C05D130002843431EF3
:10209000984100E00120F0BCBB46B246A946A046EC
:1020A000F0BD330001202B43F5D1A242F3D14B46C2
:1020B0003B43F0D1E2E70020EDE7C046FF07000018
:1020C000F0B54746CE460400180016001B031B0B54
:1020D0002D4D4A00994680B543000F03A446B046F3
:1020E0003F0B520DC90F5B0DC00FAA4221D0AB426E
:1020F00013D0002A22D13C43002B02D14D462E435F
:1021000022D0002C10D0814222D002200139084078
:102110000138C0BCB946B046F0BD4D462E4329D16A
:10212000002AF0D13C43EED10028F2D101204042F8
:10213000EFE73D0025431DD19342EED0002BE2D1C5
:102140004C462643DFD1E0E70020002CE1D0DCE75D
:102150009A420ADCE8DB4F45D7D80ED000204F4525
:10216000D7D20029E2D00800D3E7434258414000CB
:102170000138CEE702204042CBE7C445C5D8002055
:10218000C445C6D2EDE7C046FF070000F0B547469C
:10219000CE460400180016001B031B0B2C4D4A00F2
:1021A000994680B543000F03A446B0463F0B520D3D
:1021B000C90F5B0DC00FAA420DD0AB4210D0002A50
:1021C00027D13C43002B11D14D462E430ED1002088
:1021D000002C15D00EE03D00254310D1934218D1BC
:1021E0004D462E430BD1002A02D13C43002C0BD08C
:1021F000814214D0022001390840013800E0022059
:10220000C0BCB946B046F0BD0028F9D1012040421B
:10221000F6E7002BECD14C462643E9D1EAE79A4297
:1022200004DD4342584140000138E9E79A42EBDBC4
:102230004F45DFD806D000204F45E1D20029E5D038
:102240000800DDE7C445D5D80020C445D8D2F5E75D
:10225000FF070000F0B54546DE4657464E46E0B55E
:102260001F000B031B0B9B464D00CB0F0400914638
:10227000984687B06D0D00D1CDE1CE4B9D4200D187
:10228000E9E15A46430FD2001343802212041A4355
:10229000C3009A46C84B93469C46002300266544DB
:1022A00000933C037B004846240B5B0DFF0F002B83
:1022B00000D189E1BF4A934219D0420FE400224382
:1022C000802424041443BC4A0021944642466344BB
:1022D0005B190193019B7A400133C000D2B2029393
:1022E0000A2E1CDD3A000B2E5ED0474656E04946CA
:1022F000B04B2143EB18019300292AD18020022200
:1023000000012B0084461643424663447A40D2B211
:1023100002930A2E00DD31E2002000240221022E69
:1023200026DC013E012E52D802294CD0012900D0D2
:1023300018E10023002400251B052343D207134383
:102340002800190007B0F0BCBB46B246A946A0461B
:10235000F0BD8021032209012B008C461643424622
:1023600063447A40D2B202930A2E00DD28E20321B0
:102370000125B540AC46A6266346F60035403342FB
:102380000BD19026B600334218D1B93EFF3E1E4213
:102390001DD0A3468246009100E0170000993A0044
:1023A000022910D05C4650460329BFD180231B036D
:1023B0001C43240305007F4B240BBDE7802400222F
:1023C0007C4B2403B8E7002400257A4BB4E753463E
:1023D0001E04360C1F0C3300010C0004000C434398
:1023E000984603007B43994633004B439C46434643
:1023F0000D001B0C9A467D43CC44D4440095E14526
:1024000004D980235B0299464D44009563461B0C1A
:102410001D0063461B049C4643461B041B0C984648
:10242000634643440393230C984633002404240C4E
:1024300063439C4623007B43994643465E435F4388
:102440004E446346B2461E0C5644B14503D9802320
:102450005B0299464F44330C99463B004B4405932D
:102460006346AC461F043F0C3604F619B444634679
:1024700004935B461B0C9C465B461F043F0C3B00D1
:1024800043439946634643439A464B4660461B0C7A
:102490009B4648437943514459448A4503D9802394
:1024A0005B029A4650440B0C9A464B461B041B0C8D
:1024B00099463B00634309044546494499466346AF
:1024C0005C436B439C464B461B0C98466F433F193D
:1024D00047445044BC4203D980235B029846C4441D
:1024E000049B009D98464544B542B64173429846C8
:1024F0004B461E04059B3C049946360CA4194C44DB
:10250000A14683466E18C1448E428941CB445D4644
:1025100049426D189C42A441C1459B41834580417D
:102520008D4289415B4264421C434042039B4942C5
:10253000014370023F0C1843E419471EB841641868
:102540006444F60D61023043EC0D6E020C433043DF
:10255000C90100D4F1E00121430801400B43E00729
:10256000184364081549029B8C466344002B00DC29
:1025700097E0410709D00F210140042905D0011D32
:1025800081428041404224180800E10106D58021A3
:10259000C9008C460A4B1C40029B634409498B428C
:1025A00000DD10E76107C50864025B050D43240BDD
:1025B0005B0DC1E6FF07000001FCFFFFFF03000009
:1025C000FFFFFFFEFE0700004B46234359D0002CBF
:1025D00000D1A3E0200000F0DBFD010003000B3977
:1025E0001D22521A49461800D1404A4608388240F6
:1025F000844010000C43744AEB1A944642466344EC
:102600000193019B7A4001330021D2B202930A2E3A
:1026100000DD67E683E65B4603439A462AD05B46C5
:10262000002B6DD0584600F0B3FD010003000B39BC
:102630001D22521A210018005D46D14008388540FD
:102640000A0084402A439346A2465F4D0026ED1AB5
:102650000023009325E65B4603439A4605D10023F9
:102660009B460233082600931BE6032382460C2672
:10267000009316E600239B460133042600250093B1
:102680000FE64246013301951E43019B7A40013318
:10269000002400200121D2B202930A2E00DD21E69F
:1026A0003DE60121C91A382900DD42E61F2947DD30
:1026B0001F2625007642F31ADD402B00202905D085
:1026C0004249029D8C466544AC402043411E8841EE
:1026D000184307231D000024054003424AD00F235E
:1026E00000240340042B42D0031D8342804140421A
:1026F0002418180023023AD50123002400251BE6E4
:1027000000F046FD01000300153120331C298FDD48
:102710000838002284409246A34696E700F038FD30
:1027200001000300153120331C2900DC58E70200AA
:102730004C46083A002094405DE7019B029311E764
:10274000234B26009C460300029DCB406544AE40CF
:102750001E430300AB40581E834130001843CC4059
:102760004307C7D00F230340042BBDD1C2E7650741
:102770006402240BC00800230543DDE50025022385
:102780000F2E0CD180245B46240323420ED021421D
:102790000CD10C4324033A000E4B240BCCE50B2E3A
:1027A00000D0A2E58B46AA460093F7E580245B465D
:1027B00024031C43240342465546064B240BBBE529
:1027C0004D4621000323DBE70DFCFFFF3E04000024
:1027D0001E040000FF070000F0B557464E46454670
:1027E000DE46E0B50D000400190010002B035B0A63
:1027F000620F1A43E3000C03640A470F2743D04CCF
:102800006E00914683B04A00C0009846A246760DFD
:10281000ED0F520DC90F0190A24200D1B9E0012481
:1028200061408B468D4200D18DE0B41AA446002C45
:1028300000DCB7E0002A00D1CBE0C14A964200D1CB
:1028400086E18022120417436246382A00DDA4E1A3
:102850001F2A00DD1DE2614620223C00521A0100C1
:1028600090409440421E90416246A0466446D74044
:102870004A46E1404446D21B91460C4304431C1B8C
:10288000A34292414B4652429B1A9A4653461B0220
:1028900000D42BE153465A02530A9A465346002B62
:1028A00000D166E1504600F073FC0300083B202293
:1028B0002000D21A5146D040994002009C400A4361
:1028C0009E4200DD64E19B1B591C1F2900DDFEE0D8
:1028D0002023100026005B1A9C409840CE40CA403E
:1028E000631E9C413043924600260443630709D08F
:1028F0000F232340042B05D0231DA342A44164428F
:10290000A2441C0053461B0200D4F2E08C4B01365B
:102910009E4200D10FE153468A49E4080B4019005A
:102920005B07234372054C02240B520D1205224310
:10293000ED072A431800110003B0F0BCBB46B246B5
:10294000A946A046F0BDB41AA446002C59DD002AC1
:1029500000D1B0E0564500D1FAE0802212041743BE
:102960006246382A00DDD4E01F2A00DCC0E13900CD
:10297000203AD1406246202A06D064464022121BEB
:102980003C00944004430194019C621E94410C431A
:10299000C3E03C0004432BD08B468D422ED06A4CC2
:1029A000A446B4446446002C5FD0941BA446002E79
:1029B00000D020E14C461C4300D1C7E161464C1ECB
:1029C000012900D123E25E4DAC4500D1D8E1A446F7
:1029D0001AE13A00024300D1E4E02200013A012C5E
:1029E00000D1C3E156498C4200D1B1E094462BE7B7
:1029F000012461408B468D4200D016E752498C4637
:102A0000B4446446002C00D1D3E0911B8C46002EC8
:102A100000D15EE14A498A4200D1BEE180214C46A4
:102A200009040C43A1466146382900DDBAE11F299B
:102A300000DD27E22024641A4946A1401E00884692
:102A40006146A340CE4041465C1EA3413143194339
:102A50000C0063464946D9407F18241884429B41A4
:102A60005B429A461600BA445DE0384C721C224222
:102A700000D0DFE04A461A43002E00D05CE1002A75
:102A800000D1CFE13A00024300D17FE11C1A4A464F
:102A9000A3428941D21B4942521A9246120200D4E3
:102AA0000AE2C41AA04280414B464042FF1A3B1A38
:102AB0009A465D461AE73A00024373D02200013A73
:102AC000012C00D1CBE0544542D0944648E7100099
:102AD0001F3BD840202903D040235B1A9A4014435F
:102AE000631E9C41002300269A460443630700D0DE
:102AF000FEE65246E308520713435246B446D20854
:102B00000F498C452AD01203140B62465205520D10
:102B10000CE73C000443621E9441E4189C4292413D
:102B200052424A44924653461B02DFD5044B0136BB
:102B30009E4200D0A0E0320000240023F6E6C0460A
:102B4000FF070000FFFF7FFF01F8FFFFFE07000007
:102B5000DB084A46520713434A46D208190011437C
:102B600000D1B5E18024240314432403D54A240B67
:102B7000DCE6200000F00CFB030018331F2B00DC08
:102B800095E622000838824000249E4200DC9AE646
:102B9000F61ACD4B1A409246A8E63C000443621E4A
:102BA00094416CE64A46DB08520713434A46D20872
:102BB000A6E7C64C721C224200D0ACE04A461A433B
:102BC000002E00D005E1002A00D156E13A00024370
:102BD00000D1DBE01C189C429B414F44BA465B424B
:102BE0009A4453461B0200D480E75246B64B012656
:102BF0001A4092467AE7B34CA24200D1C0E080244A
:102C00004D4624042543A9466446382C53DC6146CE
:102C10001F2C00DDCDE020251E002D1B4C46AB40B7
:102C2000AC40CE405D1EAB41344323434C46CC40C8
:102C30003F1B45E04A461C1AD11BA3429241524217
:102C400092460A005146521A9246120200D583E07B
:102C50005346234300D021E60022002553E71C18E9
:102C60009C429B414F44BA465B429A4453460126DC
:102C70001B0200D43AE702265246934B01211A4028
:102C80001300214062080A43DC075B089A4614439C
:102C90002CE63900203AD1406246202A06D064460C
:102CA0004022121B3C00944004430194019C621E8C
:102CB00094410C43E3E5494619430B005C1EA341D4
:102CC000C41AA0429B415B42FB1A9A465D4616001D
:102CD000DCE54946194300D1AEE06146644601395E
:102CE000012C00D1E0E0774CA44556D08C469AE602
:102CF000614620223C00521A944001009040A046B8
:102D00006446421E90416246E1404446D7400C432F
:102D10000443B94401E76B498A4200D10CE7181813
:102D200098429B414F445B42FB18DC0740085B081C
:102D30009A4616000443D9E6002A00D081E03B0001
:102D400003431DD18022002512030BE7C0087B0737
:102D50005D460343FA08D3E6C41AA04280414B46BD
:102D60004042FF1A3B1A9A465D4697E51C1A4A46AE
:102D7000A3429B41D71B5B42FB1A9A46012685E57D
:102D8000C0087B075D460343FA08E7E64A46DB08CE
:102D9000520713434A46D208B5E6C0087B070343EF
:102DA000FA08DBE6494619430B00591E8B411C000B
:102DB00053E64D46203CE540202905D04024641AC6
:102DC0004946A1400B43984643465C1EA3412B4312
:102DD00076E7002AE1D03A00DB08024300D1B8E6EA
:102DE0004A465207802413434A462403D20822420B
:102DF00007D0FE08264204D15D463200C3087F0793
:102E00003B43590FDB004907DB080B43A6E6C41A16
:102E1000A04280414B464042FF1A3B1A9A465D460B
:102E2000012633E53B00034300D115E7C0087B07CB
:102E30005D460343FA0866E6C0087B070343FA08C9
:102E40005EE63A00DB08024300D182E64A465207BA
:102E5000802413434A462403D208224207D0FE08A6
:102E6000264204D15D463200C3087F073B43590F19
:102E7000DB00DB0849070B4370E6C0087B07034310
:102E8000FA0840E64C462039CC406146202906D05D
:102E900066464021891B4E468E4033439846434642
:102EA000591E8B411C43D8E51C18844280414F4475
:102EB000BA4640428244D9E65346234300D1CBE68A
:102EC00014E6C046FF070000FFFF7FFFFE0700007B
:102ED0000023014A1C0029E5FF0700000A0030B565
:102EE000134C530009030500090B00205B0DD20FA2
:102EF000A34204DD0F48834202DD0F4BD01830BDE2
:102F00008020400301430D48C01A1F2808DD0C48EB
:102F1000C31AD9400B005842002AF0D11800EEE73E
:102F2000084CC540A446634499400B002B43F2E78C
:102F3000FE0300001D040000FFFFFF7F33040000BC
:102F400013040000EDFBFFFF70B5002816D0C31777
:102F5000C5185D40C40F280000F01AF9114B1B1A68
:102F60000A2816DC02002E00153296400B22121A97
:102F7000D5405B052D032D0B5B0D03E000240023E2
:102F8000002500261B052B43E407234330001900CE
:102F900070BD0B3885405B052D0300262D0B5B0DA6
:102FA000F0E7C0461E04000010B5041E10D000F06B
:102FB000EFF80F4B1B1A0A2811DC0B222100121A02
:102FC000D14015300A035B058440120B5B0D01E014
:102FD000002300221B0513432000190010BD22000E
:102FE0000B3882405B0512030024120B5B0DF1E7E6
:102FF0001E04000070B542024300C40FFE201B0EE9
:10300000591C550A08420CD0E02189008C466D07F6
:10301000120B63441B051343E407234328001900E4
:1030200070BD002B14D1002D1BD0280000F0B0F88B
:103030000A281CDC0B232A001B1ADA400300153374
:103040009D400E4B12031B1A5B05120B5B0DE1E753
:10305000002D09D0130B802212031A436D07084B71
:10306000D8E700230022D5E70022054BD2E7030072
:103070002A000B3B9A400025E3E7C0468903000085
:10308000FF0700000200F0B54B000D03400F5B0D81
:10309000CC0F6D0A3A490543581CD70008420AD0A4
:1030A00038495918FE2916DDFF200022C0051043BB
:1030B000E4072043F0BD002B06D13D4326D0052276
:1030C0009201520AD8B2F1E72F43EDD08022D20309
:1030D000FF202A43EAE700291BDD9201501E8241AE
:1030E000ED007F0F2A433A43530747D00F23134085
:1030F000042B00D004328023DB0413403ED0481C54
:10310000FE29D1D09201520AC0B2CFE7002000229E
:10311000CCE70A0017322FDB802636042E431E250B
:103120006D1A1F2D11DD02225242521A3100D14078
:10313000202D04D0144A944663449E4037433A00FD
:10314000531E9A410A430021CEE7104A38009446A4
:10315000634498403A00411E88419E40EA40304313
:10316000024300215307C1D180211300C90401206B
:103170000B400A42C6D1A3E70023A0E70B009FE75C
:10318000FE07000080FCFFFFA2FCFFFF82FCFFFFA8
:103190001C2101231B04984201D3000C10391B0A87
:1031A000984201D3000A08391B09984201D300094B
:1031B000043902A2105C40187047C04604030202A2
:1031C00001010101000000000000000080B582B094
:1031D00000AF78607B68181C17F096FB031C181C66
:1031E000BD4602B080BD000080B582B000AF7860FF
:1031F00009F01AF908F094FF0F4B18000EF024FDA7
:1032000003005A1E9341DBB2002B01D009F0ACFB46
:1032100009F0E0FC094B180012F016FD7B68BB2298
:1032200092009918044B072218000DF07BFFC0464E
:10323000BD4602B080BDC04688210020B4290020D0
:1032400090B583B000AF78607B688A4A9B5C1800B9
:103250007B68BB2292009A5C87495B5C1B0213432C
:103260009AB279680300D0335B00CB18FF2111407C
:103270000C00197900200140081C211C0143197120
:10328000120A90B25A7900210A40111C021C0A430A
:103290005A717B68774A9B5C18007B68774A9A5C16
:1032A00077495B5C1B0213439AB279680300383399
:1032B0005B00CB18FF2111400C00197A002001405F
:1032C000081C211C01431972120A90B25A7A00217B
:1032D0000A40111C021C0A435A727B68654A9B5CB7
:1032E00018007B68BC2292009A5C66495B5C1B02FA
:1032F00013439AB27968030008335B00CB18FF21AF
:1033000011400C00197900200140081C211C0143C8
:103310001971120A90B25A7900210A40111C021C3C
:103320000A435A717B68534A9B5C18007B68564A73
:103330009A5C56495B5C1B0213439AB2796803009E
:103340006C335B00CB18FF2111400C001979002071
:103350000140081C211C01431971120A90B25A79CC
:1033600000210A40111C021C0A435A717B68414A21
:103370009B5C18007B68BD2292009A5C44495B5CB0
:103380001B0213439AB2796803009C335B00CB188D
:10339000FF2111400C00197A00200140081C211C5B
:1033A00001431972120A90B25A7A00210A40111C84
:1033B000021C0A435A727B682E4A9B5C18007B6889
:1033C000BE2292009A5C33495B5C1B0213439AB2A3
:1033D0007968431CFF335B00CB18FF2111400C00C0
:1033E000197A00200140081C211C01431972120A9D
:1033F00090B25A7A00210A40111C021C0A435A72E8
:103400007B681C4A9B5C18007B68234A9A5C2349B2
:103410005B5C1B0213439AB2796803003533FF33B8
:103420005B00CB18FF2111400C00197900200140EE
:10343000081C211C01431971120A90B25A7900210B
:103440000A40111C021C0A435A717B68094A9B5CA2
:103450000133D9B27B68074A99547B68054A9B5C63
:10346000312B03D97B68034A00219954C046BD46DD
:1034700003B090BDFA020000ED020000EE02000071
:10348000EF020000F1020000F2020000F30200006F
:10349000F5020000F9020000F6020000F702000049
:1034A00080B586B000AFF860B960FB1D1A700023CC
:1034B0007B611323FB1800221A700FE013217B1885
:1034C0001B785B00BA68D3181B881A007B699B18AD
:1034D0007B617B181A787B1801321A701323FA1853
:1034E000FB1D12781B789A42E8D3FB1D1B7819004C
:1034F0007869FCF709FE03001800BD4606B080BDE0
:10350000F0B583B000AF78607B68A533FF33190056
:103510007B6832221800FFF7C3FF01007A68B823E6
:103520009B00FF2008400500D05C00242040041CC4
:10353000281C2043D054080AFF2420400600D0183D
:10354000447800252C40251C341C2C434470080C66
:10355000FF2420400600D018847800252C40251C2C
:10356000341C2C438470080ED318DA7800210A40EA
:10357000111C021C0A43DA707B68DC3319007B687B
:1035800032221800FFF78CFF01007A68B6239B00F7
:10359000FF2008400500D05C00242040041C281CAB
:1035A0002043D054080AFF2420400600D018447855
:1035B00000252C40251C341C2C434470080CFF248F
:1035C00020400600D018847800252C40251C341C8F
:1035D0002C438470080ED318DA7800210A40111C9D
:1035E000021C0A43DA707B684133FF3319007B68A1
:1035F00032221800FFF754FF01007A68B7239B00BE
:10360000FF2008400500D05C00242040041C281C3A
:103610002043D054080AFF2420400600D0184478E4
:1036200000252C40251C341C2C434470080CFF241E
:1036300020400600D018847800252C40251C341C1E
:103640002C438470080ED318DA7800210A40111C2C
:10365000021C0A43DA707B68143319007B6832223B
:103660001800FFF71DFF01007A68B4239B00FF20BC
:1036700008400500D05C00242040041C281C204386
:10368000D054080AFF2420400600D01844780025B2
:103690002C40251C341C2C434470080CFF24204073
:1036A0000600D018847800252C40251C341C2C439F
:1036B0008470080ED318DA7800210A40111C021C0D
:1036C0000A43DA707B68783319007B68322218006D
:1036D000FFF7E6FE01007A68B5239B00FF20084053
:1036E0000500D05C00242040041C281C2043D0543A
:1036F000080AFF2420400600D018447800252C40FA
:10370000251C341C2C434470080CFF242040060068
:10371000D018847800252C40251C341C2C43847040
:10372000080ED318DA7800210A40111C021C0A4343
:10373000DA707B688222920099187B683222180026
:10374000FFF7AEFE01007A68B9239B00FF20084016
:103750000500D05C00242040041C281C2043D054C9
:10376000080AFF2420400600D018447800252C4089
:10377000251C341C2C434470080CFF2420400600F8
:10378000D018847800252C40251C341C2C438470D0
:10379000080ED318DA7800210A40111C021C0A43D3
:1037A000DA707B689B22920099187B68322218009D
:1037B000FFF776FE01007A68BA239B00FF200840DD
:1037C0000500D05C00242040041C281C2043D05459
:1037D000080AFF2420400600D018447800252C4019
:1037E000251C341C2C434470080CFF242040060088
:1037F000D018847800252C40251C341C2C43847060
:10380000080ED318DA7800210A40111C021C0A4362
:10381000DA707B68B52292009A5CC049595C090253
:103820000A43BF49595C09040A43BE495B5C1B0655
:1038300013431A007B681100180000F021FA0300FE
:103840001C007B68A2B2FF210A4010001A7B0021F5
:103850000A40111C021C0A431A73A2B2120A90B247
:103860005A7B00210A40111C021C0A435A737B68D0
:10387000B82292009A5CAC49595C09020A43AB49F0
:10388000595C09040A43AA495B5C1B0613431A00EE
:103890007B681100180000F0A7F903001A007B688C
:1038A000FF2111400C00197A00200140081C211C46
:1038B00001431972110AFF2001400C00597A0020BF
:1038C0000140081C211C01435972110CFF200140CA
:1038D0000C00997A00200140081C211C01439972B8
:1038E000100EDA7A00210A40111C021C0A43DA7217
:1038F0007B68B42292009A5C8E49595C09020A43A3
:103900008D49595C09040A438C495B5C1B061343CF
:103910001A007B681100180000F0B2F903001C00C7
:103920007B68A2B2FF210A4010009A7B00210A4066
:10393000111C021C0A439A73A2B2120A90B2DA7BDB
:1039400000210A40111C021C0A43DA737B68B6226C
:1039500092009A5C7A49595C09020A437949595C98
:1039600009040A4378495B5C1B0613431A007B6811
:103970001100180000F0FEF803001A007B68FF2118
:1039800011400C00197800200140081C211C014343
:103990001970110AFF2001400C00597800200140E5
:1039A000081C211C01435970110CFF2001400C0020
:1039B000997800200140081C211C01439970100EC9
:1039C000DA7800210A40111C021C0A43DA707B6875
:1039D000B72292009A5C5D49595C09020A435C492E
:1039E000595C09040A435B495B5C1B0613431800DE
:1039F000FDF78EFC031C5849181CFDF713F9031C36
:103A0000181CFCF76FFD02007B68FF2111400C00C1
:103A1000197900200140081C211C01431971110A69
:103A2000FF2001400C00597900200140081C211C96
:103A300001435971110CFF2001400C0099790020BD
:103A40000140081C211C01439971100EDA790021F4
:103A50000A40111C021C0A43DA717B68B9229200E9
:103A60009A5C3E49595C09020A433D49595C090484
:103A70000A433C495B5C1B0613431A007B68110038
:103A8000180000F0FDF803001C007B68A2B2FF21C3
:103A90000A4010001A7C00210A40111C021C0A4333
:103AA0001A74A2B2120A90B25A7C00210A40111C68
:103AB000021C0A435A747B68BA2292009A5C2A4913
:103AC000595C09020A432949595C09040A432849F7
:103AD0005B5C1B0613431A007B681100180000F0A2
:103AE000CFF803001C007B68A2B2FF210A4010003F
:103AF0009A7C00210A40111C021C0A439A74A2B24B
:103B0000120A90B2DA7C00210A40111C021C0A43FE
:103B1000DA74C046BD4603B0F0BDC046D502000011
:103B2000D6020000D7020000E1020000E20200001D
:103B3000E3020000D1020000D2020000D302000024
:103B4000D9020000DA020000DB020000DD02000002
:103B5000DE020000DF0200009381AB41E5020000BD
:103B6000E6020000E7020000E9020000EA020000AD
:103B7000EB02000080B584B000AF7860396038682F
:103B8000FDF7C6FB031C1349181CFDF74BF8031C7B
:103B90001149181CFDF746F8031C1049181CFCF7C6
:103BA00077FE031C181CFDF741FB0300FB60F8685F
:103BB000FFF7CAF90A4A0B4BFEF74CFB02000B0059
:103BC00010001900FFF78AF903001800BD4604B081
:103BD00080BDC046E54C4E3F00007A44C1AA9C42DD
:103BE00048E17A14AE47F13F80B584B000AF786009
:103BF00039603868FDF78CFB031C1A49181CFDF767
:103C000011F8031C1849181CFCF742FE031C181C71
:103C1000FFF7F0F9154A164BFDF722FF02000B00E3
:103C200010001900FFF72EFA031CFB60F868FFF77D
:103C3000E1F9104A104BFEF70DFB02000B001000DB
:103C40001900FFF71FFA031CBB600C49B868FCF7AA
:103C5000E9FF031C181CFDF7E9FA03001800BD4634
:103C600004B080BD3333534000F07F45E92631086E
:103C7000AC1CDA3F81E434912EFA564000007A44BD
:103C8000B0B586B000AF7860396000237B613868DA
:103C9000FDF73EFB031C3149181CFCF7C3FF031C56
:103CA0003B6139692E48FCF7F3FD031CFE218905B1
:103CB000181CFDF705F9031C2A49181CFCF7B2FF74
:103CC000031C0E257C19181CFCF70CFC0300238038
:103CD0007B191B881800FDF71BFB031C2249181CCD
:103CE000FCF7D6FD031C7B617B69181CFFF76EFA9D
:103CF000031C7B611D497869FCF7CAFD031C7B61CD
:103D00007869FFF777F91A4A1A4BFDF749FB020069
:103D10000B0010001900FFF7B5F9031C7B617969EE
:103D2000FE208005FCF7B4FD031C7B617869FFF77A
:103D300061F9114A114BFEF74FFD02000B00100014
:103D40001900FFF79FF9031C7B617869FDF76EFA94
:103D500003001BB21800BD4606B0B0BDE54C4E3F97
:103D60000000484500007A4400401C4600B056451B
:103D700083DBB5DCE1796B3F66666666661271408F
:103D800090B583B000AF78607B6851331A7800211A
:103D90000A401A705A7800210A405A709A78002115
:103DA0000A409A70DA7800210A40DA707B687A2239
:103DB000002199547B6801331A7800210A40111CB4
:103DC00064220A431A705A7800210A405A709A787D
:103DD00000210A409A70DA7800210A40DA707B6884
:103DE00005331A7800210A40111C34220A431A7044
:103DF0005A7800210A40111C492252420A435A7043
:103E00009A7800210A409A70DA7800210A40DA7024
:103E10007B6809331A7800210A40111C40220A43AA
:103E20001A705A7800210A40111C77220A435A70EE
:103E30009A7800210A40111C1B220A439A70DA78F2
:103E400000210A40DA707B680D331A7800210A409D
:103E5000111C64220A431A705A7800210A405A70D1
:103E60009A7800210A409A70DA7800210A40DA70C4
:103E70007B6811331A7800210A40111C40225242FB
:103E80000A431A705A7800210A40111C1F2252421C
:103E90000A435A709A7800210A409A70DA78002111
:103EA0000A40DA707B6815331A7800210A401A70CC
:103EB0005A7800210A40111C232252420A435A70A8
:103EC0009A7800210A40111C6D220A439A70DA7810
:103ED00000210A40DA707B6819331A7800210A4001
:103EE000111C64220A431A705A7800210A405A7041
:103EF0009A7800210A409A70DA7800210A40DA7034
:103F00007B681D331A7800210A40111C402252425E
:103F10000A431A705A7800210A40111C1F2252428B
:103F20000A435A709A7800210A409A70DA78002180
:103F30000A40DA707B6821331A7800210A40111C8C
:103F4000802252420A431A705A7800210A40111CFA
:103F5000122252420A435A709A7800210A40111CD8
:103F600036220A439A70DA7800210A40DA707B68B8
:103F700025331A7800210A40111C0E220A431A70B8
:103F80005A7800210A405A709A7800210A409A70A3
:103F9000DA7800210A40DA707B6829331A78002128
:103FA0000A40111C402252420A431A705A780021DA
:103FB0000A40111C1F2252420A435A709A7800216B
:103FC0000A409A70DA7800210A40DA707B682D3353
:103FD0001A7800210A40111C202252420A431A700A
:103FE0005A7800210A40111C32220A435A709A78EA
:103FF00000210A40111C29220A439A70DA78002114
:104000000A40DA700CF0A8FA02007B686D33FF21D9
:1040100011400C00197800200140081C211C0143AC
:104020001970110AFF2001400C005978002001404E
:10403000081C211C01435970110CFF2001400C0089
:10404000997800200140081C211C01439970100E32
:10405000DA7800210A40111C021C0A43DA70C046BB
:10406000BD4603B090BD000080B582B000AF78605F
:104070007B681B78062B27D89A001A4BD3181B682D
:104080009F467B68180000F02FF81EE07B68180040
:1040900000F0A6FA19E07B68180000F001FC14E0BB
:1040A0007B68180000F05CFD0FE07B68180000F0F2
:1040B000BBFE0AE07B68180000F0DEFF05E07B68CD
:1040C000180001F02BF800E0C0467B68180001F0F2
:1040D00093F97B68180001F049F8C046BD4602B06C
:1040E00080BDC0460CB1010890B583B000AF7860C8
:1040F0007B68180001F080FA7B68792200219954CE
:104100000CF02AFA7B686D229A5C6E21595C0902D8
:104110000A436F21595C09040A4370215B5C1B064A
:104120001343C31AFA2292009A429B415B42DBB2CC
:10413000002B00D1BDE07B687A229B5C002B00D174
:10414000AAE07B687B229B5C002B00D0A4E07B680C
:1041500065331A7800210A401A705A7800210A4003
:104160005A709A7800210A409A70DA7800210A4041
:10417000DA700CF0F1F902007B685533FF21114031
:104180000C00197800200140081C211C0143197003
:10419000110AFF2001400C00597800200140081C42
:1041A000211C01435970110CFF2001400C0099782B
:1041B00000200140081C211C01439970100EDA7880
:1041C00000210A40111C021C0A43DA707B6801229C
:1041D0001A700CF0C1F902007B686933FF211140AD
:1041E0000C00197800200140081C211C01431970A3
:1041F000110AFF2001400C00597800200140081CE2
:10420000211C01435970110CFF2001400C009978CA
:1042100000200140081C211C01439970100EDA781F
:1042200000210A40111C021C0A43DA707B685933D2
:104230001A7800210A401A705A7800210A405A70F0
:104240009A7800210A409A70DA7800210A40DA70E0
:104250007B685D331A7800210A401A705A78002171
:104260000A405A709A7800210A409A70DA78002140
:104270000A40DA707B6861331A7800210A401A70AC
:104280005A7800210A405A709A7800210A409A70A0
:10429000DA7800210A40DA707B6876229B5C002B7A
:1042A00007D07B687B229B5C002B02D17B680522B8
:1042B0001A700CF051F97B686D229A5C6E21595C82
:1042C00009020A436F21595C09040A4370215B5CAF
:1042D0001B061343C31AFA2292009A429B415B4287
:1042E000DBB2002B00D16EE17B6875229B5C002B5A
:1042F00040D07B687A22012199547B6851229A5CD4
:104300005221595C09020A435321595C09040A43AA
:1043100054215B5C1B0613431A0010239A437B68ED
:104320005133FF2111400C00197800200140081C76
:10433000211C01431970110AFF2001400C0059781B
:1043400000200140081C211C01435970110CFF2062
:1043500001400C00997800200140081C211C0143F9
:104360009970100EDA7800210A40111C021C0A43D1
:10437000DA7060E0964B180016F0B5FA03005A1E8A
:104380009341DBB2002B08D00CF0E6F80200914B11
:104390001A608F4B180016F0B3FA7B687A2200215E
:1043A00099540CF0D9F802008A4B1B68D31AFA22F0
:1043B00052009A429B415B42DBB2002B3BD07B68B0
:1043C00051229A5C5221595C09020A435321595CDB
:1043D00009040A4354215B5C1B0613431A00102393
:1043E0001A437B685133FF2111400C0019780020DB
:1043F0000140081C211C01431970110AFF200140D3
:104400000C00597800200140081C211C0143597000
:10441000110CFF2001400C00997800200140081C7D
:10442000211C01439970100EDA7800210A40111CFA
:10443000021C0A43DA700CF08FF87B686D229A5CDC
:104440006E21595C09020A436F21595C09040A4331
:1044500070215B5C1B061343C21AFA2399000023E8
:1044600091425B41DBB2002B04D07B687B220121AF
:10447000995403E07B687B22002199547B68712268
:104480009A5C72215B5C1B0213439BB2002B00D031
:1044900099E0514B180016F026FA03005A1E93417A
:1044A000DBB2002B08D00CF057F802004B4B1A601F
:1044B000494B180016F024FA0CF04EF80200474B56
:1044C0001B68D31AFA2252009A429B415B42DBB22C
:1044D000002B3CD07B6851229A5C5221595C090226
:1044E0000A435321595C09040A4354215B5C1B06AF
:1044F00013431A0020231A437B685133FF211140D4
:104500000C00197800200140081C211C014319707F
:10451000110AFF2001400C00597800200140081CBE
:10452000211C01435970110CFF2001400C009978A7
:1045300000200140081C211C01439970100EDA78FC
:1045400000210A40111C021C0A43DA703BE07B6820
:1045500051229A5C5221595C09020A435321595C49
:1045600009040A4354215B5C1B0613431A002023F1
:104570009A437B685133FF2111400C0019780020C9
:104580000140081C211C01431970110AFF20014041
:104590000C00597800200140081C211C014359706F
:1045A000110CFF2001400C00997800200140081CEC
:1045B000211C01439970100EDA7800210A40111C69
:1045C000021C0A43DA70C046BD4603B090BDC04627
:1045D0003801002034010020400100203C0100206F
:1045E00090B583B000AF78607B685A7999790902F9
:1045F0000A43D97909040A431B7A1B0613431A009C
:104600007B684933FF2111400C00197800200140DC
:10461000081C211C01431970110AFF2001400C00E5
:10462000597800200140081C211C01435970110CCD
:10463000FF2001400C00997800200140081C211C3B
:1046400001439970100EDA7800210A40111C021CF7
:104650000A43DA707B6878229B5C002B16D07B685B
:104660005A78997809020A43D97809040A431B79D0
:104670001B06134319007B6873229B5C4B431A0093
:1046800013009B009B185B001A0000E000227B686F
:104690004D33FF2111400C00197800200140081C07
:1046A000211C01431970110AFF2001400C005978A8
:1046B00000200140081C211C01435970110CFF20EF
:1046C00001400C00997800200140081C211C014386
:1046D0009970100EDA7800210A40111C021C0A435E
:1046E000DA707B687922012199547B6841229A5CB7
:1046F0004221595C09020A434321595C09040A43D7
:1047000044215B5C1B06134318007B6849229A5CBA
:104710004A21595C09020A434B21595C09040A43A6
:104720004C215B5C1B061343984248D90BF014FFE5
:104730007B6855229A5C5621595C09020A4357212D
:10474000595C09040A4358215B5C1B061343C31AD6
:10475000524A9A429B415B42DBB2002B2FD00BF0B6
:10476000FBFE02007B685933FF2111400C001978D1
:1047700000200140081C211C01431970110AFF2070
:1047800001400C00597800200140081C211C014305
:104790005970110CFF2001400C0099780020014055
:1047A000081C211C01439970100EDA7800210A4080
:1047B000111C021C0A43DA707B6802221A700BF08B
:1047C000CBFE7B6855229A5C5621595C09020A434C
:1047D0005721595C09040A4358215B5C1B061343AB
:1047E000C21A7B68597A987A00020143D87A000489
:1047F00001431B7B1B060B4393429B415B42DBB295
:10480000002B3ED07B6851229A5C5221595C0902F0
:104810000A435321595C09040A4354215B5C1B067B
:1048200013431A0001231A437B685133FF211140BF
:104830000C00197800200140081C211C014319704C
:10484000110AFF2001400C00597800200140081C8B
:10485000211C01435970110CFF2001400C00997874
:1048600000200140081C211C01439970100EDA78C9
:1048700000210A40111C021C0A43DA707B680522E1
:104880001A707B6876229B5C002B02D07B68052225
:104890001A70C046BD4603B090BDC046B80B0000BC
:1048A00090B583B000AF78607B685A7C997C090230
:1048B0000A43D97C09040A431B7D1B0613431A00D3
:1048C0007B684933FF2111400C001978002001401A
:1048D000081C211C01431970110AFF2001400C0023
:1048E000597800200140081C211C01435970110C0B
:1048F000FF2001400C00997800200140081C211C79
:1049000001439970100EDA7800210A40111C021C34
:104910000A43DA707B6878229B5C002B16D07B6898
:104920005A7B997B09020A43D97B09040A431B7C01
:104930001B06134319007B6873229B5C4B431A00D0
:1049400013009B009B185B001A0000E000227B68AC
:104950004D33FF2111400C00197800200140081C44
:10496000211C01431970110AFF2001400C005978E5
:1049700000200140081C211C01435970110CFF202C
:1049800001400C00997800200140081C211C0143C3
:104990009970100EDA7800210A40111C021C0A439B
:1049A000DA707B687922012199547B6841229A5CF4
:1049B0004221595C09020A434321595C09040A4314
:1049C00044215B5C1B06134318007B6849229A5CF8
:1049D0004A21595C09020A434B21595C09040A43E4
:1049E0004C215B5C1B061343984248D90BF0B4FD85
:1049F0007B6859229A5C5A21595C09020A435B215F
:104A0000595C09040A435C215B5C1B061343C31A0F
:104A1000524A9A429B415B42DBB2002B2FD00BF0F3
:104A20009BFD02007B685D33FF2111400C0019786B
:104A300000200140081C211C01431970110AFF20AD
:104A400001400C00597800200140081C211C014342
:104A50005970110CFF2001400C0099780020014092
:104A6000081C211C01439970100EDA7800210A40BD
:104A7000111C021C0A43DA707B6803221A700BF0C7
:104A80006BFD7B6859229A5C5A21595C09020A43E2
:104A90005B21595C09040A435C215B5C1B061343E0
:104AA000C21A7B68597D987D00020143D87D0004BD
:104AB00001431B7E1B060B4393429B415B42DBB2CF
:104AC000002B3ED07B6851229A5C5221595C09022E
:104AD0000A435321595C09040A4354215B5C1B06B9
:104AE00013431A0002231A437B685133FF211140FC
:104AF0000C00197800200140081C211C014319708A
:104B0000110AFF2001400C00597800200140081CC8
:104B1000211C01435970110CFF2001400C009978B1
:104B200000200140081C211C01439970100EDA7806
:104B300000210A40111C021C0A43DA707B6805221E
:104B40001A707B6876229B5C002B02D07B68052262
:104B50001A70C046BD4603B090BDC046B80B0000F9
:104B600090B583B000AF78607B685A7F997F090267
:104B70000A43D97F09040A4320215B5C1B061343C7
:104B80001A007B684933FF2111400C00197800207E
:104B90000140081C211C01431970110AFF2001402B
:104BA0000C00597800200140081C211C0143597059
:104BB000110CFF2001400C00997800200140081CD6
:104BC000211C01439970100EDA7800210A40111C53
:104BD000021C0A43DA707B6878229B5C002B16D09B
:104BE0007B685A7E997E09020A43D97E09040A43EA
:104BF0001B7F1B06134319007B6873229B5C4B438E
:104C00001A0013009B009B185B001A0000E00022B2
:104C10007B684D33FF2111400C00197800200140C2
:104C2000081C211C01431970110AFF2001400C00CF
:104C3000597800200140081C211C01435970110CB7
:104C4000FF2001400C00997800200140081C211C25
:104C500001439970100EDA7800210A40111C021CE1
:104C60000A43DA707B687922012199547B684122DA
:104C70009A5C4221595C09020A434321595C0904A8
:104C80000A4344215B5C1B06134318007B684922DE
:104C90009A5C4A21595C09020A434B21595C090478
:104CA0000A434C215B5C1B061343984248D90BF026
:104CB00053FC7B685D229A5C5E21595C09020A43C1
:104CC0005F21595C09040A4360215B5C1B061343A6
:104CD000C31A544A9A429B415B42DBB2002B2FD04D
:104CE0000BF03AFC02007B686133FF2111400C009D
:104CF000197800200140081C211C01431970110A79
:104D0000FF2001400C00597800200140081C211CA4
:104D100001435970110CFF2001400C0099780020CC
:104D20000140081C211C01439970100EDA78002103
:104D30000A40111C021C0A43DA707B6804221A70B4
:104D40000BF00AFC7B685D229A5C5E21595C0902CB
:104D50000A435F21595C09040A4360215B5C1B061E
:104D60001343C21A7B682121595C2220185C00027F
:104D700001432320185C0004014324201B5C1B0614
:104D80000B4393429B415B42DBB2002B3ED07B68DE
:104D900051229A5C5221595C09020A435321595C01
:104DA00009040A4354215B5C1B0613431A000423C5
:104DB0001A437B685133FF2111400C001978002001
:104DC0000140081C211C01431970110AFF200140F9
:104DD0000C00597800200140081C211C0143597027
:104DE000110CFF2001400C00997800200140081CA4
:104DF000211C01439970100EDA7800210A40111C21
:104E0000021C0A43DA707B6805221A707B687622DE
:104E10009B5C002B02D07B6805221A70C046BD4601
:104E200003B090BDB80B000090B585B000AF7860BE
:104E30007B6829229A5C2A21595C09020A432B21AA
:104E4000595C09040A432C215B5C1B0613431A00BE
:104E50007B684933FF2111400C0019780020014084
:104E6000081C211C01431970110AFF2001400C008D
:104E7000597800200140081C211C01435970110C75
:104E8000FF2001400C00997800200140081C211CE3
:104E900001439970100EDA7800210A40111C021C9F
:104EA0000A43DA707B6878229B5C002B0BD07B680E
:104EB00073229B5C1A0013005B019B1A9B009B18DA
:104EC000DB001A0000E000227B684D33FF21114017
:104ED0000C00197800200140081C211C01431970A6
:104EE000110AFF2001400C00597800200140081CE5
:104EF000211C01435970110CFF2001400C009978CE
:104F000000200140081C211C01439970100EDA7822
:104F100000210A40111C021C0A43DA707B687922C6
:104F2000012199547B6841229A5C4221595C090213
:104F30000A434321595C09040A4344215B5C1B0674
:104F4000134318007B6849229A5C4A21595C090284
:104F50000A434B21595C09040A434C215B5C1B0644
:104F60001343C31AFB607B6845229A5C4621595C57
:104F700009020A434721595C09040A4348215B5C42
:104F80001B06134318007B6831229A5C3221595C5E
:104F900009020A433321595C09040A4334215B5C4A
:104FA0001B061343984204D9FA68C8239B009A420F
:104FB00017DD7B6878229B5C012B12D12D4B1B786F
:104FC0000133DAB22B4B1A702A4B1B78052B03D90D
:104FD0007B6806221A7008E07B68772200219954CA
:104FE00003E07B687722002199540BF0B5FA7B68C7
:104FF00061229A5C6221595C09020A436321595C6F
:1050000009040A4364215B5C1B061343C21A7B68D4
:105010002D21595C2E20185C000201432F20185CC2
:105020000004014330201B5C1B060B4393429B4151
:105030005B42DBB2002B11D00E4B1B780133DAB28E
:105040000C4B1A700B4B1B78052B03D97B6806227F
:105050001A7003E07B687722002199547B687622DE
:105060009B5C002B02D07B6805221A70C046BD46AF
:1050700005B090BD4401002090B583B000AF7860CA
:105080007B68180000F0B8FA0BF066FA7B686D22B6
:105090009A5C6E21595C09020A436F21595C09042C
:1050A0000A4370215B5C1B061343C31A96229A4283
:1050B0009B415B42DBB2002B2CD00BF04DFA02007F
:1050C0007B686D33FF2111400C00197800200140EE
:1050D000081C211C01431970110AFF2001400C001B
:1050E000597800200140081C211C01435970110C03
:1050F000FF2001400C00997800200140081C211C71
:1051000001439970100EDA7800210A40111C021C2C
:105110000A43DA70C046BD4603B090BD80B582B088
:1051200000AF78600F4B1B78002B07D10D4B01228D
:105130001A700BF011FA02000B4B1A607B68772291
:10514000012199547B687822002199547B68792247
:10515000002199547B687A2200219954C046BD46AB
:1051600002B080BD450100204801002090B583B009
:1051700000AF78607B681B78002B00D12FE17B6843
:105180001B78042B00D92AE17B683D229A5C3E21E2
:10519000595C09020A433F21595C09040A43402132
:1051A0005B5C1B061343F53BFF3B1A007B683D33FA
:1051B000FF2111400C00197800200140081C211C1F
:1051C00001431970110AFF2001400C00597800209A
:1051D0000140081C211C01435970110CFF200140A3
:1051E0000C00997800200140081C211C0143997093
:1051F000100EDA7800210A40111C021C0A43DA70F2
:105200007B683D229A5C3E21595C09020A433F219A
:10521000595C09040A4340215B5C1B0613431A00D6
:105220007B682933FF2111400C00197800200140D0
:10523000081C211C01431970110AFF2001400C00B9
:10524000597800200140081C211C01435970110CA1
:10525000FF2001400C00997800200140081C211C0F
:1052600001439970100EDA7800210A40111C021CCB
:105270000A43DA707B683D229A5C3E21595C090240
:105280000A433F21595C09040A4340215B5C1B0629
:1052900013431A007B681133FF2111400C00197869
:1052A00000200140081C211C01431970110AFF2035
:1052B00001400C00597800200140081C211C0143CA
:1052C0005970110CFF2001400C009978002001401A
:1052D000081C211C01439970100EDA7800210A4045
:1052E000111C021C0A43DA707B683D229A5C3E2145
:1052F000595C09020A433F21595C09040A434021D1
:105300005B5C1B0613431A007B681D33FF211140B1
:105310000C00197800200140081C211C0143197061
:10532000110AFF2001400C00597800200140081CA0
:10533000211C01435970110CFF2001400C00997889
:1053400000200140081C211C01439970100EDA78DE
:1053500000210A40111C021C0A43DA707B683522C6
:105360009A5C3621595C09020A433721595C0904C9
:105370000A4338215B5C1B0613431A001A4B9A42FE
:1053800029D81A4B180015F0AEFA03005A1E9341A3
:10539000DBB2002B08D00BF0DFF80200144B1A60D0
:1053A000124B180015F0ACFA114B1B68114A9C18EF
:1053B0000BF0D2F803009C429B415B42DBB2002B16
:1053C00004D07B6878220021995408E07B68782219
:1053D0000121995403E07B68782201219954C04649
:1053E000BD4603B090BDC0469F860100500100201D
:1053F0004C0100208813000090B585B000AF7860A4
:105400007B681B78012B00D8ACE07B681B78042BF1
:1054100000D9A7E07B6849229A5C4A21595C0902BD
:105420000A434B21595C09040A434C215B5C1B066F
:10543000134313D17B684D229A5C4E21595C0902BB
:105440000A434F21595C09040A4350215B5C1B0647
:10545000134303D1644B00221A6083E07B68492226
:105460009A5C4A21595C09020A434B21595C0904A0
:105470000A434C215B5C1B06134318007B684D22DA
:105480009A5C4E21595C09020A434F21595C090478
:105490000A4350215B5C1B0613434343FA229100ED
:1054A0001800FAF731FE0300FB60FB684F4A934295
:1054B00058D94F4B180015F016FA03005A1E9341A5
:1054C000DBB2002B08D00BF047F80200494B1A6002
:1054D000474B180015F014FA464B1B68FA22D2000D
:1054E0009C180BF039F803009C429B415B42DBB2F5
:1054F000002B37D07B6849229A5C4A21595C09020B
:105500000A434B21595C09040A434C215B5C1B068E
:105510001343013319003548FAF7F6FD0300BB6069
:10552000BA6813005B019B1A9B009B18DB001800F4
:105530007B684D229A5C4E21595C09020A434F2137
:10554000595C09040A4350215B5C1B061343C21AD1
:10555000254B1B68D218244B1A600AF0FDFF02008D
:10556000244B1A607B684D229A5C4E21595C0902DB
:105570000A434F21595C09040A4350215B5C1B0616
:1055800013431A00184B1B68D21A7B684D33FF2156
:1055900011400C00197800200140081C211C014317
:1055A0001970110AFF2001400C00597800200140B9
:1055B000081C211C01435970110CFF2001400C00F4
:1055C000997800200140081C211C01439970100E9D
:1055D000DA7800210A40111C021C0A43DA70C04626
:1055E000BD4605B090BDC04654010020804F12005A
:1055F0005C0100205801002080B582B000AF7860C7
:105600007B6849331A7800210A401A705A780021C1
:105610000A405A709A7800210A409A70DA7800217C
:105620000A40DA707B684D331A7800210A401A70FC
:105630005A7800210A405A709A7800210A409A70DC
:10564000DA7800210A40DA70C046BD4602B080BD5B
:1056500080B582B000AF786007F018FB064B0021E0
:10566000180010F029FD044B0821180010F024FD4B
:10567000C046BD4602B080BD002A002080B586B07D
:1056800000AFF860B960FB1D1A701623FB180022EA
:105690001A80FB1D1B78032B02DC002B03DC20E0AF
:1056A000042B0FD01DE0BA6813001B019B18DB0010
:1056B00013491800FAF728FD03001A001623FB18F7
:1056C0001A8013E0BA6813001B019B18DB000C4919
:1056D0001800FAF719FD03001A001623FB181A80A8
:1056E00004E01623FB1800221A80C0468023DB0545
:1056F0001622BA181288DA63C046BD4606B080BDCD
:105700001027000090B585B000AF786039600E2496
:105710003B1900221A803A6813001B019B18DB001A
:1057200008491800FAF7F0FC03001A003B191A8028
:105730008023DB053A191288DA63C046BD4605B0FE
:1057400090BDC0461027000090B587B000AFF8604C
:10575000B960FB1D1A7016243B1900221A80FB1D2C
:105760001B78012B17D1B868FDF71EFC0F4A104BB0
:10577000FCF770FD02000B001000190000220D4B19
:10578000FCF76EF902000B003C1910001900FAF743
:10579000C1FE030023808023DB051622BA1812887D
:1057A0005A63C046BD4607B090BDC046CDCCCCCCF8
:1057B000CC0C52400088C34090B587B000AFF86071
:1057C000B960FB1D1A701623FB1800221A80FB1DFE
:1057D0001B78032B02DC002B03DC46E0042B2AD0D1
:1057E00043E0FB681A78597809020A43997809045A
:1057F0000A43DB781B061343FA22D2009446634423
:10580000BB60B868FDF7D0FB1F4A204BFCF722FDB8
:1058100002000B001000190000221D4BFCF720F9BC
:1058200002000B0016217C1810001900FAF772FE16
:10583000030023801EE0B868FDF7B6FB124A134B45
:10584000FCF708FD02000B00100019000022104BAD
:10585000FCF706F902000B0016217C181000190055
:10586000FAF758FE0300238004E01623FB180022F9
:105870001A80C0468023DB051622BA1812885A63A4
:10588000C046BD4607B090BDCDCCCCCCCC0C524070
:105890000088C34080B582B000AF0200FB1D1A70C3
:1058A000FB1D1B78002B07D10B4B18680B490023FD
:1058B000102200F0EDFA0AE0FB1D1B78012B06D147
:1058C000054B186805490123102200F0E1FAC04693
:1058D000BD4602B080BDC0466001002000040050FB
:1058E00080B582B000AF0200FB1D1A70FB1D1B7853
:1058F000002B07D10B4B18680B490023082200F03E
:10590000C7FA0AE0FB1D1B78012B06D1054B18686E
:1059100005490123082200F0BBFAC046BD4602B08B
:1059200080BDC046600100200004005080B582B0F8
:1059300000AFFB1D00221A70084B1B68084910229B
:10594000180000F0BCFA03001A00FB1D1A70FB1DC2
:105950001B781800BD4602B080BDC0466001002023
:105960000004005080B586B004AF78603960104BF9
:105970003A681A607B6800221A717B6801221A74E7
:105980000C4B03930C4B02930C4B01936A23009333
:10599000012300220021202002F0CCFC682002F02C
:1059A00047FE6A2002F044FEC046BD4602B080BDFC
:1059B000600100202D590008E158000895580008A2
:1059C00090B583B000AF78607B681B79012B55D10F
:1059D0007B680122DA717B681A7A597A09020A43D4
:1059E000997A09040A43DB7A1B06134318007B6883
:1059F0001A7B597B09020A43997B09040A43DB7B22
:105A00001B061343C4180AF0A7FD0300A3429B41E1
:105A10005B42DBB2002B2BD01A4B1B78180002F034
:105A200039FD0AF099FD0200174B1B6893429B4118
:105A30005B42DBB2002B21D07B685B7919006820C8
:105A400002F090FD7B689B7919006A2002F036FD18
:105A50000AF082FD0300FA2292009A180A4B1A609B
:105A6000084B1B7801225340DAB2064B1A7005E04E
:105A70007B680022DA717B6800221A71C046BD463D
:105A800003B090BD0000002064010020F0B585B097
:105A900000AF78600A00FB1C1A70254B1B781800B9
:105AA00002F0F8FC0AF058FD0200224B1B689342FA
:105AB0009B415B42DBB2002B36D0FA1CFB1C1B78EF
:105AC000D9B2632900D9632313700F257C19FB1CFD
:105AD0001B780A211800FAF79DFB0B0023700E2695
:105AE000BC19FB1C1B780A211800FAF70DFB0300F8
:105AF00023707B191B7819006A2002F0DFFCBB19A8
:105B00001B781900682002F0D9FC094B1B78012290
:105B10005340DAB2064B1A700AF01EFD0300FA2257
:105B200092009A18034B1A60C046BD4605B0F0BDFE
:105B3000010000206801002080B582B000AF7860CD
:105B40000A00FB1C1A700AF007FD02001A4B1B68C2
:105B500093429B415B42DBB2002B28D0174B1B7852
:105B6000180002F097FCFB1C1B78002B08D14F217A
:105B7000682002F0F7FC50216A2002F0F3FC07E0F5
:105B80004421682002F0EEFC46216A2002F0EAFC83
:105B90000A4B1B7801225340DAB2084B1A700AF004
:105BA000DBFC0300FA2292009A18034B1A60C046ED
:105BB000BD4602B080BDC0466C010020020000203E
:105BC00090B585B000AFF860080011007B600B2431
:105BD0003B19021C1A700A203B180A1C1A70FB6839
:105BE0003A1912785A71FB683A1812789A71FB6860
:105BF0003A1D10781A7B00210A40111C021C0A432E
:105C00001A737A1D10785A7B00210A40111C021C5D
:105C10000A435A73BA1D10789A7B00210A40111C5E
:105C2000021C0A439A73FA1D1078DA7B00210A409D
:105C3000111C021C0A43DA73FB6801221A71FB680B
:105C40000122DA710AF088FC0200FB68FF21114092
:105C50000C00197A00200140081C211C0143197214
:105C6000110AFF2001400C00597A00200140081C55
:105C7000211C01435972110CFF2001400C00997A3C
:105C800000200140081C211C01439972100EDA7A91
:105C900000210A40111C021C0A43DA72C046BD46AC
:105CA00005B090BD80B582B000AF7860154B1B7811
:105CB000180002F0EFFB0AF04FFC0200124B1B68C9
:105CC00093429B415B42DBB2002B16D046216820F9
:105CD00002F048FC43216A2002F044FC094B1B7887
:105CE00001225340DAB2074B1A700AF035FC030068
:105CF000FA2292009A18044B1A60C046BD4602B0C0
:105D000080BDC046030000207001002080B582B035
:105D100000AF786007F0A2F8C046BD4602B080BD73
:105D200080B582B000AF7860034B18000FF08CFF95
:105D3000C046BD4602B080BDE42A002080B582B0D6
:105D400000AF7860034B180010F028F8C046BD463D
:105D500002B080BDE42A002080B582B000AF786038
:105D600008001100FB1C021C1A70BB1C0A1C1A70D4
:105D70007B681B78FA1C12789A4203D37B681B78E5
:105D8000FF2B1AD1BB1C1B78012B0ED17B68FA1C90
:105D900012781A707B681A787B68DA707B68012247
:105DA0009A707B6801225A7022E07B685B78002B36
:105DB0001ED17B68FF221A701AE07B681B78FA1CE0
:105DC00012789A4215D1BB1C1B78002B11D17B682D
:105DD00000225A707B68FF221A707B680022DA70FA
:105DE0007B6800229A707B681800FFF7A7FF00E02D
:105DF000C046C046BD4602B080BD80B582B000AF8F
:105E000078607B681B78FF2B3ED07B685B78012B2A
:105E10003AD17B681B78042B0CD032DC002B04D0E9
:105E20002FDB013B012B2CD804E07B681800FFF727
:105E300077FF29E07B68DB78002B0AD17B681A7832
:105E40007B68DA707B689B7801225340DAB27B680A
:105E50009A707B68DB78002B15D07B689B78012BD0
:105E600004D17B681800FFF75BFF03E07B68180034
:105E7000FFF764FF7B68DB78013BDAB27B68DA709E
:105E800001E0C04600E0C046C046BD4602B080BD4D
:105E900080B584B000AFF860B9601900BB1D1A80EE
:105EA0007B1D0A1C1A707B1D1A78BB1D1988BB68E4
:105EB00018000EF0F5F8C046BD4604B080BD80B5B0
:105EC00084B000AFF860B960BB1D1A80BB1D1A8892
:105ED000BB68110018000EF0B3F803005A1E93417E
:105EE000DBB21800BD4604B080BD80B584B000AF01
:105EF000F860B960BB1D1A80BB1D1A88BB68110011
:105F000018000EF00DF9C046BD4604B080BD00007B
:105F100080B582B000AF786039607B683A00107855
:105F20001A7800210A40111C021C0A431A707A1CBC
:105F300010785A7800210A40111C021C0A435A703A
:105F4000BA1C10789A7800210A40111C021C0A43DE
:105F50009A70FA1C1078DA7800210A40111C021C91
:105F60000A43DA707B681A78597809020A439978EB
:105F700009040A43DB781B0613431A00024B1A601C
:105F8000C046BD4602B080BD7401002080B582B01D
:105F900000AF78607B683B22002199547B683C22EB
:105FA000002199547B683D22002199547B683E2250
:105FB000002199547B683522002199547B68362250
:105FC000002199547B683722002199547B6838223C
:105FD000002199547B683922002199547B683A2228
:105FE00000219954804B00221A607B681A780021A6
:105FF0000A401A705A7800210A405A709A78002193
:106000000A409A70DA7800210A40DA707B6824220C
:10601000995C0020014099542522995C00200140A0
:1060200099542622995C0020014099542722995CBA
:106030000020014099547B682822995C002001408F
:1060400099542922995C0020014099542A22995C94
:106050000020014099542B22995C00200140995462
:106060007B681A7900210A401A715A7900210A4086
:106070005A719A7900210A409A71DA7900210A400E
:10608000DA717B681A7A00210A401A725A7A002162
:106090000A405A729A7A00210A409A72DA7A0021EA
:1060A0000A40DA727B681A7B00210A401A735A7B15
:1060B00000210A405A739A7B00210A409A73DA7BC6
:1060C00000210A40DA737B681A7D00210A401A75A4
:1060D0005A7D00210A405A759A7D00210A409A751E
:1060E000DA7D00210A40DA757B681A7E00210A40B9
:1060F000111C602252420A431A765A7E00210A403D
:10610000111C102252420A435A769A7E00210A40FC
:106110009A76DA7E00210A40DA767B681A7F0021BF
:106120000A40111C142252420A431A775A7F002156
:106130000A40111C702252420A435A779A7F00216A
:106140000A409A77DA7F00210A40DA777B682022BA
:10615000995C00200140081C582149420143995490
:106160002122995C00200140081C612101439954BF
:106170002222995C0020014099542322995C00203E
:10618000014099547B682C22995C00200140081C36
:106190006421014399542D22995C002001409954B7
:1061A0002E22995C0020014099542F22995C0020F6
:1061B000014099547B683022995C00200140995439
:1061C0003122995C0020014099543222995C0020D0
:1061D000014099543322995C002001409954C046F3
:1061E000BD4602B080BDC0467401002080B582B0BB
:1061F00000AF78607B68180001F07EFD7B681800B6
:1062000000F014F97B68180000F00CFA7B681800A5
:1062100000F004FB7B68180000F0C8FD7B681800E4
:1062200000F0EAFC7B68180000F0C8FE7B681800EC
:1062300000F018F87B68180001F020F97B6818005E
:1062400001F048FA7B68180001F070FB7B681800C9
:1062500001F060FC7B68180000F0AAFFC046BD4654
:1062600002B080BD90B583B000AF78607B683D22FE
:106270009B5C012B00D0CDE07B6837229B5C012B1F
:1062800000D08AE0654B1B78002B07D1634B0122BD
:106290001A700AF061F90200614B1A60604B1B68CA
:1062A000604A9C180AF058F903009C429B415B42EB
:1062B000DBB2002B00D1ADE07B681A7D597D09026D
:1062C0000A43997D09040A43DB7D1B0613431A0028
:1062D00080235B001A437B68FF2111400C00197D6D
:1062E00000200140081C211C01431975110AFF20E0
:1062F00001400C00597D00200140081C211C014375
:106300005975110CFF2001400C00997D00200140BF
:10631000081C211C01439975100EDA7D00210A40EA
:10632000111C021C0A43DA757B681A7D597D09022B
:106330000A43997D09040A43DB7D1B0613431A00B7
:1063400080235B051A437B68FF2111400C00197DF7
:1063500000200140081C211C01431975110AFF206F
:1063600001400C00597D00200140081C211C014304
:106370005975110CFF2001400C00997D002001404F
:10638000081C211C01439975100EDA7D00210A407A
:10639000111C021C0A43DA753CE0204B00221A70E3
:1063A0001F4B00221A607B681A7D597D09020A433F
:1063B000997D09040A43DB7D1B0613431A001A4B1F
:1063C0001A407B68FF2111400C00197D002001401C
:1063D000081C211C01431975110AFF2001400C0003
:1063E000597D00200140081C211C01435975110CE6
:1063F000FF2001400C00997D00200140081C211C59
:1064000001439975100EDA7D00210A40111C021C0F
:106410000A43DA75C046BD4603B090BD7C0100203A
:106420007801002088130000FFFEFFFF90B583B0C5
:1064300000AF78607B681A78597809020A43997826
:1064400009040A43DB781B0613431A006F4B9A4278
:1064500000D88AE06E4B1B78002B07D10AF07CF83D
:1064600002006C4B1A606A4B01221A70694B1B6860
:10647000694A9C180AF070F803009C429B415B42F9
:10648000DBB2002B00D1BCE07B681A7D597D09028C
:106490000A43997D09040A43DB7D1B0613431A0056
:1064A00080239B001A437B68FF2111400C00197D5B
:1064B00000200140081C211C01431975110AFF200E
:1064C00001400C00597D00200140081C211C0143A3
:1064D0005975110CFF2001400C00997D00200140EE
:1064E000081C211C01439975100EDA7D00210A4019
:1064F000111C021C0A43DA757B681A7D597D09025A
:106500000A43997D09040A43DB7D1B0613431A00E5
:1065100080235B051A437B68FF2111400C00197D25
:1065200000200140081C211C01431975110AFF209D
:1065300001400C00597D00200140081C211C014332
:106540005975110CFF2001400C00997D002001407D
:10655000081C211C01439975100EDA7D00210A40A8
:10656000111C021C0A43DA754BE07B681A785978D3
:1065700009020A43997809040A43DB781B0613438E
:106580001A00264B9A423CD8224B00221A607B68A4
:106590001A7D597D09020A43997D09040A43DB7D6E
:1065A0001B0613431A001E4B1A407B68FF21114043
:1065B0000C00197D00200140081C211C01431975A5
:1065C000110AFF2001400C00597D00200140081CE9
:1065D000211C01435975110CFF2001400C00997DCD
:1065E00000200140081C211C01439975100EDA7D22
:1065F00000210A40111C021C0A43DA75044B0022D8
:106600001A70C046BD4603B090BDC046F0BA040043
:1066100084010020800100208813000058800400BD
:10662000FFFDFFFF90B583B000AF78607B681A78FC
:10663000597809020A43997809040A43DB781B0652
:1066400013431A006F4B9A4200D98AE06E4B1B78B5
:10665000002B07D109F080FF02006C4B1A606A4BD7
:1066600001221A70694B1B68694A9C1809F074FF73
:1066700003009C429B415B42DBB2002B00D1BCE09B
:106680007B681A7D597D09020A43997D09040A43F2
:10669000DB7D1B0613431A0080231B011A437B6812
:1066A000FF2111400C00197D00200140081C211C15
:1066B00001431975110AFF2001400C00597D00208B
:1066C0000140081C211C01435975110CFF20014099
:1066D0000C00997D00200140081C211C0143997584
:1066E000100EDA7D00210A40111C021C0A43DA75E3
:1066F0007B681A7D597D09020A43997D09040A4382
:10670000DB7D1B0613431A0080235B051A437B685D
:10671000FF2111400C00197D00200140081C211CA4
:1067200001431975110AFF2001400C00597D00201A
:106730000140081C211C01435975110CFF20014028
:106740000C00997D00200140081C211C0143997513
:10675000100EDA7D00210A40111C021C0A43DA7572
:106760004BE07B681A78597809020A439978090442
:106770000A43DB781B0613431A00264B9A423CD986
:10678000214B00221A70214B00221A607B681A7D6F
:10679000597D09020A43997D09040A43DB7D1B06E2
:1067A00013431A001C4B1A407B68FF2111400C0058
:1067B000197D00200140081C211C01431975110A94
:1067C000FF2001400C00597D00200140081C211CC5
:1067D00001435975110CFF2001400C00997D0020E8
:1067E0000140081C211C01439975100EDA7D00211F
:1067F0000A40111C021C0A43DA75C046BD4603B0AC
:1068000090BDC046AFAD01008C0100208801002082
:1068100088130000BFD40100FFF7FFFF90B583B0DD
:1068200000AF78607B683D229B5C012B00D0FDE0CF
:106830007B683E229B5C012B00D0F7E07B681A7AD4
:10684000597A09020A43997A09040A43DB7A1B063A
:10685000134318007B681A7E597E09020A43997E09
:1068600009040A43DB7E1B061343F533FF339842CA
:1068700000D89CE07B681A7B597B09020A43997B0C
:1068800009040A43DB7B1B0613431A00FA23DB00CF
:106890009A4200D88BE0D44B1B78002B07D1D24B07
:1068A00001221A7009F058FE0200D04B1A60CF4B3B
:1068B0001B68FA22D2009C1809F04EFE03009C428D
:1068C0009B415B42DBB2002B00D1AEE07B681A7DBE
:1068D000597D09020A43997D09040A43DB7D1B06A1
:1068E00013431A0080235B021A437B68FF21114087
:1068F0000C00197D00200140081C211C0143197562
:10690000110AFF2001400C00597D00200140081CA5
:10691000211C01435975110CFF2001400C00997D89
:1069200000200140081C211C01439975100EDA7DDE
:1069300000210A40111C021C0A43DA757B681A7D8B
:10694000597D09020A43997D09040A43DB7D1B0630
:1069500013431A0080235B051A437B68FF21114013
:106960000C00197D00200140081C211C01431975F1
:10697000110AFF2001400C00597D00200140081C35
:10698000211C01435975110CFF2001400C00997D19
:1069900000200140081C211C01439975100EDA7D6E
:1069A00000210A40111C021C0A43DA753DE08E4B9F
:1069B00000221A708D4B00221A607B681A7D597D67
:1069C00009020A43997D09040A43DB7D1B06134330
:1069D0001A00874B1A407B68FF2111400C00197D7B
:1069E00000200140081C211C01431975110AFF20D9
:1069F00001400C00597D00200140081C211C01436E
:106A00005975110CFF2001400C00997D00200140B8
:106A1000081C211C01439975100EDA7D00210A40E3
:106A2000111C021C0A43DA75DAE0D9E07B681A7A95
:106A3000597A09020A43997A09040A43DB7A1B0648
:106A400013431A006B4B9A4200D88BE0664B1B78BD
:106A5000002B07D1644B01221A7009F07DFD020062
:106A6000624B1A60614B1B68FA22D2009C1809F035
:106A700073FD03009C429B415B42DBB2002B00D1C3
:106A8000AEE07B681A7D597D09020A43997D0904AD
:106A90000A43DB7D1B0613431A0080235B021A4363
:106AA0007B68FF2111400C00197D00200140081C6B
:106AB000211C01431975110AFF2001400C00597D6A
:106AC00000200140081C211C01435975110CFF20B6
:106AD00001400C00997D00200140081C211C01434D
:106AE0009975100EDA7D00210A40111C021C0A4320
:106AF000DA757B681A7D597D09020A43997D09047C
:106B00000A43DB7D1B0613431A0080235B051A43EF
:106B10007B68FF2111400C00197D00200140081CFA
:106B2000211C01431975110AFF2001400C00597DF9
:106B300000200140081C211C01435975110CFF2045
:106B400001400C00997D00200140081C211C0143DC
:106B50009975100EDA7D00210A40111C021C0A43AF
:106B6000DA753DE0204B00221A70204B00221A609B
:106B70007B681A7D597D09020A43997D09040A43FD
:106B8000DB7D1B0613431A00194B1A407B68FF215B
:106B900011400C00197D00200140081C211C0143FC
:106BA0001975110AFF2001400C00597D0020014099
:106BB000081C211C01435975110CFF2001400C00D9
:106BC000997D00200140081C211C01439975100E7D
:106BD000DA7D00210A40111C021C0A43DA75FFE726
:106BE000C046BD4603B090BD940100209001002036
:106BF000FFFFFEFFA086010090B583B000AF786074
:106C00007B6835229B5C012B00D08AE0654B1B78AA
:106C1000002B07D1634B01221A7009F09DFC020082
:106C2000614B1A60604B1B68FA22D2009C1809F075
:106C300093FC03009C429B415B42DBB2002B00D1E2
:106C4000ACE07B681A7D597D09020A43997D0904ED
:106C50000A43DB7D1B0613431A0040231A437B685B
:106C6000FF2111400C00197D00200140081C211C4F
:106C700001431975110AFF2001400C00597D0020C5
:106C80000140081C211C01435975110CFF200140D3
:106C90000C00997D00200140081C211C01439975BE
:106CA000100EDA7D00210A40111C021C0A43DA751D
:106CB0007B681A7D597D09020A43997D09040A43BC
:106CC000DB7D1B0613431A0080235B051A437B6898
:106CD000FF2111400C00197D00200140081C211CDF
:106CE00001431975110AFF2001400C00597D002055
:106CF0000140081C211C01435975110CFF20014063
:106D00000C00997D00200140081C211C014399754D
:106D1000100EDA7D00210A40111C021C0A43DA75AC
:106D20003CE0204B00221A701F4B00221A607B6847
:106D30001A7D597D09020A43997D09040A43DB7DC6
:106D40001B0613431A0040239A437B68FF2111401E
:106D50000C00197D00200140081C211C01431975FD
:106D6000110AFF2001400C00597D00200140081C41
:106D7000211C01435975110CFF2001400C00997D25
:106D800000200140081C211C01439975100EDA7D7A
:106D900000210A40111C021C0A43DA75C046BD4698
:106DA00003B090BD9C0100209801002090B583B0F5
:106DB00000AF78607B683D229B5C012B00D0F2E045
:106DC0007B681A7A597A09020A43997A09040A43B4
:106DD000DB7A1B06134318007B681A7F597F090270
:106DE0000A43997F09040A43DB7F1B061343984239
:106DF00000D39AE07B681A7A597A09020A43997A91
:106E000009040A43DB7A1B0613431A00684B9A42B3
:106E100000D88AE0674B1B78002B07D1654B012215
:106E20001A7009F099FB0200634B1A60624B1B68F1
:106E3000FA22D2009C1809F08FFB03009C429B4170
:106E40005B42DBB2002B00D1ADE07B681A7D597D3F
:106E500009020A43997D09040A43DB7D1B0613439B
:106E60001A0020231A437B68FF2111400C00197D72
:106E700000200140081C211C01431975110AFF2044
:106E800001400C00597D00200140081C211C0143D9
:106E90005975110CFF2001400C00997D0020014024
:106EA000081C211C01439975100EDA7D00210A404F
:106EB000111C021C0A43DA757B681A7D597D090290
:106EC0000A43997D09040A43DB7D1B0613431A001C
:106ED00080235B051A437B68FF2111400C00197D5C
:106EE00000200140081C211C01431975110AFF20D4
:106EF00001400C00597D00200140081C211C014369
:106F00005975110CFF2001400C00997D00200140B3
:106F1000081C211C01439975100EDA7D00210A40DE
:106F2000111C021C0A43DA753DE0224B00221A7044
:106F3000214B00221A607B681A7D597D09020A43A1
:106F4000997D09040A43DB7D1B0613431A002023A5
:106F50009A437B68FF2111400C00197D00200140FD
:106F6000081C211C01431975110AFF2001400C0067
:106F7000597D00200140081C211C01435975110C4A
:106F8000FF2001400C00997D00200140081C211CBD
:106F900001439975100EDA7D00210A40111C021C74
:106FA0000A43DA75FFE7C046BD4603B090BDC04650
:106FB000204E0000A4010020A001002090B583B065
:106FC00000AF78607B683D229B5C012B00D0E2E043
:106FD0007B681A7B597B09020A43997B09040A439F
:106FE000DB7B1B06134319007B6834229B5C1A0071
:106FF00013005B019B1A9B009B18DB00F533FF33EA
:10700000994200D88AE0664B1B78002B07D1644B6D
:1070100001221A7009F0A0FA0200624B1A60614B5B
:107020001B68614A9C1809F097FA03009C429B4137
:107030005B42DBB2002B00D1ADE07B681A7D597D4D
:1070400009020A43997D09040A43DB7D1B061343A9
:107050001A0080235B031A437B68FF2111400C0058
:10706000197D00200140081C211C01431975110ADB
:10707000FF2001400C00597D00200140081C211C0C
:1070800001435975110CFF2001400C00997D00202F
:107090000140081C211C01439975100EDA7D002166
:1070A0000A40111C021C0A43DA757B681A7D597D5F
:1070B00009020A43997D09040A43DB7D1B06134339
:1070C0001A0080235B051A437B68FF2111400C00E6
:1070D000197D00200140081C211C01431975110A6B
:1070E000FF2001400C00597D00200140081C211C9C
:1070F00001435975110CFF2001400C00997D0020BF
:107100000140081C211C01439975100EDA7D0021F5
:107110000A40111C021C0A43DA753CE0204B002295
:107120001A70204B00221A607B681A7D597D090273
:107130000A43997D09040A43DB7D1B0613431A00A9
:107140001A4B1A407B68FF2111400C00197D00206A
:107150000140081C211C01431975110AFF20014040
:107160000C00597D00200140081C211C0143597569
:10717000110CFF2001400C00997D00200140081CEB
:10718000211C01439975100EDA7D00210A40111C63
:10719000021C0A43DA75C046BD4603B090BDC04626
:1071A000AC010020A801002088130000FFFFEFFFC2
:1071B00090B583B000AF78607B683D229B5C012B6B
:1071C00000D049E17B683E229B5C012B00D043E16B
:1071D0007B681A7A597A09020A43997A09040A43A0
:1071E000DB7A1B0613431A009D4B9A4219D97B6820
:1071F0001A7A597A09020A43997A09040A43DB7A0E
:107200001B06134318007B681A7C597C09020A4349
:10721000997C09040A43DB7C1B061343984200D285
:1072200097E07B681A7B597B09020A43997B090422
:107230000A43DB7B1B0613431A00FA235B009A42C6
:1072400000D386E0874B1B78002B07D1854B0122AA
:107250001A7009F081F90200834B1A60824B1B6897
:107260009C1C09F079F903009C429B415B42DBB214
:10727000002B6ED07B681A7D597D09020A43997DE7
:1072800009040A43DB7D1B0613431A0080231A43BB
:107290007B68FF2111400C00197D00200140081C73
:1072A000211C01431975110AFF2001400C00597D72
:1072B00000200140081C211C01435975110CFF20BE
:1072C00001400C00997D00200140081C211C014355
:1072D0009975100EDA7D00210A40111C021C0A4328
:1072E000DA757B681A7D597D09020A43997D090484
:1072F0000A43DB7D1B0613431A0080235B051A43F8
:107300007B68FF2111400C00197D00200140081C02
:10731000211C01431975110AFF2001400C00597D01
:1073200000200140081C211C01435975110CFF204D
:1073300001400C00997D00200140081C211C0143E4
:107340009975100EDA7D00210A40111C021C0A43B7
:10735000DA757B681A7D597D09020A43997D090413
:107360000A43DB7D1B0613431A008023134073D0AE
:107370007B681A7A597A09020A43997A09040A43FE
:10738000DB7A1B0613431A00354B9A4264D97B689B
:107390001A7A597A09020A43997A09040A43DB7A6C
:1073A0001B0613431A00314B9A4255D8304B1B78B9
:1073B000002B07D12E4B01221A7009F0CDF80200E4
:1073C0002C4B1A602B4B1B682B4A9C1809F0C4F8F5
:1073D00003009C429B415B42DBB2002B3CD0244B20
:1073E00000221A70234B00221A607B681A7D597D97
:1073F00009020A43997D09040A43DB7D1B061343F6
:107400001A0080239A437B68FF2111400C00197DEC
:1074100000200140081C211C01431975110AFF209E
:1074200001400C00597D00200140081C211C014333
:107430005975110CFF2001400C00997D002001407E
:10744000081C211C01439975100EDA7D00210A40A9
:10745000111C021C0A43DA75C046BD4603B090BD3C
:107460001F4E0000B4010020B001002030F20000E7
:10747000BC010020B8010020581B000090B583B06B
:1074800000AF78607B683D229B5C012B00D0D3E08D
:107490007B683E229B5C012B00D0CDE07B683822CC
:1074A0009B5C012B00D089E0874B1B78002B07D118
:1074B000854B01221A7009F04FF80200834B1A60C5
:1074C000824B1B68824A9C1809F046F803009C42D4
:1074D0009B415B42DBB2002B00D1F0E07B681A7D60
:1074E000597D09020A43997D09040A43DB7D1B0685
:1074F00013431A0008231A437B68FF2111400C0034
:10750000197D00200140081C211C01431975110A36
:10751000FF2001400C00597D00200140081C211C67
:1075200001435975110CFF2001400C00997D00208A
:107530000140081C211C01439975100EDA7D0021C1
:107540000A40111C021C0A43DA757B681A7D597DBA
:1075500009020A43997D09040A43DB7D1B06134394
:107560001A0080235B051A437B68FF2111400C0041
:10757000197D00200140081C211C01431975110AC6
:10758000FF2001400C00597D00200140081C211CF7
:1075900001435975110CFF2001400C00997D00201A
:1075A0000140081C211C01439975100EDA7D002151
:1075B0000A40111C021C0A43DA7580E0424B00228B
:1075C0001A70424B00221A607B681A7D597D0902AD
:1075D0000A43997D09040A43DB7D1B0613431A0005
:1075E00008239A437B68FF2111400C00197D00207D
:1075F0000140081C211C01431975110AFF2001409C
:107600000C00597D00200140081C211C01435975C4
:10761000110CFF2001400C00997D00200140081C46
:10762000211C01439975100EDA7D00210A40111CBE
:10763000021C0A43DA7542E07B6838229B5C002B0F
:107640003ED1214B00221A70204B00221A607B6829
:107650001A7D597D09020A43997D09040A43DB7D9D
:107660001B0613431A0008239A437B68FF2111402D
:107670000C00197D00200140081C211C01431975D4
:10768000110AFF2001400C00597D00200140081C18
:10769000211C01435975110CFF2001400C00997DFC
:1076A00000200140081C211C01439975100EDA7D51
:1076B00000210A40111C021C0A43DA7500E0C04692
:1076C000C046BD4603B090BDC4010020C0010020EB
:1076D0008813000090B583B000AF78607B683D22CE
:1076E0009B5C012B00D0D3E07B683E229B5C012B8E
:1076F00000D0CDE07B6839229B5C012B00D089E073
:10770000874B1B78002B07D1854B01221A7008F09C
:1077100023FF0200834B1A60824B1B68824A9C182D
:1077200008F01AFF03009C429B415B42DBB2002B36
:1077300000D1F0E07B681A7D597D09020A43997DEA
:1077400009040A43DB7D1B0613431A0010231A4366
:107750007B68FF2111400C00197D00200140081CAE
:10776000211C01431975110AFF2001400C00597DAD
:1077700000200140081C211C01435975110CFF20F9
:1077800001400C00997D00200140081C211C014390
:107790009975100EDA7D00210A40111C021C0A4363
:1077A000DA757B681A7D597D09020A43997D0904BF
:1077B0000A43DB7D1B0613431A0080235B051A4333
:1077C0007B68FF2111400C00197D00200140081C3E
:1077D000211C01431975110AFF2001400C00597D3D
:1077E00000200140081C211C01435975110CFF2089
:1077F00001400C00997D00200140081C211C014320
:107800009975100EDA7D00210A40111C021C0A43F2
:10781000DA7580E0424B00221A70424B00221A6057
:107820007B681A7D597D09020A43997D09040A4340
:10783000DB7D1B0613431A0010239A437B68FF214C
:1078400011400C00197D00200140081C211C01433F
:107850001975110AFF2001400C00597D00200140DC
:10786000081C211C01435975110CFF2001400C001C
:10787000997D00200140081C211C01439975100EC0
:10788000DA7D00210A40111C021C0A43DA7542E02D
:107890007B6839229B5C002B3ED1214B00221A7061
:1078A000204B00221A607B681A7D597D09020A4329
:1078B000997D09040A43DB7D1B0613431A0010233C
:1078C0009A437B68FF2111400C00197D0020014084
:1078D000081C211C01431975110AFF2001400C00EE
:1078E000597D00200140081C211C01435975110CD1
:1078F000FF2001400C00997D00200140081C211C44
:1079000001439975100EDA7D00210A40111C021CFA
:107910000A43DA7500E0C046C046BD4603B090BDDC
:10792000CC010020C80100208813000090B583B06E
:1079300000AF78607B683D229B5C012B00D0DEE0CD
:107940007B683E229B5C012B00D0D8E07B6828221C
:107950009A5C2921595C09020A432A21595C0904CD
:107960000A432B215B5C1B061343642B00DC89E07C
:10797000654B1B78002B07D1634B01221A7008F06E
:10798000EBFD0200614B1A60604B1B68604A9C185B
:1079900008F0E2FD03009C429B415B42DBB2002BFE
:1079A00000D1ACE07B681A7D597D09020A43997DBC
:1079B00009040A43DB7D1B0613431A0002231A4302
:1079C0007B68FF2111400C00197D00200140081C3C
:1079D000211C01431975110AFF2001400C00597D3B
:1079E00000200140081C211C01435975110CFF2087
:1079F00001400C00997D00200140081C211C01431E
:107A00009975100EDA7D00210A40111C021C0A43F0
:107A1000DA757B681A7D597D09020A43997D09044C
:107A20000A43DB7D1B0613431A0080235B051A43C0
:107A30007B68FF2111400C00197D00200140081CCB
:107A4000211C01431975110AFF2001400C00597DCA
:107A500000200140081C211C01435975110CFF2016
:107A600001400C00997D00200140081C211C0143AD
:107A70009975100EDA7D00210A40111C021C0A4380
:107A8000DA753CE0204B00221A70204B00221A606D
:107A90007B681A7D597D09020A43997D09040A43CE
:107AA000DB7D1B0613431A0002239A437B68FF21E8
:107AB00011400C00197D00200140081C211C0143CD
:107AC0001975110AFF2001400C00597D002001406A
:107AD000081C211C01435975110CFF2001400C00AA
:107AE000997D00200140081C211C01439975100E4E
:107AF000DA7D00210A40111C021C0A43DA75C046D7
:107B0000BD4603B090BDC046D4010020D001002086
:107B10008813000090B583B000AF78607B683D2289
:107B20009B5C012B00D0DDE07B683E229B5C012B3F
:107B300000D0D7E07B6828229A5C2921595C090291
:107B40000A432A21595C09040A432B215B5C1B066A
:107B5000134300D489E0654B1B78002B07D1634B9E
:107B600001221A7008F0F8FC0200614B1A60604BA9
:107B70001B68604A9C1808F0EFFC03009C429B4184
:107B80005B42DBB2002B00D1ACE07B681A7D597DF3
:107B900009020A43997D09040A43DB7D1B0613434E
:107BA0001A0004231A437B68FF2111400C00197D41
:107BB00000200140081C211C01431975110AFF20F7
:107BC00001400C00597D00200140081C211C01438C
:107BD0005975110CFF2001400C00997D00200140D7
:107BE000081C211C01439975100EDA7D00210A4002
:107BF000111C021C0A43DA757B681A7D597D090243
:107C00000A43997D09040A43DB7D1B0613431A00CE
:107C100080235B051A437B68FF2111400C00197D0E
:107C200000200140081C211C01431975110AFF2086
:107C300001400C00597D00200140081C211C01431B
:107C40005975110CFF2001400C00997D0020014066
:107C5000081C211C01439975100EDA7D00210A4091
:107C6000111C021C0A43DA753CE0204B00221A70FA
:107C70001F4B00221A607B681A7D597D09020A4356
:107C8000997D09040A43DB7D1B0613431A00042374
:107C90009A437B68FF2111400C00197D00200140B0
:107CA000081C211C01431975110AFF2001400C001A
:107CB000597D00200140081C211C01435975110CFD
:107CC000FF2001400C00997D00200140081C211C70
:107CD00001439975100EDA7D00210A40111C021C27
:107CE0000A43DA75C046BD4603B090BDDC010020F2
:107CF000D80100208813000080B582B000AF786002
:107D00007B681A78597809020A43997809040A436A
:107D1000DB781B0613431A00224B9A4213D97B6867
:107D20001A78597809020A43997809040A43DB78DA
:107D30001B0613431A001C4B9A4204D87B683C2252
:107D40000121995429E07B681A7D597D09020A4373
:107D5000997D09040A43DB7D1B0613431A00802327
:107D60001B0113400FD17B681A7D597D09020A431C
:107D7000997D09040A43DB7D1B0613431A00802307
:107D80009B00134004D07B683C220021995404E0FE
:107D90007B683C2201219954C046C046BD4602B0D2
:107DA00080BDC046BFD4010058800400B0B584B087
:107DB00000AF78607B689B78012B34D17B68DA78E0
:107DC000197909020A43597909040A439B791B0668
:107DD0001343FA22D2009C1808F0BEFB03009C4219
:107DE0009B415B42DBB2002B1DD07B6809330F2522
:107DF0007C19802212020E491800FEF760F8030079
:107E000023707B191B78012B0AD17B680122DA7160
:107E10007B6800221A707B68180000F06FF802E09F
:107E20007B680022DA71C046BD4604B0B0BDC046D2
:107E30000004005090B583B000AF78600A00FB1CCE
:107E40001A707B680933180080235A00A023D905D3
:107E50000023FEF71DF87B680933180080239A0180
:107E600025490123FEF714F8FB1C1B78012B08D1D0
:107E70007B68093318008023DA011F490123FEF7CC
:107E800007F87B6801229A707B6801225A707B6830
:107E900001221A7008F060FB02007B680333FF21A7
:107EA00011400C00197800200140081C211C0143DE
:107EB0001970110AFF2001400C0059780020014080
:107EC000081C211C01435970110CFF2001400C00BB
:107ED000997800200140081C211C01439970100E64
:107EE000DA7800210A40111C021C0A43DA70C046ED
:107EF000BD4603B090BDC0460008005080B582B0BA
:107F000000AF78607B680933180080235A00A023F3
:107F1000D9050123FDF7BCFF7B68093318008023D6
:107F20009A010B490023FDF7B3FF7B680933180062
:107F30008023DA0106490023FDF7AAFF7B680022AF
:107F40009A707B6800225A70C046BD4602B080BD60
:107F50000008005090B583B000AF78600A00FB1CA9
:107F60001A707B680933180080235A00A023D905B2
:107F70000023FDF78DFF7B680933180080239A01E9
:107F800025490123FDF784FFFB1C1B78012B08D139
:107F90007B68093318008023DA011F490123FDF7AC
:107FA00077FF7B6801229A707B6801221A727B68D6
:107FB00001225A7008F0D0FA02007B680333FF21D7
:107FC00011400C00197800200140081C211C0143BD
:107FD0001970110AFF2001400C005978002001405F
:107FE000081C211C01435970110CFF2001400C009A
:107FF000997800200140081C211C01439970100E43
:10800000DA7800210A40111C021C0A43DA70C046CB
:10801000BD4603B090BDC0460008005080B582B098
:1080200000AF78607B680933180080235A00A023D2
:10803000D9050123FDF72CFF7B6809331800802345
:108040009A010B490023FDF723FF7B6809331800D1
:108050008023DA0106490023FDF71AFF7B6800221E
:108060009A707B6800225A70C046BD4602B080BD3F
:108070000008005080B582B000AF78607B685A7A03
:10808000997A09020A43D97A09040A431B7B1B0621
:108090001343012098477B685A79997909020A436A
:1080A000D97909040A431B7A1B0613430120984718
:1080B000C046BD4602B080BD80B582B000AF7860DA
:1080C0007B685A7A997A09020A43D97A09040A43E1
:1080D0001B7B1B061343012098477B685A799979CB
:1080E00009020A43D97909040A431B7A1B06134380
:1080F000002098477B685A7A997A09020A43D97A0C
:1081000009040A431B7B1B06134300209847C04603
:10811000BD4602B080BD80B582B000AF78607B689C
:108120005A7A997A09020A43D97A09040A431B7BCD
:108130001B061343012098477B685A7999790902F5
:108140000A43D97909040A431B7A1B061343012009
:108150009847C046BD4602B080BD0000B0B586B0AD
:1081600000AF78600A00FB1C1A707B685A7A997A13
:1081700009020A43D97A09040A431B7B1B061343ED
:10818000002098471723FB1880221A7007233B61B1
:1081900055E00E203B1800221A7017243B19FA1CD8
:1081A0001B7812781340DBB21A003B691A413B1866
:1081B0001A703B690722D31A3C4A39180978D154FE
:1081C0007B685A79997909020A43D97909040A43E3
:1081D0001B7A1B0613431A003B181B7818009047A4
:1081E0007B685A7A997A09020A43D97A09040A43C0
:1081F0001B7B1B061343012098477B685A7A997AA8
:1082000009020A43D97A09040A431B7B1B0613435C
:10821000002098477B685A79997909020A43D979ED
:1082200009040A431B7A1B061343002098473B6945
:10823000013B3B613B193A19127852081A703B69AD
:10824000002BA6DA0F243B1901221A707B685A7A98
:10825000997A09020A43D97A09040A431B7B1B064F
:108260001343012098477B685A7B997B09020A4394
:10827000D97B09040A431B7C1B06134325003C19C8
:108280009847030023707B685A7A997A09020A4357
:10829000D97A09040A431B7B1B0613430020984725
:1082A0007B191B781800BD4606B0B0BDF801002050
:1082B00090B583B000AFBB1D00221A70FB1D0122D8
:1082C0001A701B4B1A781A4B5B78D318DAB2184B1A
:1082D0009B78D318D9B2164BDA78BB1D8A181A705E
:1082E000134B1800FFF7C6FE114B1800FFF7E4FE12
:1082F000FC1D0F4B48211800FFF730FF03002370CF
:10830000FB1D1B78002B09D1FC1DBB1D1A78084BE7
:1083100011001800FFF722FF03002370044B180020
:10832000FFF7F9FEFB1D1B781800BD4603B090BD9A
:10833000E0010020B0B582B000AF05000C001000D5
:108340001900FB1D2A1C1A70BB1D221C1A707B1DF4
:10835000021C1A703B1D0A1C1A704D4BFA1D127834
:108360001A704B4BBA1D12785A70494B3A1D12784D
:10837000DA70474B7A1D12789A70454A1823FB1819
:108380001B781371424B05331C22BA1810781A78E7
:1083900000210A40111C021C0A431A701D22BA183F
:1083A00010785A7800210A40111C021C0A435A70A6
:1083B0001E22BA1810789A7800210A40111C021C5B
:1083C0000A439A701F22BA181078DA7800210A40FE
:1083D000111C021C0A43DA702D4B09332022BA18F3
:1083E00010781A7800210A40111C021C0A431A70E6
:1083F0002122BA1810785A7800210A40111C021C58
:108400000A435A702222BA1810789A7800210A403A
:10841000111C021C0A439A702322BA181078DA78C9
:1084200000210A40111C021C0A43DA70184B0D335C
:108430002422BA1810781A7800210A40111C021C54
:108440000A431A702522BA1810785A7800210A4077
:10845000111C021C0A435A702622BA1810789A7806
:1084600000210A40111C021C0A439A702722BA18E4
:108470001078DA7800210A40111C021C0A43DA70D5
:10848000FFF716FF03001800BD4602B0B0BDC0469E
:10849000E001002080B582B000AF0200FB1D1A7021
:1084A000054BFA1D1278DA70FFF702FF030018007F
:1084B000BD4602B080BDC046E0010020B0B584B02A
:1084C00000AF0200FB1D1A70BB1D0A1C1A700F239F
:1084D000FB1801221A70BB1D1B78092B01D902233E
:1084E00036E01D4B1800FFF7C5FD1B4B1800FFF7CA
:1084F000E3FD0F257C19FB1D1A78174B110018009E
:10850000FFF72CFE0300237029007B181B78002B3B
:108510000BD1BB1D1B78114AD25C7C180E4B11008D
:108520001800FFF71BFE030023700B4B1800FFF72A
:10853000F2FD0F23FB181B78002B06D1FB1D1B78C7
:10854000683B074AF91D0978D1540F23FB181B78A3
:108550001800BD4604B0B0BDE001002004000020BA
:10856000F4010020B0B584B000AF0200FB1D1A700A
:10857000BB1D0A1C1A700E217B1800221A700F23D3
:10858000FB1801221A707B18BA1D12781A70BB1DD5
:108590001B785A2B03D8BB1D1B78402B01D8022314
:1085A0003CE0204B1800FFF765FD1E4B1800FFF75D
:1085B00083FD0F257C19FB1D1A781A4B110018003A
:1085C000FFF7CCFD0300237029007B181B78002BDC
:1085D00011D10E203B183A181278413A1A703B1804
:1085E0001B78114AD25C7C180E4B11001800FFF763
:1085F000B5FD030023700B4B1800FFF78CFD0F2314
:10860000FB181B78002B06D1FB1D1B78683B074A23
:10861000F91D0978D1540F23FB181B781800BD46AB
:1086200004B0B0BDE001002010000020F4010020E3
:10863000B0B584B000AF0200FB1D1A700F257B1986
:1086400001221A70164B1800FFF714FD144B180086
:10865000FFF732FD7C19FB1D1A78114B1100180031
:10866000FFF77CFD0300237029007B181B78002B8B
:108670000ED1FB1D1B780B4AD35C1A000A4B9A5C87
:108680007C18074B11001800FFF768FD03002370EA
:108690000F23FB181B781800BD4604B0B0BDC046C0
:1086A000E0010020F40100200400002080B582B029
:1086B00000AF78607B681433AF229200002118006D
:1086C00012F088FA7A68B4239B00D3181C22002188
:1086D000180012F07FFA7A68BB239B00D3180E2291
:1086E0000021180012F076FA7B681A7800210A40FF
:1086F0001A705A7800210A405A709A7800210A406C
:108700009A70DA7800210A40DA707B681A790021C1
:108710000A401A715A7900210A405A719A79002147
:108720000A409A71DA7900210A40DA717B681A7A74
:1087300000210A401A725A7A00210A405A729A7A23
:1087400000210A409A72DA7A00210A40DA727B68C4
:108750001A7B00210A401A735A7B00210A405A737F
:108760007B689A7B00210A409A73DA7B00210A40D9
:10877000DA737B681A7C00210A401A745A7C002143
:108780000A405A747B689A7C00210A409A74DA7C09
:1087900000210A40DA747B68034A002199547B68FF
:1087A0001800BD4602B080BDFA02000080B582B05C
:1087B00000AF78607B681800BD4602B080BD80B510
:1087C00082B000AF78607B681A78597809020A4352
:1087D000997809040A43DB781B0613431800BD4649
:1087E00002B080BD80B582B000AF78607B681A7936
:1087F000597909020A43997909040A43DB791B066E
:1088000013431800BD4602B080BD80B582B000AFF2
:1088100078607B681A7A597A09020A43997A0904BE
:108820000A43DB7A1B0613431800BD4602B080BD25
:1088300080B582B000AF78607B681A7B5B7B1B02DF
:1088400013431B041B141BB29BB21800BD4602B09D
:1088500080BD80B582B000AF78607B689A7BDB7B9F
:108860001B0213431B041B141BB29BB21800BD4612
:1088700002B080BD80B582B000AF78607B681A7CA2
:108880005B7C1B0213431B041B141BB29BB218001E
:10889000BD4602B080BD80B582B000AF78607B6815
:1088A0009A7CDB7C1B0213431B041B141BB29BB280
:1088B0001800BD4602B080BD80B582B000AF7860C0
:1088C0007B6801229B1830220021180012F082F9E7
:1088D0007B6801229B1830220021180012F07AF9DF
:1088E0007B687322052199547B6831331A78002103
:1088F0000A40111C08220A431A705A7800210A40C3
:10890000111C07220A435A709A7800210A409A7073
:10891000DA7800210A40DA707B687122995C0020C5
:10892000014099549B185A7800210A405A707B687C
:1089300074220E2199547B687322002199547B681C
:1089400035331A7800210A401A705A7800210A40FB
:108950005A709A7800210A409A70DA7800210A4009
:10896000DA707B6839331A7800210A401A705A7815
:1089700000210A405A709A7800210A409A70DA78E9
:1089800000210A40DA707B683D331A7800210A40E2
:108990001A705A7800210A405A709A7800210A40C9
:1089A0009A70DA7800210A40DA707B6841331A78CD
:1089B00000210A401A705A7800210A405A709A78A9
:1089C00000210A409A70DA7800210A40DA707B6848
:1089D00045331A7800210A401A705A7800210A405B
:1089E0005A709A7800210A409A70DA7800210A4079
:1089F000DA707B6849331A7800210A401A705A7875
:108A000000210A405A709A7800210A409A70DA7858
:108A100000210A40DA707B684D331A7800210A4041
:108A20001A705A7800210A405A709A7800210A4038
:108A30009A70DA7800210A40DA707B68752200218A
:108A400099547B687622002199547B687722002113
:108A500099547B687822002199547B6879220021FF
:108A600099547B687A22002199547B687B220121EA
:108A700099547B6851331A7800210A401A705A7849
:108A800000210A405A709A7800210A409A70DA78D8
:108A900000210A40DA707B6855331A7800210A40B9
:108AA0001A705A7800210A405A709A7800210A40B8
:108AB0009A70DA7800210A40DA707B6859331A78A4
:108AC00000210A401A705A7800210A405A709A7898
:108AD00000210A409A70DA7800210A40DA707B6837
:108AE0005D331A7800210A401A705A7800210A4032
:108AF0005A709A7800210A409A70DA7800210A4068
:108B0000DA707B6861331A7800210A401A705A784B
:108B100000210A405A709A7800210A409A70DA7847
:108B200000210A40DA707B6865331A7800210A4018
:108B30001A705A7800210A405A709A7800210A4027
:108B40009A70DA7800210A40DA707B6869331A7803
:108B500000210A401A705A7800210A405A709A7807
:108B600000210A409A70DA7800210A40DA707B68A6
:108B70006D331A7800210A401A705A7800210A4091
:108B80005A709A7800210A409A70DA7800210A40D7
:108B9000DA707B6800221A707B681800BD4602B04C
:108BA00080BD80B582B000AF78607B681800BD469C
:108BB00002B080BD80B582B000AF786039607B685C
:108BC00039333A0010781A7800210A40111C021C2F
:108BD0000A431A707A1C10785A7800210A40111C36
:108BE000021C0A435A70BA1C10789A7800210A4075
:108BF000111C021C0A439A70FA1C1078DA780021C2
:108C00000A40111C021C0A43DA70C046BD4602B07D
:108C100080BD80B582B000AF786039607B683D333D
:108C20003A0010781A7800210A40111C021C0A43ED
:108C30001A707A1C10785A7800210A40111C021C04
:108C40000A435A70BA1C10789A7800210A40111C05
:108C5000021C0A439A70FA1C1078DA7800210A4044
:108C6000111C021C0A43DA70C046BD4602B080BD2A
:108C700080B582B000AF786039607B6841333A00DC
:108C800010781A7800210A40111C021C0A431A703D
:108C90007A1C10785A7800210A40111C021C0A43E1
:108CA0005A70BA1C10789A7800210A40111C021CD4
:108CB0000A439A70FA1C1078DA7800210A40111CD5
:108CC000021C0A43DA70C046BD4602B080BD80B5C2
:108CD00082B000AF786039607B6845333A00107825
:108CE0001A7800210A40111C021C0A431A707A1CCF
:108CF00010785A7800210A40111C021C0A435A704D
:108D0000BA1C10789A7800210A40111C021C0A43F0
:108D10009A70FA1C1078DA7800210A40111C021CA3
:108D20000A43DA70C046BD4602B080BD80B582B04D
:108D300000AF786039607B6835333A0010781A7874
:108D400000210A40111C021C0A431A707A1C107878
:108D50005A7800210A40111C021C0A435A70BA1C9E
:108D600010789A7800210A40111C021C0A439A705C
:108D7000FA1C1078DA7800210A40111C021C0A4300
:108D8000DA70C046BD4602B080BD80B582B000AF8B
:108D900078600A00FB1C1A707B68FA1C7521127837
:108DA0005A54C046BD4602B080BDB0B582B000AFD7
:108DB00078600A00BB1C1A807B68B91C71220D7890
:108DC000985C00242040041C281C204398544878B8
:108DD0009B185A7800210A40111C021C0A435A7041
:108DE000C046BD4602B0B0BD80B582B000AF78606D
:108DF0000A00FB1C1A707B68FA1C742112785A5402
:108E0000C046BD4602B080BD80B582B000AF78607C
:108E10000A00FB1C1A707B68FA1C732112785A54E2
:108E2000C046BD4602B080BD80B582B000AF78605C
:108E300039607B6831333A0010781A7800210A4093
:108E4000111C021C0A431A707A1C10785A780021EF
:108E50000A40111C021C0A435A70BA1C10789A78F6
:108E600000210A40111C021C0A439A70FA1C107857
:108E7000DA7800210A40111C021C0A43DA70C0464D
:108E8000BD4602B080BD80B582B000AF78607B681F
:108E90001B781800BD4602B080BD80B582B000AF1F
:108EA00078607B6851229A5C5221595C09020A431E
:108EB0005321595C09040A4354215B5C1B0613438C
:108EC0001800BD4602B080BD80B582B000AF7860AA
:108ED0007B6849229A5C4A21595C09020A434B216A
:108EE000595C09040A434C215B5C1B0613431800C0
:108EF000BD4602B080BD80B582B000AF78607B68AF
:108F00004D229A5C4E21595C09020A434F21595C5B
:108F100009040A4350215B5C1B0613431800BD463D
:108F200002B080BD80B582B000AF78607B687722E8
:108F30009B5C1800BD4602B080BD80B582B000AF1A
:108F400078607B687A229B5C1800BD4602B080BDC9
:108F500080B582B000AF78607B6879229B5C180096
:108F6000BD4602B080BD80B582B000AF78607B683E
:108F70001A7800210A401A705A7800210A405A7063
:108F80009A7800210A409A70DA7800210A40DA7053
:108F90007B681800BD4602B080BD80B582B000AFCE
:108FA00078607B681800BD4602B080BD80B582B095
:108FB00000AF786039607B683A0010781A78002139
:108FC0000A40111C021C0A431A707A1C10785A7845
:108FD00000210A40111C021C0A435A70BA1C107866
:108FE0009A7800210A40111C021C0A439A70FA1C4C
:108FF0001078DA7800210A40111C021C0A43DA704A
:10900000C046BD4602B080BD80B582B000AF78607A
:109010007B681800BD4602B080BD80B582B000AF4D
:1090200078607B681800BD4602B080BD80B582B014
:1090300000AF78607B68FF221A707B6800225A704C
:109040007B6800229A707B680022DA707B680022BD
:109050001A717B6800225A717B6800229A717B68C2
:109060000022DA717B681A7A00210A401A725A7A51
:1090700000210A405A729A7A00210A409A72DA7ADA
:1090800000210A40DA727B681A7B00210A401A73B9
:109090005A7B00210A405A739A7B00210A409A7336
:1090A000DA7B00210A40DA737B6800221A747B683D
:1090B0001800BD4602B080BD80B582B000AF7860B8
:1090C0007B681800BD4602B080BD80B582B000AF9D
:1090D00078607B68DB791800BD4602B080BD80B542
:1090E00082B000AF78607B683422052199547B6898
:1090F0003B22002199547B683C22002199547B68D3
:109100003D22002199547B683E22002199547B68BE
:109110003522002199547B683622002199547B68BE
:109120003722002199547B683822002199547B68AA
:109130003922002199547B683A22002199547B6896
:109140001A7800210A401A705A7800210A405A7091
:109150009A7800210A409A70DA7800210A40DA7081
:109160007B681A7900210A401A715A7900210A4055
:109170005A719A7900210A409A71DA7900210A40DD
:10918000DA717B681A7A00210A401A725A7A002131
:109190000A405A729A7A00210A409A72DA7A0021B9
:1091A0000A40DA727B681A7B00210A401A735A7BE4
:1091B00000210A405A739A7B00210A409A73DA7B95
:1091C00000210A40DA737B681A7C00210A40111CD6
:1091D000402252420A431A745A7C00210A40111C50
:1091E0001F2252420A435A749A7C00210A409A7400
:1091F000DA7C00210A40DA747B681A7D00210A407B
:109200001A755A7D00210A405A759A7D00210A403C
:109210009A75DA7D00210A40DA757B682422995C10
:109220000020014099542522995C00200140995466
:109230002622995C0020014099542722995C002045
:10924000014099547B682822995C00200140995480
:109250002922995C0020014099542A22995C00201F
:10926000014099542B22995C0020014099547B685D
:109270001A7E00210A40111C602252420A431A76CB
:109280005A7E00210A40111C102252420A435A768B
:109290009A7E00210A409A76DA7E00210A40DA7628
:1092A0007B681A7F00210A40111C142252420A4393
:1092B0001A775A7F00210A40111C702252420A4339
:1092C0005A779A7F00210A409A77DA7F00210A4074
:1092D000DA777B682022995C00200140081C582125
:1092E0004942014399542122995C00200140081C05
:1092F0006121014399542222995C00200140995434
:109300002322995C0020014099547B682C22995CAF
:1093100000200140081C6421014399542D22995CCE
:109320000020014099542E22995C0020014099545C
:109330002F22995C0020014099547B683022995C6F
:109340000020014099543122995C00200140995439
:109350003222995C0020014099543322995C00200C
:10936000014099547B681800BD4602B080BD80B5AD
:1093700082B000AF78607B681800BD4602B080BD47
:1093800090B583B000AF786039607B683A0014789C
:109390002422995C00200140081C211C014399549F
:1093A0007A1C14782522995C00200140081C211C9D
:1093B00001439954BA1C14782622995C002001407C
:1093C000081C211C01439954FA1C14782722995C2B
:1093D00000200140081C211C01439954C046BD4691
:1093E00003B090BD80B582B000AF786039607B6813
:1093F0003A0010781A7900210A40111C021C0A4315
:109400001A717A1C10785A7900210A40111C021C2A
:109410000A435A71BA1C10789A7900210A40111C2B
:10942000021C0A439A71FA1C1078DA7900210A406A
:10943000111C021C0A43DA71C046BD4602B080BD51
:10944000B0B582B000AF786039603A687B68FF21C0
:1094500011400D002821585C00242040041C281CC9
:1094600020435854110AFF2001400D002921585C67
:1094700000242040041C281C20435854110CFF20B9
:1094800001400D002A21585C00242040041C281CA7
:1094900020435854140E2B22995C00200140081CD4
:1094A000211C01439954C046BD4602B0B0BD80B5F1
:1094B00082B000AF786039607B683A0010781A7A21
:1094C00000210A40111C021C0A431A727A1C1078EF
:1094D0005A7A00210A40111C021C0A435A72BA1C13
:1094E00010789A7A00210A40111C021C0A439A72D1
:1094F000FA1C1078DA7A00210A40111C021C0A4377
:10950000DA72C046BD4602B080BD80B582B000AF01
:10951000786039607B683A0010781A7B00210A4035
:10952000111C021C0A431A737A1C10785A7B002102
:109530000A40111C021C0A435A73BA1C10789A7B09
:1095400000210A40111C021C0A439A73FA1C10786D
:10955000DA7B00210A40111C021C0A43DA73C04660
:10956000BD4602B080BD80B582B000AF78600A0011
:10957000FB1C1A707B68FA1C3D2112785A54C046B5
:10958000BD4602B080BD80B582B000AF78600A00F1
:10959000FB1C1A707B68FA1C3E2112785A54C04694
:1095A000BD4602B080BD80B582B000AF78600A00D1
:1095B000FB1C1A707B68FA1C3A2112785A54C04678
:1095C000BD4602B080BD80B582B000AF7860396022
:1095D0007B683A0010781A7E00210A40111C021C98
:1095E0000A431A767A1C10785A7E00210A40111C10
:1095F000021C0A435A76BA1C10789A7E00210A404F
:10960000111C021C0A439A76FA1C1078DA7E00219B
:109610000A40111C021C0A43DA76C046BD4602B05D
:1096200080BD90B583B000AF786039603A687B68E0
:10963000FF2111400C00197F00200140081C211C53
:1096400001431977110AFF2001400C00597F0020C7
:109650000140081C211C01435977110CFF200140D7
:109660000C00997F00200140081C211C01439977C0
:10967000100EDA7F00210A40111C021C0A43DA771F
:10968000C046BD4603B090BD90B583B000AF7860D2
:1096900039607B683A0014782C22995C00200140E4
:1096A000081C211C014399547A1C14782D22995CC2
:1096B00000200140081C211C01439954BA1C147855
:1096C0002E22995C00200140081C211C0143995462
:1096D000FA1C14782F22995C00200140081C211CE0
:1096E00001439954C046BD4603B090BDB0B582B0A9
:1096F00000AF786039603A687B68FF2111400D0047
:109700003021585C00242040041C281C204358545D
:10971000110AFF2001400D003121585C0024204037
:10972000041C281C20435854110CFF2001400D003C
:109730003221585C00242040041C281C204358542B
:10974000140E3322995C00200140081C211C0143A7
:109750009954C046BD4602B0B0BD90B583B000AFCD
:10976000786039607B683A0014782022995C002088
:109770000140081C211C014399547A1C14782122B1
:10978000995C00200140081C211C01439954BA1C1B
:1097900014782222995C00200140081C211C0143FE
:1097A0009954FA1C14782322995C00200140081C6B
:1097B000211C01439954C046BD4603B090BD80B5FD
:1097C00082B000AF78600A00FB1C1A70FB1C19788D
:1097D0007B6835229954C046BD4602B080BD80B535
:1097E00082B000AF78600A00FB1C1A70FB1C19786D
:1097F0007B6836229954C046BD4602B080BD80B514
:1098000082B000AF78600A00FB1C1A70FB1C19784C
:109810007B6837229954C046BD4602B080BD80B5F2
:1098200082B000AF78600A00FB1C1A70FB1C19782C
:109830007B6838229954C046BD4602B080BD80B5D1
:1098400082B000AF78600A00FB1C1A70FB1C19780C
:109850007B6839229954C046BD4602B080BD80B5B0
:1098600082B000AF78600A00FB1C1A707B68FA1C9B
:109870003B2112785A54C046BD4602B080BD80B527
:1098800082B000AF786039607B683A0010781A7D4A
:1098900000210A40111C021C0A431A757A1C107818
:1098A0005A7D00210A40111C021C0A435A75BA1C39
:1098B00010789A7D00210A40111C021C0A439A75F7
:1098C000FA1C1078DA7D00210A40111C021C0A43A0
:1098D000DA75C046BD4602B080BD80B582B000AF2B
:1098E000786039607B683A0010781A7C00210A4061
:1098F000111C021C0A431A747A1C10785A7C00212D
:109900000A40111C021C0A435A74BA1C10789A7C33
:1099100000210A40111C021C0A439A74FA1C107898
:10992000DA7C00210A40111C021C0A43DA74C0468A
:10993000BD4602B080BD80B582B000AF78607B6864
:109940001A7D597D09020A43997D09040A43DB7D8A
:109950001B0613431800BD4602B080BD80B582B01F
:1099600000AF78607B6809331800FFF74DFB7B6818
:1099700000221A707B6800225A707B6800229A705D
:109980007B6803331A7800210A401A705A78002144
:109990000A405A709A7800210A409A70DA780021B9
:1099A0000A40DA707B680022DA717B6800221A7242
:1099B0007B681800BD4602B080BD80B582B000AFA4
:1099C00078607B6809331800FFF727FB7B68180075
:1099D000BD4602B080BD80B582B000AF78607B68C4
:1099E0001B781800BD4602B080BD000090B583B062
:1099F00000AF7860234A7B68FF2111400C00197882
:109A000000200140081C211C01431970110AFF208D
:109A100001400C00597800200140081C211C014322
:109A20005970110CFF2001400C0099780020014072
:109A3000081C211C01439970100EDA7800210A409D
:109A4000111C021C0A43DA707B6809220E499B181C
:109A50003722180011F0F0F87B680C4A40331100EF
:109A60003722180011F0E8F87B6877331800FFF709
:109A70007AFA7B6800221A717B681800BD4603B031
:109A800090BDC04630B1010864AC01089CAC01082F
:109A900090B583B000AF7860194A7B68FF21114010
:109AA0000C00197800200140081C211C014319708A
:109AB000110AFF2001400C00597800200140081CC9
:109AC000211C01435970110CFF2001400C009978B2
:109AD00000200140081C211C01439970100EDA7807
:109AE00000210A40111C021C0A43DA707B6877339C
:109AF0001800FFF752FA7B681800BD4603B090BD0E
:109B000030B1010880B582B000AF786039607B6801
:109B100005333A0010781A7800210A40111C021C03
:109B20000A431A707A1C10785A7800210A40111CD6
:109B3000021C0A435A70BA1C10789A7800210A4015
:109B4000111C021C0A439A70FA1C1078DA78002162
:109B50000A40111C021C0A43DA70C046BD4602B01E
:109B600080BD90B587B000AFF860B960BB1D1A80AA
:109B70001623FB18BA6812881A801423FB180122D6
:109B80001A8020E014217B1800229B5E5B00BA68DB
:109B9000D31800229B5E16203A180024125F9A42C6
:109BA00008DA7B1800229B5E5B00BA68D2183B186B
:109BB00012881A8014217B1800229B5E9BB201330D
:109BC0009AB27B181A801423FA18BB1D0021525E2A
:109BD00000215B5E9A42D5DB1623FB1800229B5EB8
:109BE0001800BD4607B090BD90B583B000AF786057
:109BF0007B681800FFF7FAFEFE4A7B68FF211140E0
:109C00000C00197800200140081C211C0143197028
:109C1000110AFF2001400C00597800200140081C67
:109C2000211C01435970110CFF2001400C00997850
:109C300000200140081C211C01439970100EDA78A5
:109C400000210A40111C021C0A43DA707B68E522DD
:109C50009B1819220021180010F0BCFF7B68FE221F
:109C60009B180D220021180010F0B4FF7A680C2315
:109C7000FF33D15C00200140081C08210143D1546E
:109C8000D118487800242040041C07202043487045
:109C9000D1188878002420408870D318DA78002101
:109CA0000A40DA707A681023FF33D15C002001404B
:109CB000D154D1184878002420404870D1188878B1
:109CC000002420408870D318DA7800210A40DA7026
:109CD0007A686023FF330021D1547A68B0235B0097
:109CE0000021D1547A686223FF330021D1547A686D
:109CF000B1235B000021D1547A686423FF33002133
:109D0000D1547A686823FF330021D1547A68B42390
:109D10005B000121D1547A686A23FF330021D154BA
:109D20007A68B5235B000021D1547A686C23FF3335
:109D30000021D1547A68B6235B000021D1547A689F
:109D40003423FF33D15C00200140D154D11848782E
:109D5000002420404870D118887800242040887062
:109D6000D318DA7800210A40DA707A68B2235B00EF
:109D70000021D1547A683823FF33D15C00200140A0
:109D8000D154D1184878002420404870D1188878E0
:109D9000002420408870D318DA7800210A40DA7055
:109DA0007A683C23FF33D15C00200140081C40212D
:109DB00049420143D154D118487800242040041C62
:109DC0001F20404220434870D1188878002420404A
:109DD0008870D318DA7800210A40DA707A686E2326
:109DE000FF330021D1547A686623FF330021D15418
:109DF0007A681423FF33D15C00200140081C5821ED
:109E000049420143D154D118487800242040041C11
:109E1000612020434870D118887800242040887041
:109E2000D318DA7800210A40DA707A681823FF33F1
:109E3000D15C00200140081C602149420143D154FB
:109E4000D118487800242040041C102040422043B0
:109E50004870D1188878002420408870D318DA78A8
:109E600000210A40DA707A681C23FF33D15C00209D
:109E70000140D154D1184878002420404870D118AE
:109E80008878002420408870D318DA7800210A40AE
:109E9000DA707A682023FF33D15C00200140D1546E
:109EA000D1184878002420404870D11888780024C0
:109EB00020408870D318DA7800210A40DA707A6876
:109EC0002423FF33D15C00200140D154D1184878BD
:109ED000002420404870D1188878002420408870E1
:109EE000D318DA7800210A40DA707A682823FF3321
:109EF000D15C00200140D154D11848780024204082
:109F00004870D1188878002420408870D318DA78F7
:109F100000210A40DA707A682C23FF33D15C0020DC
:109F20000140D154D1184878002420404870D118FD
:109F30008878002420408870D318DA7800210A40FD
:109F4000DA707A68B3235B000021D1547A68402329
:109F5000FF33D15C00200140D154D118487800244F
:109F600020404870D1188878002420408870D31889
:109F7000DA7800210A40DA707A683023FF33D15C46
:109F800000200140D154D118487800242040487066
:109F9000D1188878002420408870D318DA780021FE
:109FA0000A40DA707A684823FF33D15C0020014010
:109FB000D154D1184878002420404870D1188878AE
:109FC000002420408870D318DA7800210A40DA7023
:109FD0007A684C23FF33D15C00200140D154D11862
:109FE0004878002420404870D11888780024204008
:109FF00002E0C04698B301088870D318DA780021CF
:10A000000A40DA707A685023FF33D15C00200140A7
:10A01000D154D1184878002420404870D11888784D
:10A02000002420408870D318DA7800210A40DA70C2
:10A030007A685423FF33D15C00200140D154D118F9
:10A040004878002420404870D118887800242040A7
:10A050008870D318DA7800210A40DA707A685823B9
:10A06000FF33D15C00200140D154D118487800243E
:10A0700020404870D1188878002420408870D31878
:10A08000DA7800210A40DA707A685C23FF33D15C09
:10A0900000200140D154D118487800242040487055
:10A0A000D1188878002420408870D318DA780021ED
:10A0B0000A40DA707A68B7235B000021D1547A68CD
:10A0C0007023FF330021D1547A68B8235B0000214C
:10A0D000D1547B681800BD4603B090BD90B583B0E5
:10A0E00000AF7860194A7B68FF2111400C00197895
:10A0F00000200140081C211C01431970110AFF2097
:10A1000001400C00597800200140081C211C01432B
:10A110005970110CFF2001400C009978002001407B
:10A12000081C211C01439970100EDA7800210A40A6
:10A13000111C021C0A43DA707B681800FFF7A8FCA8
:10A140007B681800BD4603B090BDC04698B30108B7
:10A15000B0B584B000AF0200BB1D1A80BB1D1A88C9
:10A1600080231B029A4224D1144B1868134B1B689E
:10A170001A78597809020A43997809040A43DB7866
:10A180001B0613434C331B680F257C1998470300AB
:10A1900023707B191B78032B03D97B191B78062BA3
:10A1A00007D980235A010649064B1800FBF787FEA2
:10A1B000FFE7C046BD4604B0B0BDC046E005002084
:10A1C000000400500005002080B584B000AF786026
:10A1D0007B681B7F022B00D06EE0394B1B78002B75
:10A1E0000CD17B68042118000DF0E0FB03009AB24B
:10A1F000344B1A80324B01221A705DE07B680421D7
:10A2000018000DF0D3FB03009AB22F4B1A802E4B8F
:10A210001A882C4B1B889A4208D92B4B1988294B3A
:10A220001A880E23FB188A1A1A8009E0264B1A880E
:10A23000244B1B88D31A9AB20E23FB18013A1A80BA
:10A240000E22BB181B880C2B2FD9BB181B88222B66
:10A250002BD8BB181B881900FA239800F5F7DEFFEE
:10A2600003001A000D217B181A707B181B789AB214
:10A27000164B1B88D3189AB2144B1A80144B1B78B8
:10A280000133DAB2124B1A70114B1B78102B0CD120
:10A290000E4B1B881B099BB2DAB20E4B1A700B4B8C
:10A2A00000221A800A4B00221A707B681B68002269
:10A2B0005A62034B00221A70C046BD4604B080BDEE
:10A2C0005D21002056210020582100205A21002025
:10A2D0005C2100205E21002080B584B002AFFB1D10
:10A2E00000221A7002F0BEF800F0A2F827480023FE
:10A2F000009300230022002108F0D8FD03005A1E1D
:10A300009341DBB2002B02D0FB1DFF221A701F4BC2
:10A3100000220121180009F0EFF803005A1E9341B2
:10A32000DBB2002B02D0FB1DFF221A70174B00225C
:10A330000321180008F02AFE03005A1E9341DBB2E5
:10A34000002B02D0FB1DFF221A70104B180008F0E2
:10A3500055FE03005A1E9341DBB2002B02D0FB1DB9
:10A36000FF221A70094B180008F068FE03005A1EFD
:10A370009341DBB2002B02D0FB1DFF221A70FB1DA4
:10A380001B785BB21800BD4602B080BD04290020D6
:10A3900090B58FB000AFF860B960FB1D1A7014243F
:10A3A0003B1924220021180010F014FC21007B1816
:10A3B000FA681A60FA6880231B019A4204D37B185A
:10A3C0008022D2055A6003E01423FB1800225A6051
:10A3D00014217B1800229A60FB1D1B781B041A00B5
:10A3E0007B18DA607B18802212061A617B18002223
:10A3F0005A617B1800229A617B180022DA617B186F
:10A4000000221A62BA687918084B180008F03CFE5E
:10A4100003005A1E9341DBB2002B02D001235B42A2
:10A4200000E000231800BD460FB090BD04290020B5
:10A4300080B586B000AF3B00180018231A00002139
:10A4400010F0C8FB3B008022D2051A603B000022BE
:10A450005A603B0002229A603B000122DA603B0016
:10A4600000221A613B0000225A613A00084B110099
:10A47000180008F003FC03005A1E9341DBB2002BC6
:10A4800001D002F071FAC046BD4606B080BDC0469C
:10A4900004290020F0B58FB000AF78603960102536
:10A4A0007B1928220021180010F094FB0826BB1904
:10A4B00000221A6000225A6080239A00A023DB0544
:10A4C0001100180009F02CFEBB197A197868402198
:10A4D00008F020FF03005A425341DBB2002B1BD08F
:10A4E0000F4B1B68002B17D00D4B18680C4B1B68CB
:10A4F0001A78597809020A43997809040A43DB78E3
:10A500001B0613430C331C687B1919687B19DB6825
:10A510001B0CDBB2BA19A047C046BD460FB0F0BD58
:10A52000E005002080B500AF05F0E4FF02F0BCF9C3
:10A5300002F054F802F014FC154B042118000CF042
:10A5400045F810F0C9F9134B134A1A60114B1B68F8
:10A55000002B18D00F4B18680E4B1B681A785978CF
:10A5600009020A43997809040A43DB781B0613435E
:10A570001B680A4A11009847064B1B68074A1100DE
:10A580001800FFF7BFFA00F049F80EF0A7FAFEE74F
:10A590004C2A0020E0050020E4050020D40500201E
:10A5A00080B582B000AF7860054B1B78012B03D1DA
:10A5B000044B1800F8F7A4FF282005F0D7FFF3E7B5
:10A5C0004F2100200002002080B584B004AF80231A
:10A5D0005A0007490748084B0293084B019301238F
:10A5E000009300230EF053FFC046BD4680BDC04619
:10A5F000D4AC0108A1A50008581F0020580700206E
:10A6000080B582B000AF7860034B1800F8F718FEF1
:10A61000C046BD4602B080BD0002002080B500AF3C
:10A62000FFF7D2FF01F024FC01F0EAFB01F004FC8B
:10A6300001F03AFCC046BD4680BD80B500AFC046C3
:10A64000BD4680BDB0B500AF394B1B78272B27D84E
:10A65000384B1B78002B07D1364B01221A7005F0BE
:10A660007BFF0200344B1A60334B1B68334A9C1843
:10A6700005F072FF03009C429B415B42DBB2002B62
:10A680001AD02F4B1B68802292041A432C4B1A605D
:10A690002B4B1B68802252051A43294B1A600BE092
:10A6A000274B1B68274A1A40254B1A60224B002271
:10A6B0001A60204B00221A701D4B1B78502B27D993
:10A6C0001C4B1B78002B07D11A4B01221A7005F086
:10A6D00043FF0200184B1A60174B1B68174A9C185F
:10A6E00005F03AFF03009C429B415B42DBB2002B2A
:10A6F0001AD0134B1B68802252041A43104B1A6065
:10A700000F4B1B68802252051A430D4B1A600BE059
:10A710000B4B1B680C4A1A40094B1A60064B00226F
:10A720001A60044B00221A70C046BD46B0BDC04638
:10A730005E21002064210020602100208813000099
:10A7400040210020FFFFFFFDFFFFFFFEB0B588B0F6
:10A7500000AF724B1868714B1B681A785978090260
:10A760000A43997809040A43DB781B061343143320
:10A770001B683A1D010010009847684B1868674B2A
:10A780001B681A78597809020A43997809040A4320
:10A79000DB781B06134320331B681F22BC18984725
:10A7A000030023701E243B1900221A705B4B1868AB
:10A7B0005A4B1B681A78597809020A439978090498
:10A7C0000A43DB781B0613433C331B6825003C1906
:10A7D0009847030023707B191B78FF2B07D1504B40
:10A7E0001800FEF750FB031E01D1012300E00023F7
:10A7F000002B5FD01F23FB181B78182B06D9494B61
:10A8000000221A60484B00221A7083E0464B012256
:10A810001A703B1D1B881A001F243B191B785343D9
:10A820001A00424B11001800FEF7CDFE3B1D5B885D
:10A830001A003B191B785A433C4B11001800FEF7D5
:10A84000F0FE3B1D0A229B5E1A00384B11001800D7
:10A85000FEF71AFF3B1D0C229B5E1A00334B1100C2
:10A860001800FEF743FF3B1D5A68304B11001800DB
:10A87000FEF773FF3B1D1A89E1231B019A4209D39E
:10A880003B1D1B892A4A934204D8264BE122120120
:10A890001A603FE03B1D1A89C8231B019A4239D830
:10A8A0003B1D1B89234A934234D91E4BC8221201F7
:10A8B0001A602FE0194B1868184B1B681A785978E2
:10A8C00009020A43997809040A43DB781B061343FB
:10A8D0004C331B681D257C199847030023707B1996
:10A8E0001B78052B16D97B191B780A2B12D01E2337
:10A8F000FB181B78FF2B07D00F4B1B68802212031D
:10A900001A430D4B1A6005E00B4B1B680B4A1A40AB
:10A91000094B1A60BD4608B0B0BDC046E005002036
:10A920005805002034210020532100200405002078
:10A9300067100000280A000040210020FFFFF7FFF9
:10A9400080B582B000AF78607B68002B17D00F4BCA
:10A950001B687A689A4209D90C4B1B6864331A0049
:10A960000A4B1A600A4B00221A7008E0074B7A68FB
:10A970001A60074B01221A70064B01221A70034B12
:10A980001B681800BD4602B080BDC0463C210020B7
:10A99000522100204E21002080B584B000AF02007B
:10A9A0003960BB1D1A800023FB60BB1D00229B5E2B
:10A9B0005A2B18DDBB1D00229B5E5A3B1A003B68D8
:10A9C0005A4313009B009B185B0064211800F5F7A5
:10A9D0009BFB0300FB60FA683B689A4201D93B6825
:10A9E00000E0FB68FB60FB681800BD4604B080BD5A
:10A9F00080B584B000AF78607B68FB600B4B1B6850
:10AA00000B4A934201DDFB680BE0084B1B68180002
:10AA100001F0B2FA0300FB60044B1A68054B1A60A0
:10AA2000FB681800BD4604B080BDC0464821002028
:10AA300020BF020068210020B0B588B000AF786068
:10AA4000B64B1B78012B00D063E1B54B1868B44BB3
:10AA50001B681A78597809020A43997809040A434D
:10AA6000DB781B06134318331B68984703005A42D0
:10AA70005341DBB2002B00D04BE1AA4B1800F9F791
:10AA8000F3FAA74B1D68A64B1B681A785978090280
:10AA90000A43997809040A43DB781B0613437C3385
:10AAA0001C68A04B1800FEF7EEF9030019002800FF
:10AAB000A0479C4B1800FEF707FA03007B61994BF7
:10AAC0001800FEF718FA0300FB61974B1B78012B67
:10AAD0000AD1964B1B78012B06D1954B1B681800A9
:10AAE000FFF786FF0300FB61914B1B68FA699A42EE
:10AAF00006D98F4B1B6864331A008D4B1A6002E035
:10AB00008B4BFA691A608A4B1C688A4B00229A5E4A
:10AB1000874B1B6819001000FFF73EFF0300E31A84
:10AB20003B61834B1B683A699A4208D2824B0122EF
:10AB30001A7005F011FD0200804B1A6016E07F4B81
:10AB40001B68002B12D07D4B1B687D4A9C1805F0BA
:10AB500003FD03009C429B415B42DBB2002B05D00E
:10AB6000754B00221A70754B00221A606C4B1868E6
:10AB70006B4B1B681A78597809020A4399780904C3
:10AB80000A43DB781B06134388331B686A4A127832
:10AB9000110098473B691800FFF7D2FE0300BB6124
:10ABA000BB69002B2BD05F4B1800FEF76CF903003C
:10ABB000043B5A425341DBB2002B14D05A4B1B7852
:10ABC000012B02D15F4BBB6101E05F4BBB61554B79
:10ABD0001800FEF758F903001A00B9695B4B18001A
:10ABE000FAF74CFD16E04F4B1800FEF74CF9030046
:10ABF0001A00B969554B1800FAF740FD0AE0494BB5
:10AC00001800FEF740F903001A00504B002118000D
:10AC1000FAF734FD434B1800FEF735F903001A002C
:10AC200079694A4B1800FAF7C7FD3D4B18683C4B51
:10AC30001B681A78597809020A43997809040A436B
:10AC4000DB781B0613434C331B680F257C19984790
:10AC500003002370334B1800FEF77AF90300012B31
:10AC600017D1304B1800FEF75DF9031E11D1384B98
:10AC70001B68002B0DD1374B1B68002B09D17B19AA
:10AC80001B78052B05D97B191B78082B01D80123CC
:10AC900000E00023002B2DD02F4B1800FEF715FAF3
:10ACA00003005A425341DBB2002B05D02B4B01214C
:10ACB0001800FDF7BFF82CE0294B1B78062B09D1B3
:10ACC000284B1B78432B05D1244B01211800FDF79D
:10ACD000B1F81EE0134B1800FEF7D5F803001A0078
:10ACE0001A4B00211800FAF7C9FC1C4B1800FDF79D
:10ACF00005F90EE00B4B1800FEF7C5F803001A002B
:10AD0000124B00211800FAF7B9FC144B1800FDF79C
:10AD1000F5F8642005F02AFC92E6C0464F21002099
:10AD2000E005002058050020512100204E21002080
:10AD3000382100204C210020502100206C210020CF
:10AD4000B80B00001027000088130000FC0400204E
:10AD5000402100204421002044050020D40500208B
:10AD6000552100205421002080B582B000AF7860CA
:10AD7000054B1B78012B03D1044B1800FBF736FA67
:10AD8000642005F0F3FBF3E74F21002004050020C9
:10AD9000B0B500AF174B1B68174A934223DC174B23
:10ADA00018000FF0A0FD03005A1E9341DBB2002BE8
:10ADB00008D005F0D1FB0200114B1A600F4B1800B0
:10ADC0000FF09EFD0E4B1B680E4A9C1805F0C4FB4D
:10ADD00003009C429B415B42DBB2002B06D00A4B36
:10ADE00001221A7002E0084B00221A70C046BD46CC
:10ADF000B0BDC046482100201FBF020074210020C2
:10AE0000702100208813000051210020B0B500AF50
:10AE10002C4B1800FEF759F9031E05D12A4B1B785D
:10AE2000002B01D1012300E00023002B0DD0274B84
:10AE30001B78062B09D1264B1B78432B05D1234BBE
:10AE400000221A70224B00221A70224B1A68224BE1
:10AE50001B68134304D11C4B1B78012B00D0AEE2BE
:10AE6000184B1800FEF731F90300013B5A425341D9
:10AE7000DBB2002B00D0A9E2154B1B78422B03D18B
:10AE8000124B1B78052B07D0114B1B78432B0AD193
:10AE90000E4B1B78082B06D10A4B0022002118000C
:10AEA000FAF75AFF28E00A4B1B78432B16D1074BC1
:10AEB0001B78012B12D1034B002202211800FAF754
:10AEC0004BFF19E0440500205021002055210020AF
:10AED000542100204021002044210020A34B1B7856
:10AEE000452B09D1A24B1B78042B05D1A14B002285
:10AEF00004211800FAF730FF00F0F2FF9E4B1B68A8
:10AF0000012213400BD09D4B9D4A1A60974B502253
:10AF10001A70974B01221A709A4B9B4A1A60964BF3
:10AF20001B68022213400BD0944B984A1A608F4B37
:10AF300050221A708E4B02221A70924B924A1A605B
:10AF40008D4B1B68042213400BD08C4B904A1A6027
:10AF5000864B50221A70864B03221A70894B8A4AFC
:10AF60001A60854B1B68082213400ED0834B894A18
:10AF70001188198092789A707C4B50221A707C4B01
:10AF800004221A707F4B804A1A607B4B1B68102288
:10AF900013400BD0794B804A1A60744B50221A70C0
:10AFA000734B05221A70774B774A1A60724B1B68F5
:10AFB000202213400BD0714B774A1A606B4B502202
:10AFC0001A706B4B06221A706E4B6F4A1A60734BE5
:10AFD0001B68734A13400ED0684B724A118819805F
:10AFE00092789A70614B45221A70614B05221A7053
:10AFF000644B6D4A1A60694B1A6880235B041340E6
:10B000000BD05E4B694A1A60584B45221A70584B58
:10B0100001221A705B4B644A1A60604B1A688023E5
:10B020009B0413400BD0554B604A1A604F4B45228E
:10B030001A704F4B02221A70524B5B4A1A60574BE0
:10B040001B682022134025D0494B1B78002B15D0BC
:10B05000464B1B78002B11D0454B1B78092B03D096
:10B06000434B1B78032B03D1404B1B78432B05D05C
:10B07000404B012202211800FAF76EFE3F4B4C4A6A
:10B080001A603A4B43221A70394B01221A703D4B19
:10B09000454A1A60414B1B68402213400BD0374B86
:10B0A000444A1A60314B42221A70314B01221A7005
:10B0B000344B354A1A60394B1A6880235B021340BF
:10B0C0000BD02E4B3C4A1A60284B43221A70284B57
:10B0D00002221A702B4B344A1A60384B18000FF0BA
:10B0E00002FC03005A1E9341DBB2002B08D005F08E
:10B0F00033FA0200324B1A60304B18000FF000FC9C
:10B10000264B1B688022134064D0244B1B682D4AB9
:10B11000134067D12C4B1B78002B07D105F01CFA8C
:10B120000200274B1A60284B01221A70244B1B681F
:10B13000264A9C1805F010FA03009C429B415B4292
:10B14000DBB2002B4ED00D4B214A1A60074B452233
:10B150001A70074B04221A700A4B134A1A60054BE7
:10B16000012204211800FAF7F7FD3BE054210020EA
:10B170005521002044050020442100202C000020FF
:10B180005052450030210020C0D40100434331001B
:10B1900043433200E4AC0108435049004021002001
:10B1A00000040400E8AC010860EA000046525100C7
:10B1B00043555600424F5600434F56008021002011
:10B1C0007C21002058050C00782100208813000005
:10B1D00042444300804B00221A7005F0BDF9020082
:10B1E0007E4B1A607E4B1A6880231B0113400BD0E4
:10B1F0007C4B7D4A1A607D4B43221A707C4B0322A4
:10B200001A707C4B7C4A1A60754B1A6880239B002D
:10B2100013400BD0734B794A1A60744B43221A7057
:10B22000734B04221A70734B734A1A606C4B1A6882
:10B2300080235B0313400BD06A4B714A1A606B4B3F
:10B2400042221A706A4B02221A706A4B6D4A1A60C7
:10B250006D4B1B78012B0CD1624B6C4A1A60634B0F
:10B2600043221A70624B06221A70624BFA22D200F5
:10B270001A605B4B1B68042213400BD0594B644A85
:10B280001A605A4B43221A70594B07221A70594BB5
:10B290005C4A1A60524B1B680222134011D0514B7A
:10B2A0005C4A1A60514B43221A70514B08221A70A3
:10B2B000504B544A1A60584B012200211800FAF7EB
:10B2C0004BFD474B1B68102213400BD0454B534A94
:10B2D0001A60464B42221A70454B04221A70454BA5
:10B2E000484A1A603E4B1B680822134011D03D4B60
:10B2F0004B4A1A603D4B42221A703D4B05221A7090
:10B300003C4B404A1A60444B012200211800FAF7D6
:10B3100023FD334B1A6880231B0513400BD0314BA0
:10B32000404A1A60314B45221A70314B06221A707E
:10B33000304B344A1A602A4B1A688023DB041340CE
:10B340000BD0284B384A1A60284B43221A70284BDE
:10B3500009221A70274B2B4A1A60214B1A68802346
:10B360001B0313400ED01F4B304A1188198092786E
:10B370009A701E4B45221A701D4B03221A701D4BEA
:10B380002B4A1A60194B1B78002B0BD0184B1B78DB
:10B39000002B07D0274B1800FDF7C4FD031E01D179
:10B3A000012300E00023002B12D0104B1978104B22
:10B3B0001A78104B1B681848FAF702FC08E0094B92
:10B3C0001D4A1188198092789A7002E0C04600E008
:10B3D000C046BD46B0BDC046782100207C2100207B
:10B3E000402100202C00002041555600542100200F
:10B3F000552100203021002060EA0000414F560016
:10B40000434F4300C0D40100502100204344540066
:10B4100043555400434F5400440500204255540006
:10B42000424F54005245560053435400ECAC0108BF
:10B430008813000058050020F0AC0108B0B586B0B4
:10B4400000AF7860784B1B78012B00D0A2E0FFF7AB
:10B450007DF905F081F80200744B1B6893429B4113
:10B460005B42DBB2002B00D180E07149714B40227E
:10B470001800FAF73AFD80239A00A023D9056D4BF6
:10B480001800FAF732FD05F067F80300FA2292007F
:10B490009A18664B1A60684B1800FDF716FE0300F9
:10B4A0005A425341DBB2002B60D0644B1800FDF7C9
:10B4B00039FD0300013B5A425341DBB2002B0AD055
:10B4C0005D4B012201211800FAF746FC5A4B180087
:10B4D000FAF7E8FB4AE05A4B1868594B1B681A7890
:10B4E000597809020A43997809040A43DB781B0654
:10B4F00013434C331B6817257C19984703002370AE
:10B500007B191B78052B05D84B4B00211800FAF747
:10B5100013FB2BE01722BB181B78072B03D0BB189B
:10B520001B78062B05D1444B01211800FAF704FBC8
:10B530001CE01723FB181B78082B17D1404B186809
:10B540003F4B1B681A78597809020A439978090415
:10B550000A43DB781B0613431C331B689847030020
:10B560001A00354B11001800FAF790FAFFF765F84A
:10B57000FFF768F8FFF70CFCFFF748FC2E4B1800AC
:10B58000FAF71EFA2F4B1800FCF710FC2A4B180094
:10B59000FAF733FC0C243B19180008231A00002189
:10B5A0000FF018FB3B1924221A70274B1B686421EB
:10B5B0001800F4F7A9FD0300DAB23B199A70234B87
:10B5C0001B785AB23B195A71214B1B785AB23B195E
:10B5D0009A71204B00229B5E5AB23B191A711E4B86
:10B5E0001B6864211800F4F78FFD0300DAB23B19E1
:10B5F000DA701A4B1B68FA2291001800F4F70EFE5D
:10B600000300DAB23B195A703B192322DA713B1955
:10B61000134808221900FEF7BBFEFA235B0018004E
:10B6200004F0A4FF0EE7C0464F2100208421002033
:10B6300000080050000500204405002058050020A7
:10B64000E0050020D40500202821002055210020FD
:10B65000542100204C2100202421002048210020DA
:10B66000FF01000090B585B000AF7860FD4B180079
:10B67000F9F7EEFFFC4B1800F7F7B6FDFB4B18008F
:10B68000F8F77EFBFA4B1800FAF780FCF94AFA4B00
:10B6900011001800FAF766F9F74B1800FAF736FBB5
:10B6A000F64B01221A70C82004F060FFF44B1B68AF
:10B6B000002B10D0F24B1868F14B1B681A785978A0
:10B6C00009020A43997809040A43DB781B061343ED
:10B6D00004331B689847E44B1800FDF770F802002C
:10B6E000E84B1A60E84BE94A1A60DF4B1800FDF797
:10B6F00079F80200E64B1A60DB4B1800FDF785F87D
:10B7000003001A00E34B1A60DD4B1868DC4B1B6822
:10B710001A78597809020A43997809040A43DB78B0
:10B720001B06134328331B6898470200CF4B1100B8
:10B730001800FDF73FFAD44B1A68CC4B11001800E3
:10B74000FDF796FACF4B1A68C84B11001800FDF7A9
:10B75000BEFAD04B1B681A00C44B11001800FDF74D
:10B76000E5FACD4B1A78C14B11001800FDF70DFB1F
:10B77000CA4B1B689AB2BD4B11001800FDF715FBB0
:10B78000BF4B1868BE4B1B681A78597809020A43E8
:10B79000997809040A43DB781B06134320331B689E
:10B7A000984703001A00B14B11001800FDF71CFB6D
:10B7B000B34B1868B24B1B681A78597809020A43D0
:10B7C000997809040A43DB781B06134334331B685A
:10B7D00098470300DAB2A54B11001800FDF714FBDF
:10B7E000A74B1868A64B1B681A78597809020A43B8
:10B7F000997809040A43DB781B06134330331B682E
:10B8000098470200994B11001800FDF702FA9C4B73
:10B8100018689B4B1B681A78597809020A43997873
:10B8200009040A43DB781B06134348331B68984717
:10B8300002008E4B11001800FDF7F6FA904B1868C5
:10B840008F4B1B681A78597809020A4399780904C2
:10B850000A43DB781B06134330331B68984702000A
:10B86000834B11001800FEF738F8854B1868844B9D
:10B870001B681A78597809020A43997809040A431F
:10B88000DB781B06134330331B6898470200754B67
:10B8900011001800FDF78AFB08243B191800082343
:10B8A0001A0000210FF096F96F4B1800FCF7D1FF3A
:10B8B00003000A3B9BB21AB23B191A806A4B18006C
:10B8C000FCF7B6FF03000A3B9BB21AB23B195A8041
:10B8D000654B1800FCF7CEFF0300283B9BB21AB261
:10B8E0003B199A80604B1800FCF7D5FF03001AB291
:10B8F0003B19DA80624B1B68391904221800FEF7E5
:10B9000030F903001A00664B1A805D4B18685C4BD7
:10B910001B681A78597809020A43997809040A437E
:10B92000DB781B06134380331B685D4A0021525E9F
:10B93000110098475A4B00229B5E1A004C4B110095
:10B940001800FDF77DFD504B1A68494B1100180097
:10B95000FDF7ADFD4B4B1A68454B11001800FDF784
:10B96000D4FD4C4B1B681A00414B11001800FAF72C
:10B97000CFFA3F4B32211800FDF715FE404B1868F7
:10B980003F4B1B681A78597809020A4399780904D1
:10B990000A43DB781B06134324331B6898470300D4
:10B9A0001A00334B11001800FDF7EAFC344B1868FD
:10B9B000334B1B681A78597809020A4399780904AD
:10B9C0000A43DB781B06134328331B6898470200A1
:10B9D000274B11001800FDF705FD244B1800FDF75B
:10B9E000ACFA03001A00224B11001800FDF7BBFD52
:10B9F0002C4B1800FDF7EFFF03001A001C4B110041
:10BA00001800FDF7C0FD1E4B18681D4B1B681A7807
:10BA1000597809020A43997809040A43DB781B061E
:10BA2000134370331A68184B1B6819009047144B66
:10BA30001868134B1B681A78597809020A439978D9
:10BA400009040A43DB781B06134374331A680D4B51
:10BA50001B68190090470A4B1868094B1B681A7835
:10BA600022E0C046FC04002000020020580500200F
:10BA70000405002000050020440500204F2100207F
:10BA8000E0050020282100202C21002008CF000004
:10BA900024210020482100205321002034210020AF
:10BAA0004C210020D4050020597809020A439978D6
:10BAB00009040A43DB781B06134354331B68984779
:10BAC000B84B1868B74B1B681A78597809020A43B3
:10BAD000997809040A43DB781B06134350331B682B
:10BAE0009847B04B1868AF4B1B681A785978090211
:10BAF0000A43997809040A43DB781B061343383359
:10BB00001B68984703001A00A74B11001800FDF7A7
:10BB1000A6FEA44B1868A34B1B681A785978090233
:10BB20000A43997809040A43DB781B061343583308
:10BB30001B68984703001A009B4B11001800FDF783
:10BB40003EFE984B1868974B1B681A785978090283
:10BB50000A43997809040A43DB781B0613435C33D4
:10BB60001B68984703001A008F4B11001800FDF75F
:10BB700036FE8C4B18688B4B1B681A785978090273
:10BB80000A43997809040A43DB781B0613436033A0
:10BB90001B68984703001A00834B11001800FDF73B
:10BBA0002EFE804B18687F4B1B681A785978090263
:10BBB0000A43997809040A43DB781B06134364336C
:10BBC0001B68984703001A00774B11001800FDF717
:10BBD00026FE744B1868734B1B681A785978090253
:10BBE0000A43997809040A43DB781B061343683338
:10BBF0001B68984703001A006B4B11001800FDF7F3
:10BC00001EFE6A4B1B681B0E1A06684B1A60664BB9
:10BC10001800FDF790FE0300654A1A40634B1B684D
:10BC20001A43624B1A60634B1800FDF736F90200A5
:10BC3000614B1A605B4B18685A4B1B681A7859782D
:10BC400009020A43997809040A43DB781B06134367
:10BC500084331A68554B1B6819009047514B18687C
:10BC6000504B1B681A78597809020A4399780904DD
:10BC70000A43DB781B0613434C331B6898470300C9
:10BC8000013B5A425341DBB2002B41D0474B1A686B
:10BC900080239B00134016D1444B1A6880231B015C
:10BCA000134010D1414B1A6880231B0513400AD161
:10BCB0003E4B1A688023DB04134004D13B4B1B68C6
:10BCC0000222134012D0374B1868364B1B681A7883
:10BCD000597809020A43997809040A43DB781B065C
:10BCE000134378331B680121984711E02D4B1868E6
:10BCF0002C4B1B681A78597809020A439978090471
:10BD00000A43DB781B06134378331B6800219847EE
:10BD1000244B1868234B1B681A78597809020A4388
:10BD2000997809040A43DB781B0613434C331B68DC
:10BD3000984703000A3B5A425341DBB2002B16D00E
:10BD4000184B1868174B1B681A78597809020A4370
:10BD5000997809040A43DB781B06134340331B68B8
:10BD600098470200114B1B681A43104B1A600D4B89
:10BD700018680C4B1B681A78597809020A4399789D
:10BD800009040A43DB781B06134344331B689847B6
:10BD90000200094B1B681A43074B1A60642004F029
:10BDA000E5FB83E4E005002004050020402100209D
:10BDB000FFFFFFF0580500204421002080B500AFB0
:10BDC0000D4B1B78012B14D10C4B1B68002B10D092
:10BDD0000A4B1868094B1B681A78597809020A43FC
:10BDE000997809040A43DB781B06134310331B6858
:10BDF0009847C046BD4680BD4F210020E005002089
:10BE000080B584B004AF80235A0007490748084B27
:10BE10000293084B01930123009300230DF037FB9D
:10BE2000C046BD4680BDC046F4AC010869AD0008FF
:10BE3000102000205813002080B584B004AF802368
:10BE40005A0007490748084B0293084B0193012306
:10BE5000009300230DF01BFBC046BD4680BDC046CD
:10BE60000CAD01083DB400086C20002058170020DC
:10BE700080B584B004AF80235A0007490748084BB7
:10BE80000293084B01930123009300230DF0FFFA66
:10BE9000C046BD4680BDC04624AD010839AA000891
:10BEA000C8200020581B002080B584B004AF802338
:10BEB0009A0007490748084B0293084B0193012356
:10BEC000009300230DF0E3FAC046BD4680BDC04696
:10BED00040AD010865B60008B41F0020580B0020D3
:10BEE00080B500AF1B4B1B68DB00DA0880235B05C5
:10BEF0009A422BD1184B00221A70184B00221A704C
:10BF0000144B00221A60164B00211800FDF7B7FCF5
:10BF1000144B1868134B1B681A78597809020A43A6
:10BF2000997809040A43DB781B0613436C331B68BA
:10BF3000002198470C4B00221A600C4B00221A700B
:10BF40000B4B00221A700B4B00221A60C046BD46F4
:10BF500080BDC046402100205521002054210020F2
:10BF600004050020E0050020382100205221002097
:10BF70004E2100203C21002080B584B000AF7860C5
:10BF8000244B1868234B1B681A78597809020A4316
:10BF9000997809040A43DB781B06134334331B6882
:10BFA0009847020013005B019B1A9B009B18DB0063
:10BFB000FB600B23FB1800221A7020E00B217B187A
:10BFC0001A78154BD200D3587A689A4211D97B1847
:10BFD0001B78114ADB00D31804331B686422D31A80
:10BFE000FA68534364211800F4F78EF80300FB60ED
:10BFF0000AE00B217B181A787B1801321A700B2388
:10C00000FB181B780E2BD9D9FB681800BD4604B06D
:10C0100080BDC046E00500203000002080B582B021
:10C0200000AF786039607B68012B23D13B68274AD9
:10C0300093421FD1264B1800FCF738FB254B180004
:10C04000FCF791FF244B1800FCF7DEFF234B180090
:10C05000FDF745F8224B1800FCF7E8FF214B1800CC
:10C06000FCF72AFC204B1800FDF778FC1F4B18004A
:10C07000FDF7BAFD7B68002B23D13B68134A93423E
:10C080001FD11A4B1800FEF729F8174B1800FDF7BF
:10C0900094FC144B1800FCF784FD114B1800FDF7BD
:10C0A0000BF80E4B1800FDF762F90B4B1800FCF76C
:10C0B000B4FF084B1800FCF770FF054B1800FCF7A5
:10C0C00075FBC046BD4602B080BDC046FFFF000004
:10C0D00000020020FC0400200005002004050020D0
:10C0E0004405002058050020D4050020E405002068
:10C0F00080B500AF034B19000120FFF78FFFBD464D
:10C1000080BDC046FFFF000080B500AF034B1900A3
:10C110000020FFF783FFBD4680BDC046FFFF000043
:10C1200080B584B000AF3B1D18000C231A0000211D
:10C130000EF050FD534B544A1A60524B8022D205E8
:10C140005A60504B00229A604E4B0022DA604D4BF1
:10C15000802212061A614B4B08225A61494B002279
:10C160001A76484B00225A76464B00229A76454B67
:10C170000122DA61434B202200219954414B802255
:10C18000D2005A623F4B8022D2009A623D4B2C2251
:10C19000012199543B4B00221A633A4B07225A6300
:10C1A000384B3C2200219954364B0022DA64354B3F
:10C1B000180004F085FB031E01D000F0D5FB3B1DE9
:10C1C00001221A603B1D01225A603A1D2D4B1100BD
:10C1D000180005F055F8031E01D000F0C5FB3B1D0B
:10C1E0002A4A1A603A1D274B1100180005F048F83A
:10C1F000031E01D000F0B8FB3B1D254A1A603A1D12
:10C20000204B1100180005F03BF8031E01D000F090
:10C21000ABFB3B1D1F4A1A603A1D1A4B1100180058
:10C2200005F02EF8031E01D000F09EFB3B1D1A4ABC
:10C230001A603A1D134B1100180005F021F8031E77
:10C2400001D000F091FB3B1D144A1A603A1D0D4BC2
:10C250001100180005F014F8031E01D000F084FB53
:10C260003B1D0F4A1A603A1D064B1100180005F0DD
:10C2700007F8031E01D000F077FBC046BD4604B0AE
:10C2800080BDC04688210020002401400200000437
:10C29000040000080800000C100000100002002438
:10C2A0000080003C90B58BB000AF786014243B193F
:10C2B000180014231A0000210EF08CFC7B681B6808
:10C2C0003B4A93426FD13B4B1A6C3A4B8021490356
:10C2D0000A431A64374B1A6C80235B0313403B619B
:10C2E0003B69344B5A6B334B01210A435A63314B40
:10C2F0005B6B01221340FB60FB682E4B5A6B2D4B8E
:10C3000002210A435A632B4B5B6B02221340BB6032
:10C31000BB683B191F221A603B1903225A603B1964
:10C3200000229A603A19A023DB051100180007F0DB
:10C330004DFC3B19204A1A603B1903225A603B19F5
:10C3400000229A603B191D4A1900100007F03EFCBC
:10C350001B4B1C4A1A601A4B05225A60184B0022CC
:10C360009A60174B0022DA60154B80221A61144B39
:10C37000802252005A61124B8022D2009A61104BE7
:10C380002022DA610E4B00221A620D4B180005F0D4
:10C3900003FE031E01D000F0E7FA7B68084A1A6525
:10C3A000074B7A689A62C046BD460BB090BDC04646
:10C3B0000024014000100240020800000004005068
:10C3C000EC2100200800024080B584B000AFF86086
:10C3D000B9607A60FB68064A1A60BB68054A1A6051
:10C3E0007B6880221A60C046BD4604B080BDC0464E
:10C3F0004C220020A822002080B584B000AFF86055
:10C40000B9607A60FB68064A1A60BB68054A1A6020
:10C410007B68802252001A60C046BD4604B080BDD1
:10C42000A82400200425002080B582B000AF0C4B6A
:10C430009A6B0B4B01210A439A63094B9B6B0122B8
:10C4400013407B607B6800220321092005F068FD12
:10C45000092005F085FDC046BD4602B080BDC0463E
:10C460000010024080B500AF204B214A1A601F4BDC
:10C4700000225A601D4B00229A601C4B0022DA6099
:10C480001A4B00221A74194B00225A74174B0022BF
:10C490009A74164B03225A61144B01229A61134B72
:10C4A0000D22DA61114B02221A62104B01225A62EC
:10C4B0000E4B03229A620D4B0422DA620B4B0322CD
:10C4C0001A630A4B01225A63084B01229A63074BF5
:10C4D0000022DA63054B180006F0F4F8031E01D0C1
:10C4E00000F042FAC046BD4680BDC0460429002087
:10C4F0000064004090B59DB000AF78605C23FB18ED
:10C50000180014231A0000210EF064FB10243B19BC
:10C5100018004C231A0000210EF05CFB7B681B689E
:10C520002B4A934250D13B19802292041A603B1946
:10C53000802292009A643B19180008F013FE031E33
:10C5400001D000F011FA234BDA6B224B8021490114
:10C550000A43DA631F4BDA6B80235B011340FB60F5
:10C56000FB681C4B5A6B1B4B02210A435A63194B45
:10C570005B6B02221340BB60BB685C217B18C0224E
:10C5800092001A607B1802225A607B1800229A607F
:10C590007B180022DA607B1803221A617B180E4A8E
:10C5A0001900100007F012FB00220321152005F0EE
:10C5B000B7FC152005F0D4FC00220321162005F05D
:10C5C000AFFC162005F0CCFCC046BD461DB090BDAA
:10C5D00000640040001002400004005090B58BB091
:10C5E00000AF14243B19180014231A0000210EF088
:10C5F000F1FAA74B5A6BA64B04210A435A63A44B8A
:10C600005B6B042213403B613B69A14B5A6BA04B0F
:10C6100020210A435A639E4B5B6B20221340FB6030
:10C62000FB689B4B5A6B9A4B01210A435A63984B08
:10C630005B6B01221340BB60BB68954B5A6B944BFC
:10C6400002210A435A63924B5B6B022213407B60C8
:10C650007B688F4B5A6B8E4B08210A435A638C4B75
:10C660005B6B082213403B603B688A498A4B00227F
:10C67000180007F015FD80235900A023DB050122D7
:10C68000180007F00DFD854B01228021180007F0EE
:10C6900007FD80239900A023DB050022180007F086
:10C6A000FFFC7E4B00223821180007F0F9FC3B19F3
:10C6B000784A1A603B1901225A603B1900229A609D
:10C6C0003B190022DA603B19734A1900100007F089
:10C6D0007DFA21007B18802212021A600C003B199F
:10C6E00000225A603B1900229A603B196A4A1900DD
:10C6F000100007F06BFA3B1940221A603B19002228
:10C700005A603B1900229A603A19A023DB051100F8
:10C71000180007F05BFA3B1905221A603B19022248
:10C720005A603B1900229A603B190022DA603B19DB
:10C7300004221A613B19594A1900100007F046FA01
:10C7400021007B18F02212021A600C003B19002213
:10C750005A603B1900229A603B19504A1900100098
:10C7600007F034FA21007B18802252001A600C0076
:10C770003B1901225A603B1901229A603B190022A1
:10C78000DA603A19A023DB051100180007F01EFA41
:10C7900021007B18802292001A600C003B190122B4
:10C7A0005A603B1900229A603B190022DA603A195C
:10C7B000A023DB051100180007F008FA3B198022BE
:10C7C00012021A603B19882252035A603B19002258
:10C7D0009A603A19A023DB051100180007F0F6F95A
:10C7E00021007B1801221A607B18882252035A60AC
:10C7F0000C003B1900229A603B19294A19001000CD
:10C8000007F0E4F93B1918221A603B1901225A601B
:10C810003B1900229A603B190022DA603B191F4A3B
:10C820001900100007F0D2F921007B18A0221A602D
:10C830007B1801225A607B1801229A607B18002223
:10C84000DA607B18154A1900100007F0BFF9134B86
:10C8500001228021180007F023FC124B1A68114BAB
:10C86000802189020A431A6000220321052005F075
:10C8700057FB052005F074FB00220321072005F07B
:10C880004FFB072005F06CFBC046BD460BB090BDCA
:10C8900000100240406000000008005000040050FA
:10C8A000000C00500000014090B595B000AF14247A
:10C8B0003B1918003C231A0000210EF08BF93B1D98
:10C8C000180010231A0000210EF084F980239B0029
:10C8D000180007F087FC3B1901221A603B198022DF
:10C8E00052025A603B1900221A623B19180007F0E5
:10C8F000D9FC031E01D000F037F83B1D07221A6057
:10C900003B1D01225A603B1D00229A603B1D002204
:10C91000DA603B1D0021180008F096F9031E01D0D3
:10C9200000F022F8C046BD4615B090BD80B582B07B
:10C9300000AF78607A68094B9A4204D1084B2021F5
:10C94000180007F0EDFB7B681B68064A934201D193
:10C9500003F0F0FDC046BD4602B080BDE42A0020D1
:10C96000000400500010004080B500AF72B6C04611
:10C97000FEE780B582B000AF78603960C046BD4642
:10C9800002B080BD80B582B000AF154B1A6C144B5D
:10C9900001210A431A64124B1B6C012213407B6075
:10C9A0007B680F4BDA6B0E4B802149050A43DA6333
:10C9B0000B4BDA6B80235B0513403B603B68022323
:10C9C0005B4200220321180005F0AAFAC023DB0015
:10C9D000180003F0EFFDC046BD4602B080BDC04662
:10C9E00000100240B0B58CB000AF78602B23FB186C
:10C9F00000221A70374BDA6B364B10210A43DA6388
:10CA0000344BDB6B10221340BB60BB680C23FA185D
:10CA100010243B191100180008F062FB3B19DB6879
:10CA20007B627B6A002B04D108F044FB0300FB62AD
:10CA300004E008F03FFB03005B00FB62FB6A264951
:10CA40001800F3F761FB0300013B3B62234B244AD0
:10CA50001A60224B234ADA60204B3A6A5A601F4B15
:10CA600000221A611D4B00229A601C4B00229A6121
:10CA70002B257C19194B180008F0D6FF03002370F2
:10CA80007B191B78002B1ED17C19144B180009F060
:10CA9000DBF8030023707B191B78002B13D11120C6
:10CAA00005F05EFA7B68032B09D87B680022190029
:10CAB000112005F035FA0C4B7A681A6003E02B233D
:10CAC000FB1801221A702B23FB181B781800BD4697
:10CAD0000CB0B0BD0010024040420F006829002099
:10CAE00000100040E7030000BC00002080B500AF4C
:10CAF000FEE780B500AFFEE780B500AF012007F08C
:10CB00003DFBC046BD4680BD80B500AF80231B0203
:10CB1000180007F033FBC046BD4680BD80B500AFAE
:10CB2000034B180005F060FCC046BD4680BDC04602
:10CB3000EC21002080B500AF034B180009F00AFF7C
:10CB4000C046BD4680BDC046B429002080B500AFB8
:10CB5000034B180009F0FEFEC046BD4680BDC0462E
:10CB60004C2A002080B500AF044B180009F0F2FEFB
:10CB7000FFF724F9C046BD4680BDC04668290020A5
:10CB800080B500AF034B180009F0E4FEC046BD4677
:10CB900080BDC046982A002080B500AF034B180026
:10CBA00006F0A2FDC046BD4680BDC0460429002057
:10CBB00080B500AF034B180009F0CCFEC046BD465F
:10CBC00080BDC046E42A002080B500AFC046BD4607
:10CBD00080BD000080B588B000AF1023FB1818009E
:10CBE00010231A0000210DF0F5FF3B1D18000C2347
:10CBF0001A0000210DF0EEFF214B224A1A60204B53
:10CC000017225A601E4B00229A601D4B1E4ADA60A2
:10CC10001B4B00221A611A4B00225A61184B00224A
:10CC20009A61174B180008F0FFFE031E01D0FFF7B2
:10CC30009BFE10217B18802252011A607A18104B3B
:10CC4000110018000AF06CFB031E01D0FFF78CFEE8
:10CC50003B1D00221A603B1D802292035A603B1D3F
:10CC600000229A603A1D064B110018000BF0D0FD0F
:10CC7000031E01D0FFF778FEC046BD4608B080BD58
:10CC8000B4290020002C0140CF07000080B58AB0F5
:10CC900000AF1C23FB1818000C231A0000210DF014
:10CCA00099FF3B0018001C231A0000210DF092FF91
:10CCB000294B8022D2051A60274B01225A60264B4D
:10CCC00000229A60244B254ADA60234B00221A6125
:10CCD000214B00229A61204B180009F0DBF8031E5B
:10CCE00001D0FFF741FE1C217B1800221A607B183F
:10CCF00000229A607A18184B110018000BF088FD7A
:10CD0000031E01D0FFF730FE3B0060221A603B009B
:10CD100000225A603B0000229A603B0000221A6108
:10CD200039000D4B002218000AF0D4F8031E01D080
:10CD3000FFF71AFE3900084B082218000AF0CAF85B
:10CD4000031E01D0FFF710FE034B180000F0C4F9DA
:10CD5000C046BD460AB080BD002A0020E70300009F
:10CD600080B58CB000AF2023FB18180010231A00E8
:10CD700000210DF02FFF1423FB1818000C231A00BC
:10CD800000210DF027FF3B1D180010231A00002181
:10CD90000DF020FF2D4B2E4A1A602C4B2D4A5A6065
:10CDA0002A4B00229A60294B2B4ADA60274B00223B
:10CDB0001A61264B00229A61244B180008F034FEB9
:10CDC000031E01D0FFF7D0FD20217B1880225201E5
:10CDD0001A607A181D4B110018000AF0A1FA031E00
:10CDE00001D0FFF7C1FD194B180009F0D5FA031E59
:10CDF00001D0FFF7B9FD14217B1800221A607B18BF
:10CE000000229A607A18114B110018000BF000FDF7
:10CE1000031E01D0FFF7A8FD3B1D00221A603B1D39
:10CE200001225A603B1D00229A603B1D0C22DA60F1
:10CE3000391D064B0422180009F0BEFE031E01D066
:10CE4000FFF792FDC046BD460CB080BD4C2A0020C5
:10CE500000040040BF5D0000FFFF000080B500AF90
:10CE60000F4B104A1A600E4B17225A600C4B0022CF
:10CE70009A600B4B7C22DA60094B00221A61084B46
:10CE800000225A61064B00229A61054B180008F0F7
:10CE9000CBFD031E01D0FFF767FDC046BD4680BD38
:10CEA000E42A00200048014090B5A3B000AF7860AC
:10CEB0007423FB18180014231A0000210DF08AFEB9
:10CEC00028243B1918004C231A0000210DF082FE83
:10CED0007B681B686A4A934225D13B1980229203E2
:10CEE0001A603B1900229A633B19180008F03AF9BE
:10CEF000031E01D0FFF738FD624B1A6C614B802195
:10CF000009010A431A645F4B1A6C80231B0113400A
:10CF10007B627B6A002203210D2005F001F80D20C1
:10CF200005F01EF8A8E07B681B68574A934236D18B
:10CF3000544BDA6B534B02210A43DA63514BDB6BE0
:10CF4000022213403B623B6A4E4B5A6B4D4B04210D
:10CF50000A435A634B4B5B6B04221340FB61FB6932
:10CF600074217B1880221A607B1802225A607B1879
:10CF700000229A607B180022DA607B1801221A6175
:10CF80007B18424A1900100006F020FE00220321FF
:10CF9000102004F0C5FF102004F0E2FF6CE07B6875
:10CFA0001B683B4A934214D1364BDA6B354B202138
:10CFB0000A43DA63334BDB6B20221340BB61BB694E
:10CFC00000220321122004F0ABFF122004F0C8FF5E
:10CFD00052E07B681B682F4A93420ED1294B1A6C92
:10CFE000284B802109020A431A64264B1A6C8023BD
:10CFF0001B0213407B617B693EE07B681B68264A0D
:10D0000093421ED128217B188022D2031A607B18FC
:10D010000022DA637B18180008F0A4F8031E01D080
:10D02000FFF7A2FC174B1A6C164B802149020A43EA
:10D030001A64144B1A6C80235B0213403B613B69FA
:10D040001AE07B681B68154A934215D10D4B1A6C88
:10D050000C4B8021C9020A431A640A4B1A6C8023C4
:10D06000DB021340FB60FB6800220321162004F062
:10D0700057FF162004F074FFC046BD4623B090BD94
:10D08000002C014000100240000400400008005045
:10D0900000140040002000400040014000480140D2
:10D0A00080B584B000AF78607B681A688023DB05A8
:10D0B0009A420BD1074BDA6B064B01210A43DA6324
:10D0C000044BDB6B01221340FB60FB68C046BD468E
:10D0D00004B080BD0010024090B58BB000AF786006
:10D0E00014243B19180014231A0000210DF072FDBE
:10D0F0007B681A688023DB059A4244D1244B5A6B23
:10D10000234B01210A435A63214B5B6B01221340DD
:10D110003B613B691E4B5A6B1D4B02210A435A630C
:10D120001B4B5B6B02221340FB60FB683B19202208
:10D130001A603B1902225A603B1900229A603B197F
:10D140000022DA603B1902221A613A19A023DB059A
:10D150001100180006F03AFD21007B188022D20051
:10D160001A607B1802225A607B1800229A607B1892
:10D170000022DA607B1802221A617B18054A190026
:10D18000100006F023FDC046BD460BB090BDC04662
:10D1900000100240000400500D488546FFF714FDC2
:10D1A0000C480D490D4A002302E0D458C450043302
:10D1B000C4188C42F9D30A4A0A4C002301E01360D8
:10D1C0000432A242FBD30DF013FDFDF7ABF9FEE7ED
:10D1D000004002200000002018010020C8B401080F
:10D1E00018010020B4330020FEE780B582B000AF04
:10D1F00078607B681B7A1800BD4602B080BD80B5A0
:10D2000082B000AF78607B685B781800BD4602B0E2
:10D2100080BDB0B584B000AF786039600F257B1950
:10D2200000221A707C193A687B681100180000F01F
:10D230003FF8030023707B191B781800BD4604B02B
:10D24000B0BD80B586B000AFF860B9607A601721D4
:10D250007B1800221A707B1800221A701AE017201F
:10D260003B181A7813009B009B18BA68D3181A78D9
:10D27000597809020A43997809040A43DB781B06A6
:10D2800013431A007B6893420ADB3B181A783B1859
:10D2900001321A701723FB181B780A2BDFD900E024
:10D2A000C0461723FB181B781800BD4606B080BD8A
:10D2B000B0B584B000AF786039607B684033190046
:10D2C0000F257C193A687B681800FFF7BAFF030046
:10D2D00023707B191A787968442013009B009B18EF
:10D2E000CB181B181B781800BD4604B0B0BD000059
:10D2F000B0B586B000AFF860B9607A603B60804B33
:10D3000018000DF0F0FA03005A1E9341DBB2002B17
:10D3100008D003F021F902007A4B1A60784B18000C
:10D320000DF0EEFA17243A197968774800238842FD
:10D330005B4113703B191B78002B4ED0FB685A7968
:10D34000997909020A43D97909040A431B7A1B0611
:10D3500013431800FFF753FF0300013B5A425341A8
:10D36000DBB2002B0FD0694B1B68BA689A4207D911
:10D37000664B1B68FA2292009A18644B1A6002E00E
:10D38000624BBA681A60FB687733FA22D200110048
:10D390001800F8F7B7F9FB68773318005B4B1B6888
:10D3A00001221900F8F7D0F916257C193A68796836
:10D3B000FB68180000F0B8F8030023707B191B7895
:10D3C000002B03D1524B01221A704CE0504B00222B
:10D3D0001A70504B03221A7045E04D4B1B78002BFE
:10D3E00003D14C4B03221A703DE0FB685A799979BE
:10D3F00009020A43D97909040A431B7A1B0613431D
:10D400001800FFF7FCFE0300013B5A425341DBB218
:10D41000002B20D03D4B1B68BA689A4207D93B4B82
:10D420001B68FA2292009A18384B1A6002E0374BB8
:10D43000BA681A60FB687733FA22D200110018002C
:10D44000F8F760F9FB6877331800304B1B6801224E
:10D450001900F8F779F93A689623DB009A4202D965
:10D460002C4B03221A70274B1B682B4A9C1803F085
:10D4700073F803009C429B415B42DBB2002B26D039
:10D48000FB685A79997909020A43D97909040A4350
:10D490001B7A1B0613431800FAF7C0FD1B4B1F4AEB
:10D4A0001A6003F059F80200164B1A601C4B1B78E7
:10D4B0000133DAB21A4B1A70194B1B78022B19D9A7
:10D4C000184B01221A70134B04221A7012E0154BEC
:10D4D0001B78002B0ED1FB685A79997909020A430F
:10D4E000D97909040A431B7A1B061343002118004B
:10D4F000FAF730FD074B1B781800BD4606B0B0BDEB
:10D500003C2B0020382B00203E9C0000342B0020B8
:10D51000402B0020AC000020983A000010270000AB
:10D52000412B0020302B002090B587B000AFF86071
:10D53000B9607A60304B18000DF0D5F903005A1E1F
:10D540009341DBB2002B0BD003F006F80300FA2264
:10D55000D2009A18294B1A60274B18000DF0D0F909
:10D5600017243B1900221A70FB685A79997909022D
:10D570000A43D97909040A431B7A1B06134318008E
:10D58000FFF733FE0300013B5A425341DBB2002B4D
:10D5900026D07A689623DB009A421CD902F0DCFF81
:10D5A0000200164B1B689A429B415B42DBB2002B88
:10D5B00003D03B1900221A7016E0BB68104A934250
:10D5C00004D91723FB1801221A700DE01723FB184A
:10D5D00000221A7008E01723FB1800221A7003E0DB
:10D5E0001723FB1800221A701723FB181B7818004A
:10D5F000BD4607B090BDC046482B0020442B0020FC
:10D6000010A4000080B582B000AF78600A00BB1C97
:10D610001A80BB1C1B881B0A9BB21AB2BB1C1B883E
:10D620001B021BB213431BB29BB21800BD4602B0D3
:10D6300080BD80B582B000AF7860C046BD4602B004
:10D6400080BD80B582B000AF78607A68B5235B009A
:10D65000D35C1800BD4602B080BD80B582B000AF7B
:10D6600078607A686E23FF33D35C1800BD4602B041
:10D6700080BD80B582B000AF78607A68AE235B0071
:10D68000D35C5A1E9341DBB21800BD4602B080BD88
:10D6900080B582B000AF78607A685E23FF33D35CD8
:10D6A0005A1E9341DBB21800BD4602B080BD80B562
:10D6B00082B000AF78607A68AF235B00D35C5A1EFB
:10D6C0009341DBB21800BD4602B080BD80B582B088
:10D6D00000AF78607A686023FF33D35C5A1E9341B1
:10D6E000DBB21800BD4602B080BD80B582B000AF8D
:10D6F00078607A68B0235B00D35C5A1E9341DBB23A
:10D700001800BD4602B080BD80B582B000AF786021
:10D710007A686423FF33D35C1800BD4602B080BD35
:10D7200080B582B000AF78600E231800BD4602B00D
:10D7300080BD80B582B000AF78607A68B1235B00AD
:10D74000D35C1800BD4602B080BD80B582B000AF8A
:10D7500078607B68922252009A5C2621FF31595CE6
:10D7600009020A4393214900595C09040A4328210C
:10D77000FF315B5C1B0613431800BD4602B080BD41
:10D7800080B582B000AF78607B689A2252009A5CC4
:10D790003621FF31595C09020A439B214900595C3B
:10D7A00009040A433821FF315B5C1B061343180050
:10D7B000BD4602B080BD80B582B000AF78607B68A6
:10D7C000882252009A5C1221FF31595C09020A43F7
:10D7D00089214900595C09040A431421FF315B5C2B
:10D7E0001B0613431800BD4602B080BD80B582B051
:10D7F00000AF78607B688A2252009A5C1621FF3164
:10D80000595C09020A438B214900595C09040A4307
:10D810001821FF315B5C1B0613431800BD4602B0A4
:10D8200080BD80B582B000AF78607B689C225200DA
:10D830009A5C3A21FF31595C09020A439D21490053
:10D84000595C09040A433C21FF315B5C1B0613430E
:10D850001800BD4602B080BD80B582B000AF7860D0
:10D860007B68902252009A5C2221FF31595C0902A8
:10D870000A4391214900595C09040A432421FF31DC
:10D880005B5C1B0613431A00FA2399001000F2F7A1
:10D890003BFC03001800BD4602B080BD80B582B0DD
:10D8A00000AF78607B68A82252009A5C5221FF3159
:10D8B000595C09020A43A9214900595C09040A4339
:10D8C0005421FF315B5C1B0613431800BD4602B0B8
:10D8D00080BD80B582B000AF78607B688622520040
:10D8E0009A5C0E21FF31595C09020A4387214900E5
:10D8F000595C09040A431021FF315B5C1B0613438A
:10D900001800BD4602B080BD80B582B000AF78601F
:10D910007B68842252009A5C0A21FF31595C09021B
:10D920000A4385214900595C09040A430C21FF314F
:10D930005B5C1B0613431800BD4602B080BD80B57A
:10D9400082B000AF78607B68E0229B5C1800BD4627
:10D9500002B080BDB0B582B000AF786039607A683F
:10D960008C235B0039000C78D15C00200140081C3E
:10D97000211C0143D154791C0D78D118487800241A
:10D980002040041C281C20434870B91C0D78D11875
:10D99000887800242040041C281C20438870F91C2F
:10D9A0000878D318DA7800210A40111C021C0A43B7
:10D9B000DA70C046BD4602B0B0BDB0B582B000AFAF
:10D9C000786039607A688E235B0039000C78D15C0E
:10D9D00000200140081C211C0143D154791C0D7802
:10D9E000D118487800242040041C281C204348708B
:10D9F000B91C0D78D118887800242040041C281CFC
:10DA000020438870F91C0878D318DA7800210A407E
:10DA1000111C021C0A43DA70C046BD4602B0B0BDFC
:10DA2000B0B582B000AF786039607A6890235B004F
:10DA300039000C78D15C00200140081C211C0143F6
:10DA4000D154791C0D78D118487800242040041C4A
:10DA5000281C20434870B91C0D78D1188878002400
:10DA60002040041C281C20438870F91C0878D31817
:10DA7000DA7800210A40111C021C0A43DA70C04601
:10DA8000BD4602B0B0BDB0B582B000AF78603960BD
:10DA90007A689C235B0039000C78D15C002001403F
:10DAA000081C211C0143D154791C0D78D1184878E9
:10DAB00000242040041C281C20434870B91C0D7809
:10DAC000D118887800242040041C281C204388702A
:10DAD000F91C0878D318DA7800210A40111C021CBE
:10DAE0000A43DA70C046BD4602B0B0BDF0B583B09F
:10DAF00000AF786039607B68A82252009A5C52219E
:10DB0000FF31595C09020A43A9214900595C090403
:10DB10000A435421FF315B5C1B0613431A003B6828
:10DB20001A4311007A68A8235B00FF200840050013
:10DB3000D05C00242040041C281C2043D054080A38
:10DB4000FF2420400600D018447800252C40251CD6
:10DB5000341C2C434470080CFF2420400600D018CD
:10DB6000847800252C40251C341C2C438470080E1E
:10DB7000D318DA7800210A40111C021C0A43DA701B
:10DB8000C046BD4603B0F0BD80B582B000AF78603E
:10DB90000A00FB1C1A707A68F91CB2235B00097832
:10DBA000D154C046BD4602B080BDB0B582B000AF12
:10DBB000786039607A68AC235B0039000C78D15CFE
:10DBC00000200140081C211C0143D154791C0D7810
:10DBD000D118487800242040041C281C2043487099
:10DBE000B91C0D78D118887800242040041C281C0A
:10DBF00020438870F91C0878D318DA7800210A408D
:10DC0000111C021C0A43DA70C046BD4602B0B0BD0A
:10DC100080B582B000AF78600A00FB1C1A707B6888
:10DC2000FA1CE12112785A54C046BD4602B080BDAC
:10DC3000B0B582B000AF786039607A68AA235B0023
:10DC400039000C78D15C00200140081C211C0143E4
:10DC5000D154791C0D78D118487800242040041C38
:10DC6000281C20434870B91C0D78D11888780024EE
:10DC70002040041C281C20438870F91C0878D31805
:10DC8000DA7800210A40111C021C0A43DA70C046EF
:10DC9000BD4602B0B0BD80B582B000AF78600A006A
:10DCA000FB1C1A707A68F91C6A23FF330978D15477
:10DCB000C046BD4602B080BDF0B583B000AF78600D
:10DCC00039607B68DC2239000C78995C00200140C7
:10DCD000081C211C01439954791C0D789918487827
:10DCE00000242040041C281C20434870B91C0D78D7
:10DCF0009918887800242040041C281C2043887030
:10DD0000F91C08789B18DA7800210A40111C021CC3
:10DD10000A43DA70FCF7E0FA7B68E02201219954AB
:10DD200002F01AFC01007A68A2235B00FF20084081
:10DD30000500D05C00242040041C281C2043D05443
:10DD4000080AFF2420400600D018447800252C4003
:10DD5000251C341C2C434470080CFF242040060072
:10DD6000D018847800252C40251C341C2C4384704A
:10DD7000080ED318DA7800210A40111C021C0A434D
:10DD8000DA707A6888235B00D15C00200140081CAF
:10DD9000582149420143D154D118487800242040E9
:10DDA000041C612020434870D1188878002420404A
:10DDB0008870D318DA7800210A40DA707A688A23EA
:10DDC0005B00D15C00200140081C602149420143F6
:10DDD000D154D118487800242040041C102040421F
:10DDE00020434870D1188878002420408870D318C8
:10DDF000DA7800210A40DA707B68F922012199540F
:10DE00007B68FA22002199547B68F72202219954F9
:10DE10007B68F822022199547B68F52202219954EB
:10DE20007B68F622022199547B68F32201219954E0
:10DE30007B68F422002199547B68EB33FE49082269
:10DE400018000CF0F9FE7B68E333FC490822180047
:10DE50000CF0F2FE7A6884235B00D15C0020014064
:10DE6000081C08210143D154D118487800242040CF
:10DE7000041C072020434870D118887800242040D3
:10DE80008870D318DA7800210A40DA707A6886231D
:10DE90005B00D15C00200140D154D11848780024A7
:10DEA00020404870D1188878002420408870D3180A
:10DEB000DA7800210A40DA707A68AE235B0000212C
:10DEC000D1547A685E23FF330021D1547A68AF239E
:10DED0005B000021D1547A686023FF330021D154C4
:10DEE0007A68B0235B000021D1547A68B2235B00CA
:10DEF0000021D1547A686623FF330121D1547A6816
:10DF0000B3235B000021D1547A686823FF330021DA
:10DF1000D1547A68B4235B000021D1547A686A2313
:10DF2000FF330021D1547A6898235B00D15C002034
:10DF30000140D154D1184878002420404870D118AD
:10DF40008878002420408870D318DA7800210A40AD
:10DF5000DA707A686223FF330021D1547A689A23F9
:10DF60005B00D15C00200140D154D11848780024D6
:10DF700020404870D1188878002420408870D31839
:10DF8000DA7800210A40DA707A689C235B00D15C61
:10DF900000200140081C402149420143D154D118BE
:10DFA000487800242040041C1F2040422043487031
:10DFB000D1188878002420408870D318DA7800219E
:10DFC0000A40DA707A68B5235B000021D1547A6880
:10DFD000B1235B000021D1547A6888235B00D15CB7
:10DFE00000200140081C582149420143D154D11856
:10DFF000487800242040041C612020434870D11838
:10E000008878002420408870D318DA7800210A40EC
:10E01000DA707A688A235B00D15C00200140081C1A
:10E02000602149420143D154D1184878002420404E
:10E03000041C1020404220434870D11888780024E6
:10E0400020408870D318DA7800210A40DA707A68A4
:10E050008C235B00D15C00200140D154D11848785A
:10E06000002420404870D11888780024204088700F
:10E07000D318DA7800210A40DA707A688E235B00C0
:10E08000D15C00200140D154D118487800242040B0
:10E090004870D1188878002420408870D318DA7826
:10E0A00000210A40DA707A6890235B00D15C00207E
:10E0B0000140D154D1184878002420404870D1182C
:10E0C0008878002420408870D318DA7800210A402C
:10E0D000DA707A6892235B00D15C00200140D15451
:10E0E000D1184878002420404870D118887800243E
:10E0F00020408870D318DA7800210A40DA707A68F4
:10E1000094235B00D15C00200140D154D1184878A1
:10E11000002420404870D11888780024204088705E
:10E12000D318DA7800210A40DA707A686423FF3362
:10E130000021D1547A689E235B00D15C002001400D
:10E14000D154D1184878002420404870D1188878DC
:10E15000002420408870D318DA7800210A40DA7051
:10E160007A6896235B00D15C00200140D154D1181D
:10E170004878002420404870D11888780024204036
:10E180008870D318DA7800210A40DA707A68A223FE
:10E190005B00D15C00200140D154D11848780024A4
:10E1A00020404870D1188878002420408870D31807
:10E1B000DA7800210A40DA707A68A4235B00D15C27
:10E1C00000200140D154D1184878002420404870E4
:10E1D000D1188878002420408870D318DA7800217C
:10E1E0000A40DA707A68A6235B00D15C0020014007
:10E1F000D154D1184878002420404870D11888782C
:10E20000002420408870D318DA7800210A40DA70A0
:10E210007A68A8235B00D15C00200140D154D1185A
:10E220004878002420404870D11888780024204085
:10E230008870D31804E0C0464CAD010858AD010801
:10E24000DA7800210A40DA707A68AA235B00D15C90
:10E2500000200140D154D118487800242040487053
:10E26000D1188878002420408870D318DA780021EB
:10E270000A40DA707A68AC235B00D15C0020014070
:10E28000D154D1184878002420404870D11888789B
:10E29000002420408870D318DA7800210A40DA7010
:10E2A0007A686C23FF330021D1547A68B6235B006F
:10E2B0000021D1547A686E23FF330021D154C04627
:10E2C000BD4603B0F0BDC04690B583B000AF7860E6
:10E2D00039607B68180017231A0000210CF07AFCC3
:10E2E0007B689A7A00210A40111C64220A439A72C0
:10E2F000DA7A00210A40DA723B688A2252009A5C7C
:10E300001621FF31595C09020A438B214900595CEF
:10E3100009040A431821FF315B5C1B0613430E21DD
:10E320001800F1F7F1FE03009AB27B68FF2111405B
:10E330000C00197800200140081C211C01431970B1
:10E34000120A90B25A7800210A40111C021C0A439A
:10E350005A707B689A7800210A40111C5A220A439D
:10E360009A70DA7800210A40111C0A220A43DA70F6
:10E370003B68882252009A5C1221FF31595C0902E5
:10E380000A4389214900595C09040A431421FF31D9
:10E390005B5C1B0613431A007B68FF2111400C00D5
:10E3A000197900200140081C211C01431971110A30
:10E3B000FF2001400C00597900200140081C211C5D
:10E3C00001435971110CFF2001400C009979002084
:10E3D0000140081C211C01439971100EDA790021BB
:10E3E0000A40111C021C0A43DA717B681A7A002168
:10E3F0000A40111C10220A431A725A7A00210A405C
:10E40000111C0E220A435A727B681A7B00210A40B3
:10E410001A735A7B00210A405A737B680E331A78AC
:10E4200000210A401A705A7800210A405A709A78DE
:10E4300000210A409A70DA7800210A40DA707B687D
:10E440009A7C00210A409A74DA7C00210A40DA742E
:10E450007B680E221A757B6800225A757B68002241
:10E460009A75C0467868BD4603B090BD90B583B03C
:10E4700000AF78607B68A22252009A5C4621FF318F
:10E48000595C09020A43A3214900595C09040A4363
:10E490004821FF315B5C1B061343454A9C1802F080
:10E4A0005BF80300A3429B415B42DBB2002B69D0C7
:10E4B0007B68E022012199543E4B1B78022B72D8D5
:10E4C0003D4B1B78062B6DD89A003C4BD3181B682C
:10E4D0009F467B68E3331900AA23DB00082218005B
:10E4E000FBF756FF344B1B780133DAB2324B1A700C
:10E4F00059E07B68EB33324808221900FBF748FFEC
:10E500002D4B1B780133DAB22B4B1A704BE07B6832
:10E51000F3332C4802221900FBF73AFF264B1B78F5
:10E520000133DAB2244B1A703DE07B68F53326489C
:10E5300002221900FBF72CFF1F4B1B780133DAB2C4
:10E540001D4B1A702FE07B68F73320480222190018
:10E55000FBF71EFF184B1B780133DAB2164B1A700B
:10E5600021E07B68F9331A4802221900FBF710FFFB
:10E57000114B01221A700F4B1B780133DAB20D4B8D
:10E580001A7010E07A68B2235B00D35C002B04D1D0
:10E590007B68E0220221995405E07B68E0220A2191
:10E5A000995400E0C046C046BD4603B090BDC04689
:10E5B000701700004C2D0020B800002020B2010888
:10E5C00051050000520500005305000054050000ED
:10E5D00055050000F0B583B000AF78607B68180087
:10E5E00000F0E0FD7B68E0220321995401F0B4FFC4
:10E5F00001007A6896235B00FF2008400500D05C8C
:10E6000000242040041C281C2043D054080AFF2466
:10E6100020400600D018447800252C40251C341CCE
:10E620002C434470080CFF2420400600D018847846
:10E6300000252C40251C341C2C438470080ED31854
:10E64000DA7800210A40111C021C0A43DA70C04625
:10E65000BD4603B0F0BD0000F0B583B000AF7860F8
:10E660007B68180000F09EFD7B68180001F048FCF4
:10E670007B68962252009A5C2E21FF31595C090278
:10E680000A4397214900595C09040A433021FF31AC
:10E690005B5C1B061343324A9C1801F05DFF0300CC
:10E6A000A3429B415B42DBB2002B54D17B68180034
:10E6B00001F036FC7B688C2252009A5C1A21FF31F3
:10E6C000595C09020A438D214900595C09040A4337
:10E6D0001C21FF315B5C1B0613431A00214B9A423D
:10E6E00004D97B68E0220521995434E07B68E0225C
:10E6F0000421995401F030FF01007A689E235B00E9
:10E70000FF2008400500D05C00242040041C281C89
:10E710002043D054080AFF2420400600D018447833
:10E7200000252C40251C341C2C434470080CFF246D
:10E7300020400600D018847800252C40251C341C6D
:10E740002C438470080ED318DA7800210A40111C7B
:10E75000021C0A43DA70C046BD4603B0F0BDC04695
:10E76000B80B000010A40000F0B585B000AF7860D1
:10E7700078687B688C2252009A5C1A21FF31595CC0
:10E7800009020A438D214900595C09040A431C21EE
:10E79000FF315B5C1B0613431D007B688E22520019
:10E7A0009A5C1E21FF31595C09020A438F214900FE
:10E7B000595C09040A432021FF315B5C1B061343AB
:10E7C0000F26BC190D492A00FEF792FD03002370A5
:10E7D000BB191B78032B02D0042B05D009E07B6802
:10E7E000E0220521995404E07B68E0220A21995433
:10E7F000C046C046BD4605B0F0BDC0461CCB0000BB
:10E80000F0B583B000AF78607B688C2252009A5CD0
:10E810001A21FF31595C09020A438D214900595CD4
:10E8200009040A431C21FF315B5C1B0613431A00D9
:10E83000C54B9A4245D97B68862252009A5C0E21CC
:10E84000FF31595C09020A4387214900595C0904D8
:10E850000A431021FF315B5C1B0613431A0020237F
:10E86000134319007A6886235B00FF2008400500E7
:10E87000D05C00242040041C281C2043D054080AEB
:10E88000FF2420400600D018447800252C40251C89
:10E89000341C2C434470080CFF2420400600D01880
:10E8A000847800252C40251C341C2C438470080ED1
:10E8B000D318DA7800210A40111C021C0A43DA70CE
:10E8C0003EE17B68862252009A5C0E21FF31595C42
:10E8D00009020A4387214900595C09040A431021AF
:10E8E000FF315B5C1B0613431A0020239A4311007F
:10E8F0007A6886235B00FF2008400500D05C002476
:10E900002040041C281C2043D054080AFF24204027
:10E910000600D018447800252C40251C341C2C43BC
:10E920004470080CFF2420400600D018847800258D
:10E930002C40251C341C2C438470080ED318DA7824
:10E9400000210A40111C021C0A43DA707B6818007F
:10E9500000F028FC7B688C2252009A5C1A21FF315F
:10E96000595C09020A438D214900595C09040A4394
:10E970001C21FF315B5C1B0613431A00734B9A4248
:10E9800040D97A686823FF33D35C002B3AD17A6888
:10E99000B4235B000021D15401F0DEFD01007A6850
:10E9A00098235B00FF2008400500D05C0024204035
:10E9B000041C281C2043D054080AFF2420400600D1
:10E9C000D018447800252C40251C341C2C4344705E
:10E9D000080CFF2420400600D018847800252C4025
:10E9E000251C341C2C438470080ED318DA780021BF
:10E9F0000A40111C021C0A43DA707A686823FF334C
:10EA00000121D15401F0A8FD7B68982252009A5C44
:10EA10003221FF31595C09020A4399214900595CAE
:10EA200009040A433421FF315B5C1B061343C21AFD
:10EA30004749002391425B41DBB2002B21D07B6828
:10EA40008C2252009A5C1A21FF31595C09020A4358
:10EA50008D214900595C09040A431C21FF315B5C8C
:10EA60001B0613431A00394B9A4269D97A68B423BA
:10EA70005B00D35C012B63D17B68E02208219954B1
:10EA80005EE07B688C2252009A5C1A21FF31595C4F
:10EA900009020A438D214900595C09040A431C21DB
:10EAA000FF315B5C1B0613431A00284B9A4221D9A5
:10EAB0007B688C2252009A5C1A21FF31595C090252
:10EAC0000A438D214900595C09040A431C21FF3186
:10EAD0005B5C1B0613431A001E4B9A420AD87A68E5
:10EAE000B4235B00D35C002B04D17B68E0220621B9
:10EAF000995425E07B688C2252009A5C1A21FF31E0
:10EB0000595C09020A438D214900595C09040A43F2
:10EB10001C21FF315B5C1B0613431A000D4B9A420C
:10EB20000ED97A68B4235B00D35C002B08D17A68D5
:10EB30006C23FF330121D1547B68E02207219954D3
:10EB4000BD4603B0F0BDC046E8FD00000FA40000C4
:10EB50007B15000033B7000080B582B000AF78604D
:10EB60007A686423FF33FF21D1547A68B5235B00B0
:10EB70000121D1547A68B4235B00D35C012B04D10A
:10EB80007B68E0220821995422E07B688C225200A5
:10EB90009A5C1A21FF31595C09020A438D21490010
:10EBA000595C09040A431C21FF315B5C1B061343BB
:10EBB0001A00094B9A4204D97B68E0220721995434
:10EBC00006E0FA231A017B6811001800FEF728FFFF
:10EBD000C046BD4602B080BD34B70000F0B583B07A
:10EBE00000AF78607A68AE235B000021D1547A6868
:10EBF0005E23FF330021D1547A68AF235B000021EC
:10EC0000D1547A686023FF330021D1547A68B0234D
:10EC10005B000021D1544F4A7B6811001800FEF7B9
:10EC2000FFFE4D4A7B6811001800FEF72CFF7A6842
:10EC30006423FF33FF21D1547A68B5235B0001219F
:10EC4000D1547B688C2252009A5C1A21FF31595CA6
:10EC500009020A438D214900595C09040A431C2119
:10EC6000FF315B5C1B06134319007A6892235B003B
:10EC7000FF2008400500D05C00242040041C281C14
:10EC80002043D054080AFF2420400600D0184478BE
:10EC900000252C40251C341C2C434470080CFF24F8
:10ECA00020400600D018847800252C40251C341CF8
:10ECB0002C438470080ED318DA7800210A40111C06
:10ECC000021C0A43DA707B688E2252009A5C1E2175
:10ECD000FF31595C09020A438F214900595C09043C
:10ECE0000A432021FF315B5C1B06134319007A683D
:10ECF0009A235B00FF2008400500D05C00242040E0
:10ED0000041C281C2043D054080AFF24204006007D
:10ED1000D018447800252C40251C341C2C4344700A
:10ED2000080CFF2420400600D018847800252C40D1
:10ED3000251C341C2C438470080ED318DA7800216B
:10ED40000A40111C021C0A43DA70C046BD4603B0DB
:10ED5000F0BDC04688130000C0E1000080B582B05D
:10ED600000AF78607B68180000F01CFA7B68180020
:10ED700000F00CF87B68180001F0E2F87B681800DE
:10ED800001F0A8F9C046BD4602B080BD80B584B090
:10ED900000AF786001F0E0FB0300FB607B68942229
:10EDA00052009A5C2A21FF31595C09020A439521DD
:10EDB0004900595C09040A432C21FF315B5C1B06A6
:10EDC00013431B4A94466344FA689A421DD97A68F1
:10EDD0006623FF330021D1547A68B4235B000021FD
:10EDE000D1547A68B5235B000021D1547A6864233A
:10EDF000FF330021D1547A686C23FF330121D154B1
:10EE00007B68E022092199540EE07A68B5235B0003
:10EE10000121D1547A686823FF330021D1547A68E4
:10EE20006C23FF330021D154C046BD4604B080BDE1
:10EE300088130000F0B583B000AF78607B68E022F3
:10EE40009B5C0A2B00D99EE19A00D24BD3181B6819
:10EE50009F467B681800FFF709FB97E17B68180065
:10EE6000FFF7B8FB92E17B681800FFF7F5FB8DE137
:10EE70007B681800FFF778FC88E17B681800FFF7D3
:10EE8000BFFC83E17B681800FFF766FE7EE17B68CC
:10EE90001800FFF7A3FE79E17B681800FFF75EFF1B
:10EEA00074E17A68B5235B000021D1547A68642349
:10EEB000FF330021D1547A686C23FF330121D154F0
:10EEC00064E17B688C2252009A5C1A21FF31595C04
:10EED00009020A438D214900595C09040A431C2197
:10EEE000FF315B5C1B0613431A00AB4B9A4200D800
:10EEF000A4E07B688C2252009A5C1A21FF31595C95
:10EF000009020A438D214900595C09040A431C2166
:10EF1000FF315B5C1B0613431A00A04B9A4200D9D9
:10EF20008CE07B68A82252009A5C5221FF31595C28
:10EF300009020A43A9214900595C09040A435421E2
:10EF4000FF315B5C1B0613431A008023DB02134373
:10EF500019007A68A8235B00FF2008400500D05CF8
:10EF600000242040041C281C2043D054080AFF24FD
:10EF700020400600D018447800252C40251C341C65
:10EF80002C434470080CFF2420400600D0188478DD
:10EF900000252C40251C341C2C438470080ED318EB
:10EFA000DA7800210A40111C021C0A43DA707B68DF
:10EFB000A82252009A5C5221FF31595C09020A438F
:10EFC000A9214900595C09040A435421FF315B5CC3
:10EFD0001B0613431A0080235B05134319007A684C
:10EFE000A8235B00FF2008400500D05C00242040DF
:10EFF000041C281C2043D054080AFF24204006008B
:10F00000D018447800252C40251C341C2C43447017
:10F01000080CFF2420400600D018847800252C40DE
:10F02000251C341C2C438470080ED318DA78002178
:10F030000A40111C021C0A43DA70A6E07B688C228D
:10F0400052009A5C1A21FF31595C09020A438D2152
:10F050004900595C09040A431C21FF315B5C1B0613
:10F0600013431A004E4B9A4200D98EE07B68A822C7
:10F0700052009A5C5221FF31595C09020A43A921CE
:10F080004900595C09040A435421FF315B5C1B06AB
:10F0900013431A008023DB00134319007A68A82366
:10F0A0005B00FF2008400500D05C00242040041CC9
:10F0B000281C2043D054080AFF2420400600D01802
:10F0C000447800252C40251C341C2C434470080C2B
:10F0D000FF2420400600D018847800252C40251CF1
:10F0E000341C2C438470080ED318DA7800210A40AF
:10F0F000111C021C0A43DA707B68A82252009A5C39
:10F100005221FF31595C09020A43A9214900595C87
:10F1100009040A435421FF315B5C1B0613431A00A8
:10F1200080235B05134319007A68A8235B00FF2046
:10F1300008400500D05C00242040041C281C20430B
:10F14000D054080AFF2420400600D0184478002537
:10F150002C40251C341C2C434470080CFF242040F8
:10F160000600D018847800252C40251C341C2C4324
:10F170008470080ED318DA7800210A40111C021C92
:10F180000A43DA7001E0C04600E0C046C046BD4612
:10F1900003B0F0BD3CB20108307500003D9C00009A
:10F1A0002F750000F0B585B000AF78607A686C23E9
:10F1B000FF33D35C012B64D07B68A42252009A5C9D
:10F1C0004A21FF31595C09020A43A5214900595CD3
:10F1D00009040A434C21FF315B5C1B0613431C00EE
:10F1E00001F0BAF903009C429B415B42DBB2002B69
:10F1F00048D008217B1800221A6000225A607B1830
:10F2000001221A707B1802225A707918E223FF3308
:10F2100008221800FBF7BCF801F09EF90300FA225F
:10F22000920099187A68A4235B00FF20084005002B
:10F23000D05C00242040041C281C2043D054080A21
:10F24000FF2420400600D018447800252C40251CBF
:10F25000341C2C434470080CFF2420400600D018B6
:10F26000847800252C40251C341C2C438470080E07
:10F27000D318DA7800210A40111C021C0A43DA7004
:10F2800000E0C046BD4605B0F0BD80B584B000AF1B
:10F2900078600F217B1800221A707B68E0229B5C4B
:10F2A000052B02D97B1801221A700F23FB181B783B
:10F2B0001800BD4604B080BD80B584B000AF786052
:10F2C000396008217B1800221A6000225A607918E0
:10F2D0003B6808221800FBF75BF8C046BD4604B047
:10F2E00080BD90B587B000AFF860B960FB1D1A70A3
:10F2F00014243B19180003231A0000210BF06AFCA8
:10F30000FB1D1A78B9683B1918000BF095FC3B19E6
:10F310005B78022B1BD1FA68B4235B000121D15426
:10F32000FA686623FF330121D154CD235A00FB68CC
:10F3300011001800FFF7C0FFFA686423FF33FF21B4
:10F34000D154FA68B5235B000121D15409E0FA6871
:10F350006623FF330021D154FA68B4235B000021F7
:10F36000D154C046BD4607B090BDF0B587B000AFE0
:10F37000F860B960FB1D1A7010243B1918000723B0
:10F380001A0000210BF026FCFB1D1A78B9683B1906
:10F3900018000BF051FC20003B191B795BB2D9B26D
:10F3A000FA68B1235B00D154FA683B181B88190036
:10F3B0001000FEF727F903001A0013009B009B18AA
:10F3C0005B001900FA6892235B00FF2005000D40E6
:10F3D000D05C00242040041C281C2043D054080A80
:10F3E000FF2406002640D018447800252C40251C18
:10F3F000341C2C434470080CFF2406002640D0180F
:10F40000847800252C40251C341C2C438470080E65
:10F41000D318DA7800210A40111C021C0A43DA7062
:10F42000FA6810203B185B8819001000FEF7EAF814
:10F4300003001A0013009B009B185B001900FA6878
:10F440009A235B00FF2008400500D05C0024204088
:10F45000041C281C2043D054080AFF242040060026
:10F46000D018447800252C40251C341C2C434470B3
:10F47000080CFF2420400600D018847800252C407A
:10F48000251C341C2C438470080ED318DA78002114
:10F490000A40111C021C0A43DA70C046BD4607B080
:10F4A000F0BD80B584B000AFF860B960FB1D1A7084
:10F4B000C046BD4604B080BD80B584B000AFF860E2
:10F4C000B960FB1D1A70C046BD4604B080BD80B552
:10F4D00084B000AFF860B960FB1D1A70BB68197882
:10F4E000FA68AE235B00D154BB685978FA685E2392
:10F4F000FF33D154BB689978FA68AF235B00D154CD
:10F50000BB68D978FA686023FF33D154BB68197996
:10F51000FA68B0235B00D154C046BD4604B080BD3C
:10F52000B0B586B000AFF86008007A6019000B2310
:10F53000FB18021C1A700A243B190A1C1A701025A9
:10F540007B19180008231A0000210BF043FB3B191C
:10F550001A7879687B1918000BF06EFBC046BD461F
:10F5600006B0B0BD90B583B000AF78607B68E02294
:10F570009B5C082B04D17A686223FF33D15C1EE0C8
:10F580007C687B688C2252009A5C1A21FF31595C9E
:10F5900009020A438D214900595C09040A431C21D0
:10F5A000FF315B5C1B0613430E211800F0F7ACFD26
:10F5B000030019002000FDF72CFE030019007A68F3
:10F5C0006223FF33D1547A686223FF33D35C18007F
:10F5D000BD4603B090BD0000F0B587B000AFF86045
:10F5E000B960FB1D1A7010243B19180008231A007B
:10F5F00000210BF0EFFAFB1D1A78B9683B191800CF
:10F600000BF01AFBFB68E1229B5C042B00D114E198
:10F61000FA683B19DB8819001000FDF7F3FF0300BF
:10F620001A0013009B009B185B001900FA689023D6
:10F630005B00FF2008400500D05C00242040041C33
:10F64000281C2043D054080AFF2420400600D0186C
:10F65000447800252C40251C341C2C434470080C95
:10F66000FF2420400600D018847800252C40251C5B
:10F67000341C2C438470080ED318DA7800210A4019
:10F68000111C021C0A43DA70FB68902252009A5C3B
:10F690002221FF31595C09020A4391214900595C3A
:10F6A00009040A432421FF315B5C1B0613431A0043
:10F6B0006B4B9A421CD9FA6890235B00D15C002006
:10F6C0000140081C782149420143D154D11848789F
:10F6D00000242040041C132020434870D11888784F
:10F6E000002420408870D318DA7800210A40DA70AC
:10F6F000FB68902252009A5C2221FF31595C09027A
:10F700000A4391214900595C09040A432421FF312D
:10F710005B5C1B0613431A00524B9A421CD8FA68D2
:10F7200090235B00D15C00200140081C2421494249
:10F730000143D154D118487800242040041C0520EE
:10F7400020434870D1188878002420408870D3184E
:10F75000DA7800210A40DA70FA681023FB189B88D7
:10F7600019001000FDF74EFF03001A0013009B0064
:10F770009B185B001900FA689C235B00FF2008407F
:10F780000500D05C00242040041C281C2043D054D9
:10F79000080AFF2420400600D018447800252C4099
:10F7A000251C341C2C434470080CFF242040060008
:10F7B000D018847800252C40251C341C2C438470E0
:10F7C000080ED318DA7800210A40111C021C0A43E3
:10F7D000DA70FB689C2252009A5C3A21FF31595C36
:10F7E00009020A439D214900595C09040A433C214E
:10F7F000FF315B5C1B0613431A001B4B9A421CD95A
:10F80000FA689C235B00D15C00200140081C782131
:10F810000143D154D118487800242040041C1A20F8
:10F82000404220434870D1188878002420408870D6
:10F83000D318DA7800210A40DA7010203B18997842
:10F84000FA686223FF33D1543B185B785BB2D9B2BC
:10F85000FA68B1235B00D154C046BD4607B0F0BD85
:10F8600088130000DB05000078E60000F0B587B0E3
:10F8700000AFF860B960FB1D1A7010243B19180026
:10F8800008231A0000210BF0A5F9FB1D1A78B968AE
:10F890003B1918000BF0D0F9FA683B195B88190086
:10F8A0001000FDF7AFFE03001A0013009B009B1829
:10F8B0005B001900FA6888235B00FF200840050000
:10F8C000D05C00242040041C281C2043D054080A8B
:10F8D000FF2420400600D018447800252C40251C29
:10F8E000341C2C434470080CFF2420400600D01820
:10F8F000847800252C40251C341C2C438470080E71
:10F90000D318DA7800210A40111C021C0A43DA706D
:10F91000FA6810243B191B8819001000FDF772FECD
:10F9200003001A0013009B009B185B001900FA6883
:10F930008A235B00FF2008400500D05C00242040A3
:10F94000041C281C2043D054080AFF242040060031
:10F95000D018447800252C40251C341C2C434470BE
:10F96000080CFF2420400600D018847800252C4085
:10F97000251C341C2C438470080ED318DA7800211F
:10F980000A40111C021C0A43DA70FA6810243B1961
:10F990009B8819001000FDF735FE03001A001300C4
:10F9A0009B009B185B001900FA6892235B00FF2004
:10F9B00008400500D05C00242040041C281C204383
:10F9C000D054080AFF2420400600D01844780025AF
:10F9D0002C40251C341C2C434470080CFF24204070
:10F9E0000600D018847800252C40251C341C2C439C
:10F9F0008470080ED318DA7800210A40111C021C0A
:10FA00000A43DA70FA6810243B19DB8819001000E9
:10FA1000FDF7F8FD03001A0013009B009B185B0024
:10FA20001900FA689A235B00FF2008400500D05CAB
:10FA300000242040041C281C2043D054080AFF2422
:10FA400020400600D018447800252C40251C341C8A
:10FA50002C434470080CFF2420400600D018847802
:10FA600000252C40251C341C2C438470080ED31810
:10FA7000DA7800210A40111C021C0A43DA70C046E1
:10FA8000BD4607B0F0BD80B584B000AFF860B96086
:10FA9000FB1D1A70BB681978FA68AE235B00D1545D
:10FAA000BB685978FA68AF235B00D154BB6899787A
:10FAB000FA686023FF33D154BB68D978FA68B02361
:10FAC0005B00D154C046BD4604B080BDF0B583B0E4
:10FAD00000AF786039603B681A78597809020A43A8
:10FAE000997809040A43DB781B0613439E4A934224
:10FAF00000D12BE19C4A934200D930E19B4A9342CA
:10FB000000D11AE1994A934200D928E1F222520029
:10FB100093420ED2CD225200934200D21FE19B3B72
:10FB2000FF3B492B00D91AE19A00914BD3181B686F
:10FB30009F46A422D200934200D1F5E00FE100F0ED
:10FB40000BFD01007A6894235B00FF20084005004C
:10FB5000D05C00242040041C281C2043D054080AF8
:10FB6000FF2420400600D018447800252C40251C96
:10FB7000341C2C434470080CFF2420400600D0188D
:10FB8000847800252C40251C341C2C438470080EDE
:10FB9000D318DA7800210A40111C021C0A43DA70DB
:10FBA0003B68591D3B681A797B681800FFF799FB81
:10FBB000D6E0D2235A007B6811001800FFF77CFBC7
:10FBC000CEE03B68591D3B681A797B681800FFF747
:10FBD000CCFBD7235A007B6811001800FFF76CFBA1
:10FBE000BEE03B6899797A686223FF33D154DC2305
:10FBF0005A007B6811001800FFF75EFBB0E0E123BC
:10FC00005A007B6811001800FFF756FBA8E03B681C
:10FC1000591D3B681A797B681800FFF742FCC42322
:10FC2000FF331A007B6811001800FFF745FB97E0CF
:10FC30003B68591D3B681A797B681800FFF73CFC4C
:10FC4000E2235A007B6811001800FFF735FB87E0BC
:10FC5000E6235A007B6811001800FFF72DFB7FE0B8
:10FC60003B68591D3B681A797B681800FFF72FFC29
:10FC7000EB235A007B6811001800FFF71DFB6FE0B3
:10FC80003B685A1D3B681B7978680021FFF748FCE8
:10FC9000D823FF331A007B6811001800FFF70CFB14
:10FCA0005EE03B685A1D3B681B7978680521FFF7C9
:10FCB00037FCEC235A007B6811001800FFF7FCFAB0
:10FCC0004EE03B685A1D3B681B7978680921FFF7B5
:10FCD00027FCDA23FF331A007B6811001800FFF7B6
:10FCE000EBFA3DE03B685A1D3B681B7978680D21B3
:10FCF000FFF716FCF0235A007B6811001800FFF78D
:10FD0000DBFA2DE0E223FF331A007B6811001800B4
:10FD1000FFF7D2FA24E0AC23FF331A007B6811000E
:10FD20001800FFF7C9FA1BE03B68591D3B681A79B8
:10FD30007B681800FFF750FC12E03B68591D3B68D8
:10FD40001A797B681800FFF791FD09E03B68591D9F
:10FD50003B681A797B681800FFF795FE00E0C04603
:10FD6000C046BD4603B0F0BD2205000021050000DD
:10FD700068B2010890B589B000AFF860B9607A60E8
:10FD80001A00FB1C1A7010243B19180010231A00CB
:10FD900000210AF01FFF3B19BA681A603B19FA1CD0
:10FDA00012781A73FB1C1A7879683B19043318000F
:10FDB0000AF042FF144B5A68134B1B78591CC8B207
:10FDC000114908701B01D2183B19100019001023AB
:10FDD0001A000AF031FF0C4B1A780B4B9B78190074
:10FDE0001000F0F717FA0B00DAB2074B1A70FB6835
:10FDF000FB331A00FB681100180000F007F800231D
:10FE00001800BD4609B090BDB0000020B0B586B066
:10FE100000AF7860396008257B19180010231A009C
:10FE200000210AF0D7FE354B5A68344B5B78591CD9
:10FE3000C8B2324948701B01D3187A191000190052
:10FE400010231A000AF0F8FE2C4B5A782B4B9B78A3
:10FE500019001000F0F7DEF90B00DAB2274B5A70E8
:10FE60003B68581D7B191B7B1A007B190433190052
:10FE70000AF0E2FE7B191A683B68FF2111400C0072
:10FE8000197800200140081C211C01431970110A37
:10FE9000FF2001400C00597800200140081C211C63
:10FEA00001435970110CFF2001400C00997800208B
:10FEB0000140081C211C01439970100EDA780021C2
:10FEC0000A40111C021C0A43DA707B191A7B3B683A
:10FED0001A717B681A78597809020A4399780904DB
:10FEE0000A43DB781B06134308331B6839687A68BA
:10FEF00010009847C046BD4606B0B0BDB000002017
:10FF000080B582B000AF7860044B002280211800D9
:10FF100004F0C6F8C046BD4602B080BD00040050E3
:10FF200080B582B000AF7860044B012280211800B8
:10FF300004F0B6F8C046BD4602B080BD00040050D3
:10FF4000B0B584B000AF78607A686623FF33D35CC5
:10FF5000002B00D1B9E00823FB18180008231A0071
:10FF600000210AF037FE7B68E0229B5C062B04D060
:10FF70007B68E1229B5C012B07D108217B180122C1
:10FF80001A707B180222DA703CE07B68E1229B5CED
:10FF9000002B04D07B68E1229B5C052B07D1082154
:10FFA0007B1800221A707B180122DA702AE07B6825
:10FFB000E1229B5C022B04D07B68E1229B5C032B3B
:10FFC00007D108217B1802221A707B180222DA70EE
:10FFD00018E07B68E1229B5C042B07D108217B1889
:10FFE00003221A707B180222DA700BE07B68E12290
:10FFF0009B5C062B06D108217B1804221A707B1803
:020000040801F1
:100000000122DA707C687B688E2252009A5C1E2185
:10001000FF31595C09020A438F214900595C0904E8
:100020000A432021FF315B5C1B0613430A211800A1
:10003000F0F76AF803009BB219002000FDF7E2FA1E
:1000400003001A0008257B19DA807C687B688C2203
:1000500052009A5C1A21FF31595C09020A438D2132
:100060004900595C09040A431C21FF315B5C1B06F3
:1000700013430A211800F0F747F803009BB2190058
:100080002000FDF7BFFA03001A007B199A807B68F5
:10009000AC2252009A5C5A21FF31595C09020A4392
:1000A000AD214900595C09040A435C21FF315B5CC6
:1000B0001B0613435AB27B195A707919A623DB0029
:1000C00008221800FAF764F900E0C046BD4604B003
:1000D000B0BD000080B586B000AF78607A68662356
:1000E000FF33D35C002B00D1FDE11023FB1800226D
:1000F0001A6000225A600C203B1800221A807B688C
:10010000AA2252009A5C5621FF31595C09020A4327
:10011000AB214900595C09040A435821FF315B5C5B
:100120001B0613431A0080235B02134007D03B18C1
:100130001B7801221343DAB23B181A7007E00C2136
:100140007B181B7801229343DAB27B181A707B6804
:10015000AA2252009A5C5621FF31595C09020A43D7
:10016000AB214900595C09040A435821FF315B5C0B
:100170001B0613431A00A0231B01134008D00C21B7
:100180007B181B7802221343DAB27B181A7007E03F
:100190000C217B181B7802229343DAB27B181A7069
:1001A0007B68AA2252009A5C5621FF31595C0902F1
:1001B0000A43AB214900595C09040A435821FF3125
:1001C0005B5C1B0613431A0080235B03134008D0BB
:1001D0000C217B181B7804221343DAB27B181A70A7
:1001E00007E00C217B181B7804229343DAB27B18BA
:1001F0001A707A686A23FF33D35C012B08D10C2173
:100200007B181B7808221343DAB27B181A7007E0B8
:100210000C217B181B7808229343DAB27B181A70E2
:100220007B68AA2252009A5C5621FF31595C090270
:100230000A43AB214900595C09040A435821FF31A4
:100240005B5C1B0613431A000223134008D00C21E9
:100250007B181B7810221343DAB27B181A7007E060
:100260000C217B181B7810229343DAB27B181A708A
:100270007B68AA2252009A5C5621FF31595C090220
:100280000A43AB214900595C09040A435821FF3154
:100290005B5C1B0613431A000423134008D00C2197
:1002A0007B181B7820221343DAB27B181A7007E000
:1002B0000C217B181B7820229343DAB27B181A702A
:1002C0007B68AA2252009A5C5621FF31595C0902D0
:1002D0000A43AB214900595C09040A435821FF3104
:1002E0005B5C1B0613431A00802313400FD00C21C4
:1002F0007B181B7840221343DAB27B181A707B18E4
:100300005B7804221343DAB27B185A700EE00C219A
:100310007B181B7840229343DAB27B181A707B1843
:100320005B7804229343DAB27B185A707B68AA2266
:1003300052009A5C5621FF31595C09020A43AB21F5
:100340004900595C09040A435821FF315B5C1B06D4
:1003500013431A00C0239B04134009D00C217B18BF
:100360001B78802252421343DAB27B181A7007E0DE
:100370000C217B181B787F221340DAB27B181A708D
:100380007B68AA2252009A5C5621FF31595C09020F
:100390000A43AB214900595C09040A435821FF3143
:1003A0005B5C1B0613431A002023134008D00C216A
:1003B0007B185B7801221343DAB27B185A7007E08E
:1003C0000C217B185B7801229343DAB27B185A70B8
:1003D0007B68AA2252009A5C5621FF31595C0902BF
:1003E0000A43AB214900595C09040A435821FF31F3
:1003F0005B5C1B0613431A004023134008D00C21FA
:100400007B185B7802221343DAB27B185A7007E03C
:100410000C217B185B7802229343DAB27B185A7066
:100420007B68AA2252009A5C5621FF31595C09026E
:100430000A43AB214900595C09040A435821FF31A2
:100440005B5C1B0613431A0080231B05134008D076
:100450000C217B185B7808221343DAB27B185A70A0
:1004600007E00C217B185B7808229343DAB27B18F3
:100470005A707B68AA2252009A5C5621FF31595C5F
:1004800009020A43AB214900595C09040A43582177
:10049000FF315B5C1B0613431A008023DB0413400F
:1004A00008D00C217B185B7810221343DAB27B183A
:1004B0005A7007E00C217B185B7810229343DAB264
:1004C0007B185A700C203B181A7810217B181A7070
:1004D0003B185A787B185A707B1805480822190077
:1004E000F9F756FF00E0C046BD4606B080BDC046E5
:1004F0003105000080B582B000AFFB1D00221A70EC
:100500000B4B1A680A4B802149000A431A600320EA
:10051000FCF768FA031E03D0FB1D01221A7001E0EC
:10052000FCF730FAFB1D1B781800BD4602B080BDF9
:100530000020024080B500AF054B1B781A00054B28
:100540001B68D218034B1A60C046BD4680BDC0462A
:10055000C0000020502D002080B500AF024B1B686A
:100560001800BD4680BDC046502D002080B584B027
:1005700000AF7860FFF7F0FF0300BB607B68FB60B3
:10058000FB68013305D00A4B1B781A00FB689B18E7
:10059000FB60C046FFF7E0FF0200BB68D31AFA68B1
:1005A0009A42F7D8C046C046BD4604B080BDC0469A
:1005B000C000002080B582B000AF78607A688023E8
:1005C0009B009A4210D07A688023DB009A420BD0BD
:1005D0007A68C023DB009A4206D0B8239A00094B00
:1005E00011001800FCF7C5F9074B1B68074A1340B8
:1005F0001900054B7A680A431A60C046BD4602B02E
:1006000080BDC04664AD010800000140FFF9FFFF56
:1006100080B582B000AF786039607B681B68054A9E
:100620001A403B681A437B681A60C046BD4602B058
:1006300080BDC046FFFF3FFE80B582B000AF78604E
:100640007B681A68E0235B0413401800BD4602B0C3
:1006500080BD80B584B000AFF860B9607A60FB6897
:100660005B69BA6804210A40072191400A00D2431D
:100670001A40BB6804210B40796899400B001A436B
:10068000FB685A61C046BD4604B080BD80B582B0EB
:1006900000AF786039607B685B693A6804210A4082
:1006A000072191400A001A403B6804210B40DA40C0
:1006B00013001800BD4602B080BD80B582B000AF07
:1006C00078607B68DA68C0231B01134001D10123E5
:1006D00000E000231800BD4602B080BD80B584B0A4
:1006E00000AFF860B9607A60FB689B6ABA681F2146
:1006F0000A400F2191400A00D2431A407B689B0EAA
:100700000F211940BB681F20034099400B001A437A
:10071000FB689A62C046BD4604B080BD80B582B019
:1007200000AF786039607B689A6A3B685B035B0B5B
:100730001A437B689A62C046BD4602B080BD80B550
:1007400082B000AF786039607B689B6A3A68520378
:10075000520BD2431A407B689A62C046BD4602B033
:1007600080BD000080B584B000AFF860B9607A60E9
:10077000FB685B69BA681202D2431A40BB681B026D
:1007800079680B4004490B401A43FB685A61C04624
:10079000BD4604B080BDC04600FFFF0780B582B0F3
:1007A00000AF78607B689B68054A13408022520541
:1007B0001A437B689A60C046BD4602B080BDC04601
:1007C000E8FFFF6F80B582B000AF78607B689A6801
:1007D00080235B051A4080235B059A4201D10123E7
:1007E00000E000231800BD4602B080BD80B582B095
:1007F00000AF78607B689B68044A134001221A436B
:100800007B689A60C046BD4602B080BDE8FFFF7FAE
:1008100080B582B000AF78607B689B68044A134063
:1008200002221A437B689A60C046BD4602B080BD72
:10083000E8FFFF7F80B582B000AF78607B689B687F
:1008400001221340012B01D1012300E000231800F5
:10085000BD4602B080BD80B582B000AF78607B68D5
:100860009B6802221340022B01D1012300E00023E8
:100870001800BD4602B080BD80B582B000AF786080
:100880007B689B68044A134004221A437B689A6081
:10089000C046BD4602B080BDE8FFFF7F80B582B094
:1008A00000AF78607B689B6804221340042B01D161
:1008B000012300E000231800BD4602B080BD000007
:1008C00080B588B000AF78601F23FB1800221A7033
:1008D0000023BB6100237B610023FB607B68002B4E
:1008E00002D1012300F00FFC7B681B68C34A9342CE
:1008F00007D08A23FF331A00C14B11001800FCF700
:1009000038F87B685A68C0231B069A4258D07B6827
:100910005A688023DB059A4252D07B685A6880234C
:100920001B069A424CD07B685B68002B48D07B68E2
:100930005A688023DB029A4242D07B685A6880233F
:100940001B039A423CD07B685A68C0231B039A421F
:1009500036D07B685A6880235B039A4230D07B682C
:100960005A68A0235B039A422AD07B685A68C02346
:100970005B039A4224D07B685A68E0235B039A4267
:100980001ED07B685A6880239B039A4218D07B68EC
:100990005A6890239B039A4212D07B685A68A0231E
:1009A0009B039A420CD07B685A68B0239B039A42FF
:1009B00006D0C5235A00924B11001800FBF7D9FF4F
:1009C0007B689B68002B13D07B689B68082B0FD03B
:1009D0007B689B68102B0BD07B689B68182B07D01B
:1009E0008C23FF331A00864B11001800FBF7C1FF60
:1009F0007B68DB68002B0AD07B68DB68202B06D085
:100A0000C6235A007E4B11001800FBF7B2FF7B682B
:100A10001B69002B18D07B681A6980239B039A42BC
:100A200012D07B681A6980231B069A420CD07B681F
:100A30001B69744A934207D08E23FF331A00704B10
:100A400011001800FBF795FF7B689B7E002B0AD0F6
:100A50007B689B7E012B06D0C7235A00684B110090
:100A60001800FBF786FF7B689B6A002B19D07B6818
:100A70009A6A8023DB009A4213D07B689A6A8023AB
:100A80001B019A420DD07B689A6AC0231B019A42CF
:100A900007D09023FF331A00594B11001800FBF7C1
:100AA00068FF7B685A6A8023DB009A422ED07B68FD
:100AB0005A6A8823DB009A4228D07B685A6A9023BE
:100AC000DB009A4222D07B685A6A9823DB009A4264
:100AD0001CD07B685A6AA823DB009A4216D07B6838
:100AE0005A6AA023DB009A4210D07B685A6AB82366
:100AF000DB009A420AD07B685B6A002B06D0C823D1
:100B00005A003F4B11001800FBF733FF7B682C2283
:100B10009B5C002B0CD07B682C229B5C012B07D0AC
:100B20009223FF331A00364B11001800FBF721FF08
:100B30007B685B69042B0AD07B685B69082B06D055
:100B4000C9235A002E4B11001800FBF712FF7B68D7
:100B50001B6B002B0DD07B681A6B80235B019A42C4
:100B600007D09423FF331A00254B11001800FBF720
:100B700000FF7B681B7E002B0AD07B681B7E012B4D
:100B800006D0CA235A001E4B11001800FBF7F1FED5
:100B90007B685B7E002B0BD07B685B7E012B07D0D4
:100BA0009623FF331A00164B11001800FBF7E1FEE5
:100BB0007B685B6B002B29D07B685B6B012B25D09E
:100BC0007B685B6B022B21D07B685B6B032B1DD09A
:100BD0007B685B6B042B19D07B685B6B052B15D096
:100BE0007B685B6B062B11D07B685B6B072B0DD092
:100BF000CB235A00024B1100180005E000240140ED
:100C000098AD010804000080FBF7B3FE7B689B6B86
:100C1000002B23D07B689B6B012B1FD07B689B6BC9
:100C2000022B1BD07B689B6B032B17D07B689B6BC5
:100C3000042B13D07B689B6B052B0FD07B689B6BC1
:100C4000062B0BD07B689B6B072B07D09823FF33B9
:100C50001A00B94B11001800FBF78BFE7B683C2291
:100C60009B5C002B0BD07B683C229B5C012B06D04D
:100C7000CC235A00B04B11001800FBF77AFE7B68BA
:100C80003C229B5C012B00D066E07B681B6C002B38
:100C900023D07B681B6C042B1FD07B681B6C082B3C
:100CA0001BD07B681B6C0C2B17D07B681B6C102B2C
:100CB00013D07B681B6C142B0FD07B681B6C182B1C
:100CC0000BD07B681B6C1C2B07D09C23FF331A00B6
:100CD000994B11001800FBF74CFE7B685B6C002BF6
:100CE00028D07B685B6C202B24D07B685B6C402B0E
:100CF00020D07B685B6C602B1CD07B685B6C802B8E
:100D000018D07B685B6CA02B14D07B685B6CC02B0D
:100D100010D07B685B6CE02B0CD07B685A6C802316
:100D20005B009A4206D0CE235A00834B1100180074
:100D3000FBF71FFE7B689B6C002B0DD07B689A6CC9
:100D400080239B009A4207D09E23FF331A007A4BE0
:100D500011001800FBF70DFE7B68DB6C002B0DD03B
:100D60007B68DA6C80239B059A4207D0A023FF336F
:100D70001A00714B11001800FBF7FBFD7B681B6923
:100D8000002B27D07B6820229B5C002B0CD07B683B
:100D900020229B5C012B07D0A423FF331A00664B53
:100DA00011001800FBF7E5FD7B681A6980239B039F
:100DB0009A420FD17B68DB69002B03D07B68DB692B
:100DC000082B07D9A823FF331A005B4B110018002A
:100DD000FBF7CFFD7B6820229B5C012B0BD17B684E
:100DE0009B7E012B07D1AE23FF331A00524B11001B
:100DF0001800FBF7BEFD7B689B6D002B0AD17B685A
:100E00001800FBF74FFA7B680022DA657B685422F2
:100E1000002199547B681B681800FFF7D3FC031E60
:100E200015D17B681B681800FFF7B8FC434B1B68A3
:100E300043491800EFF768F9030001335B00FB60DA
:100E400002E0FB68013BFB60FB68002BF9D17B688B
:100E50001B681800FFF7B6FC031E0FD17B689B6D63
:100E600010221A437B689A657B68DB6D01221A4366
:100E70007B68DA651F23FB1801221A707B681B68E8
:100E80001800FFF70BFD03003B617B689B6D102290
:100E9000134000D02AE13B69002B00D026E17B689B
:100EA0009B6D284A134002221A437B689A657B682F
:100EB0001B681800FFF7BEFC031E00D0B5E07B687E
:100EC0009A687B681B7E9B031A437B685B7EDB030F
:100ED0001A437B689B7E5B031A437B681B6B002B6A
:100EE00002D080235B0100E000231A437B68DB68AB
:100EF0001A437B681B69002B04DA7B681B695B0063
:100F00005B0801E080239B031A437B682C215B5C18
:100F10005B001343BA691343BB617B6820229B5C6F
:100F2000012B1DD17B689B7E002B0DD1BB698022DC
:100F300052021343BB6113E098AD0108A8000020E2
:100F4000400D0300FDFEFFFF7B689B6D20221A43CE
:100F50007B689A657B68DB6D01221A437B68DA65E2
:100F60007B685B6A002B0AD07B685A6AE0235B00CF
:100F70001A407B689B6A1343BA691343BB617B6861
:100F80001B68DB68624A134019007B681B68BA69FA
:100F90000A43DA607B685B689B0F9A077B68DB6CAF
:100FA00013437A6913437B617B683C229B5C012B72
:100FB00011D17B685B689B0F9A077B681B6C1A4397
:100FC0007B685B6C1A437B689B6C1A437B69134399
:100FD000012213437B617B681B681B694D4A1340E8
:100FE00019007B681B687A690A431A617B685A6832
:100FF000C0231B069A4218D07B685A688023DB0501
:101000009A4212D07B685A6880231B069A420CD001
:10101000414B1B68414A134019007B685A68F02312
:101020009B031A403C4B0A431A607B6818687B6834
:101030005B6B1A000021FFF70CFB7B6818687B686C
:101040009B6B37491A00FFF704FB7B681B69002B79
:1010500009D17B681B689A6A7B681B68102149422A
:101060000A439A6218E07B681A6980239B039A42BC
:1010700012D17B681B689B6A7B68DB69013B9B0024
:101080001C221340102252429A4011007B681A6EB3
:101090007B681B680A439A627B681B680021180002
:1010A000FFF7F4FA02007B685B6B9A420BD17B6816
:1010B0000022DA657B689B6D0322934301221A4369
:1010C0007B689A651CE07B689B6D1222934310221B
:1010D0001A437B689A657B68DB6D01221A437B6843
:1010E000DA651F23FB1801221A7009E07B689B6DEB
:1010F00010221A437B689A651F23FB1801221A707D
:101100001F23FB181B781800BD4608B080BDC046E1
:101110000102FEFF02FCFF1F08270140FFFFC3FF83
:1011200004FFFF07B0B586B000AFF860B9607A6021
:10113000FB681B68434A934205D0434A434B110066
:101140001800FBF716FCFB681B681800FFF7A6FBEE
:10115000031E6CD1FB6854229B5C012B01D102233E
:101160006CE0FB68542201219954FB681B68DB6822
:101170000122134013D1FB681B681800FFF75AFBCC
:10118000031E04D0FB681B681800FFF741FBFB68D7
:101190001B68DA68FB681B6801210A43DA601725BF
:1011A0007C19FB68180000F05DFB030023702C0025
:1011B0003B191B78002B3ED1FB689B6D244A1340E2
:1011C000802252001A43FB689A65FB680022DA65A8
:1011D000FB681B6D1F4ADA62FB681B6D1E4A1A63AF
:1011E000FB681B6D1D4A5A63FB681B681C221A6052
:1011F000FB68542200219954FB681B685A68FB68FD
:101200001B6810210A435A60FB68186DFB681B6855
:1012100040331900BA683C197B6801F04BF80300B1
:101220002370FB681B681800FFF726FB03E01723F9
:10123000FB1802221A701723FB181B781800BD46F2
:1012400006B0B0BD002401407D06000098AD010845
:10125000FEF0FFFF2D1A0108F51A0108131B010803
:1012600080B582B000AF7860C046BD4602B080BD98
:1012700080B582B000AF7860C046BD4602B080BD88
:1012800080B586B000AF786039601723FB18002264
:101290001A700023FB607B681B68904A934205D05C
:1012A0008F4A904B11001800FBF763FB3B681B68EB
:1012B000012B00D171E03B681B688B4A934200D13F
:1012C0006BE03B681B68894A934200D165E03B684C
:1012D0001B68874A934200D15FE03B681B68854AE0
:1012E00093425AD03B681B68834A934255D03B686F
:1012F0001B68824A934250D03B681B68804A9342E5
:101300004BD03B681B687F4A934246D03B681B68C2
:101310007D4A934241D03B681B687C4A93423CD053
:101320003B681B687A4A934237D03B681B68794A0E
:10133000934232D03B681B68774A93422DD03B687A
:101340001B68764A934228D03B681B68744A9342D4
:1013500023D03B681B68734A93421ED03B681B68CE
:10136000714A934219D03B681B68704A934214D06B
:101370003B681B686E4A93420FD03B681B686D4AFE
:1013800093420AD03B681B686B4A934205D06B4A74
:10139000544B11001800FBF7ECFA3B689B68002BDC
:1013A0000AD03B689B68664A934205D0654A4D4B1C
:1013B00011001800FBF7DDFA7B681A6980231B0611
:1013C0009A4204D07B681B695F4A93420ED13B6806
:1013D0005B68012B3FD03B685B68022B3BD05B4ACC
:1013E000404B11001800FBF7C4FA34E07B68DB695E
:1013F000002B03D07B68DB69082B06D988231A01F0
:10140000384B11001800FBF7B4FA3B685B68002BFF
:1014100021D03B685B68042B1DD03B685B68082BC0
:1014200019D03B685B680C2B15D03B685B68102BB0
:1014300011D03B685B68142B0DD03B685B68182BA0
:1014400009D03B685B681C2B05D0414A254B110035
:101450001800FBF78EFA7B6854229B5C012B01D1AC
:101460000223E6E17B685422012199547B681B68C2
:101470001800FFF713FA031E00D0C9E13B685B6850
:10148000022B00D17DE17B681A6980231B069A42FA
:1014900004D07B681B692C4A934208D17B681A6888
:1014A0003B681B6819001000FFF738F905E17B68FD
:1014B0001A6E3B685B681F210B400F2199400B009F
:1014C000DB43134019003B681B685B035B0B41D196
:1014D0003B681B689B0E1F221340D4E00024014090
:1014E0007508000098AD010802000004040000081F
:1014F0000800000C1000001020000014400000182C
:101500008000001C000100200002002400040028CC
:101510000008002C0010003000200034004000388B
:101520000080003C0000014000000244000004482C
:10153000001000B0002000B4004000B876080000A1
:1015400004FFFF0777080000040000807C0800000B
:10155000820800003B681B680122134000D091E024
:101560003B681B680222134000D089E03B681B687F
:101570000422134000D081E03B681B68082213401E
:1015800000D079E03B681B681022134000D071E066
:101590003B681B682022134000D069E03B681B6851
:1015A0004022134000D061E03B681B68802213405A
:1015B00000D059E03B681A6880235B00134051D18A
:1015C0003B681A6880239B00134049D13B681A6826
:1015D0008023DB00134041D13B681A6880231B0144
:1015E000134039D13B681A6880235B01134031D125
:1015F0003B681A6880239B01134029D13B681A6815
:101600008023DB01134021D13B681A6880231B0231
:10161000134019D13B681A6880235B02134011D133
:101620003B681A6880239B02134009D13B681A6803
:101630008023DB02134001D0122324E0002322E0A8
:10164000112320E010231EE00F231CE00E231AE0DC
:101650000D2318E00C2316E00B2314E00A2312E0FC
:10166000092310E008230EE007230CE006230AE01C
:10167000052308E0042306E0032304E0022302E03C
:10168000012300E000233A6852681F200240934083
:101690000A001A437B681A663B685B689B085A1C01
:1016A0007B68DB699A4208D87B6818683B68596890
:1016B0003B681B681A00FFF711F87B6818683B68E5
:1016C00019683B689B681A00FFF74CF83B681B6879
:1016D000002B00DBA6E0594B1800FEF7ADFF03001E
:1016E0003B613B681B68564A934222D13A6980238A
:1016F0001B0413401DD13B698022120413434F4A3F
:1017000019001000FEF784FF4E4B1B684E4918006D
:10171000EEF7FAFC03005A1C13005B009B189B00B9
:10172000FB6002E0FB68013BFB60FB68002BF9D12A
:1017300078E03B681B68454A93420ED13A698023A2
:101740005B04134009D13B698022520413433B4A96
:1017500019001000FEF75CFF64E03B681B683C4A20
:1017600093425FD13A698023DB0313405AD13B692E
:101770008022D2031343314A19001000FEF748FFBC
:1017800050E07B681A6980231B069A4204D07B686C
:101790001B69304A934207D17B681A683B681B6813
:1017A00019001000FEF7CBFF3B681B68002B39DAED
:1017B000224B1800FEF740FF03003B613B681B68AB
:1017C0001F4A934208D13B69234A13401B4A190020
:1017D0001000FEF71DFF25E03B681B681B4A934283
:1017E00008D13B691D4A1340144A19001000FEF746
:1017F0000FFF17E03B681B68154A934212D13B6903
:10180000174A13400D4A19001000FEF701FF09E0C6
:101810007B689B6D20221A437B689A651723FB180F
:1018200001221A707B685422002199541723FB1857
:101830001B781800BD4606B080BDC0460827014091
:10184000001000B0A8000020400D0300004000B8C8
:10185000002000B404000080FFFF7FFFFFFFFFFEB9
:10186000FFFFBFFF80B584B000AF78600023BB608E
:101870007B681B681800FEF7DDFF031E00D069E0DF
:101880007B681B689B68364A13400DD07B689B6D54
:1018900010221A437B689A657B68DB6D01221A432C
:1018A0007B68DA65012356E07B681B681800FEF749
:1018B0009DFF2C4B1800FEF7BFFE020080231B0487
:1018C00013400FD0284B1B6828491800EEF71CFC6A
:1018D00003000133BB6002E0BB68013BBB60BB6837
:1018E000002BF9D17B685B7E012B33D0FEF734FEF1
:1018F0000300FB6027E07B681B681800FEF79AFF77
:10190000031E04D17B681B681800FEF76FFFFEF70B
:1019100023FE0200FB68D31A022B14D97B681B68D4
:101920001B6801221340012B0DD07B689B6D102298
:101930001A437B689A657B68DB6D01221A437B68DA
:10194000DA65012307E07B681B681B6801221340EE
:10195000012BD0D100231800BD4604B080BDC04685
:101960001700008008270140A8000020400D030058
:1019700080B584B000AF78607B681B681800FEF704
:101980006AFF0300FB607B681B681800FEF752FFCC
:10199000031E46D0FB68002B43D17B681B689B6805
:1019A00005221340012B0DD17B681B681800FEF740
:1019B0002FFF7B681B6803221A60FEF7CDFD030032
:1019C000BB6028E07B689B6D10221A437B689A6598
:1019D0007B68DB6D01221A437B68DA65012321E015
:1019E000FEF7BAFD0200BB68D31A022B13D97B683D
:1019F0001B689B68012213400DD07B689B6D1022F1
:101A00001A437B689A657B68DB6D01221A437B6809
:101A1000DA65012306E07B681B689B68012213409E
:101A2000DED100231800BD4604B080BD80B584B06F
:101A300000AF78607B689B6AFB60FB689B6D5022FF
:101A4000134041D1FB689B6D802292001A43FB68D2
:101A50009A65FB681B681800FEF72FFE031E2ED048
:101A6000FB689B7E002B2AD1FB681B681B68082241
:101A70001340082B23D1FB681B681800FEF70EFFEC
:101A8000031E10D1FB681B685A68FB681B680C2199
:101A90008A435A60FB689B6D154A134001221A4322
:101AA000FB689A650BE0FB689B6D20221A43FB687C
:101AB0009A65FB68DB6D01221A43FB68DA65FB68F7
:101AC0001800F8F79DFD0FE0FB689B6D1022134096
:101AD00004D0FB681800FFF7CBFB05E0FB681B6D2B
:101AE0005B6B7A6810009847C046BD4604B080BD65
:101AF000FEFEFFFF80B584B000AF78607B689B6A14
:101B0000FB60FB681800FFF7ABFBC046BD4604B0A6
:101B100080BD80B584B000AF78607B689B6AFB6055
:101B2000FB689B6D40221A43FB689A65FB68DB6D7E
:101B300004221A43FB68DA65FB681800FFF798FB7C
:101B4000C046BD4604B080BD80B582B000AF7860AD
:101B500039607B68B4229B587F2293431A003B680C
:101B60001A437B68B4215A50C046BD4602B080BDBE
:101B700080B582B000AF78607B68B4229B587F222A
:101B800013401800BD4602B080BD000080B582B091
:101B900000AF78607B689B68044A134001221A43B7
:101BA0007B689A60C046BD4602B080BDE8FFFF7FFB
:101BB00080B582B000AF78607B689B68044A1340B0
:101BC00002221A437B689A60C046BD4602B080BDBF
:101BD000E8FFFF7F80B582B000AF78607B689B68CC
:101BE00001221340012B01D1012300E00023180042
:101BF000BD4602B080BD000080B582B000AF786005
